{
  "address": "0xd96E60a80418a525B2283F8C7F50c3C8dB15c402",
  "abi": [
    {
      "inputs": [
        {
          "internalType": "contract IAdapterRegistry",
          "name": "_registry",
          "type": "address"
        }
      ],
      "stateMutability": "nonpayable",
      "type": "constructor"
    },
    {
      "anonymous": false,
      "inputs": [
        {
          "indexed": false,
          "internalType": "address",
          "name": "adapter",
          "type": "address"
        }
      ],
      "name": "AdapterFrozen",
      "type": "event"
    },
    {
      "anonymous": false,
      "inputs": [
        {
          "indexed": false,
          "internalType": "address",
          "name": "adapter",
          "type": "address"
        }
      ],
      "name": "AdapterUnfrozen",
      "type": "event"
    },
    {
      "anonymous": false,
      "inputs": [
        {
          "indexed": false,
          "internalType": "address",
          "name": "token",
          "type": "address"
        }
      ],
      "name": "MarketFrozen",
      "type": "event"
    },
    {
      "anonymous": false,
      "inputs": [
        {
          "indexed": false,
          "internalType": "address",
          "name": "token",
          "type": "address"
        }
      ],
      "name": "MarketUnfrozen",
      "type": "event"
    },
    {
      "inputs": [],
      "name": "ETH_RESERVE_ADDRESS",
      "outputs": [
        {
          "internalType": "address",
          "name": "",
          "type": "address"
        }
      ],
      "stateMutability": "view",
      "type": "function"
    },
    {
      "inputs": [],
      "name": "aave",
      "outputs": [
        {
          "internalType": "contract ILendingPoolAddressesProvider",
          "name": "",
          "type": "address"
        }
      ],
      "stateMutability": "view",
      "type": "function"
    },
    {
      "inputs": [],
      "name": "core",
      "outputs": [
        {
          "internalType": "contract ILendingPoolCore",
          "name": "",
          "type": "address"
        }
      ],
      "stateMutability": "view",
      "type": "function"
    },
    {
      "inputs": [],
      "name": "erc20AdapterImplementation",
      "outputs": [
        {
          "internalType": "address",
          "name": "",
          "type": "address"
        }
      ],
      "stateMutability": "view",
      "type": "function"
    },
    {
      "inputs": [],
      "name": "etherAdapterImplementation",
      "outputs": [
        {
          "internalType": "address",
          "name": "",
          "type": "address"
        }
      ],
      "stateMutability": "view",
      "type": "function"
    },
    {
      "inputs": [
        {
          "internalType": "address",
          "name": "adapter",
          "type": "address"
        }
      ],
      "name": "freezeAdapter",
      "outputs": [],
      "stateMutability": "nonpayable",
      "type": "function"
    },
    {
      "inputs": [
        {
          "internalType": "uint256",
          "name": "",
          "type": "uint256"
        }
      ],
      "name": "frozenAdapters",
      "outputs": [
        {
          "internalType": "address",
          "name": "",
          "type": "address"
        }
      ],
      "stateMutability": "view",
      "type": "function"
    },
    {
      "inputs": [
        {
          "internalType": "uint256",
          "name": "",
          "type": "uint256"
        }
      ],
      "name": "frozenTokens",
      "outputs": [
        {
          "internalType": "address",
          "name": "",
          "type": "address"
        }
      ],
      "stateMutability": "view",
      "type": "function"
    },
    {
      "inputs": [],
      "name": "getFrozenAdapters",
      "outputs": [
        {
          "internalType": "address[]",
          "name": "tokens",
          "type": "address[]"
        }
      ],
      "stateMutability": "view",
      "type": "function"
    },
    {
      "inputs": [],
      "name": "getFrozenTokens",
      "outputs": [
        {
          "internalType": "address[]",
          "name": "tokens",
          "type": "address[]"
        }
      ],
      "stateMutability": "view",
      "type": "function"
    },
    {
      "inputs": [],
      "name": "getUnmapped",
      "outputs": [
        {
          "internalType": "address[]",
          "name": "tokens",
          "type": "address[]"
        }
      ],
      "stateMutability": "view",
      "type": "function"
    },
    {
      "inputs": [
        {
          "internalType": "uint256",
          "name": "max",
          "type": "uint256"
        }
      ],
      "name": "getUnmappedUpTo",
      "outputs": [
        {
          "internalType": "address[]",
          "name": "tokens",
          "type": "address[]"
        }
      ],
      "stateMutability": "view",
      "type": "function"
    },
    {
      "inputs": [
        {
          "internalType": "uint256",
          "name": "max",
          "type": "uint256"
        }
      ],
      "name": "map",
      "outputs": [],
      "stateMutability": "nonpayable",
      "type": "function"
    },
    {
      "inputs": [],
      "name": "protocol",
      "outputs": [
        {
          "internalType": "string",
          "name": "",
          "type": "string"
        }
      ],
      "stateMutability": "pure",
      "type": "function"
    },
    {
      "inputs": [],
      "name": "registry",
      "outputs": [
        {
          "internalType": "contract IAdapterRegistry",
          "name": "",
          "type": "address"
        }
      ],
      "stateMutability": "view",
      "type": "function"
    },
    {
      "inputs": [],
      "name": "totalMapped",
      "outputs": [
        {
          "internalType": "uint256",
          "name": "",
          "type": "uint256"
        }
      ],
      "stateMutability": "view",
      "type": "function"
    },
    {
      "inputs": [
        {
          "internalType": "uint256",
          "name": "index",
          "type": "uint256"
        }
      ],
      "name": "unfreezeAdapter",
      "outputs": [],
      "stateMutability": "nonpayable",
      "type": "function"
    },
    {
      "inputs": [
        {
          "internalType": "uint256",
          "name": "index",
          "type": "uint256"
        }
      ],
      "name": "unfreezeToken",
      "outputs": [],
      "stateMutability": "nonpayable",
      "type": "function"
    },
    {
      "inputs": [],
      "name": "weth",
      "outputs": [
        {
          "internalType": "address",
          "name": "",
          "type": "address"
        }
      ],
      "stateMutability": "view",
      "type": "function"
    }
  ],
  "transactionHash": "0xdbea0b3433273faa3e9534bfee821ca4e71c77e0937cfe97164e878d4f052cae",
  "args": [
    "0x5F2945604013Ee9f80aE2eDDb384462B681859C4"
  ],
  "solcInputHash": "15c5eb146eed5e149f0fa39b934f8cde",
  "bytecode": "0x6101006040523480156200001257600080fd5b5060405162004835380380620048358339810160408190526200003591620001bd565b6001600160601b0319606082901b166080526040805163076b7fbb60e51b815290517324a42fd28c976a61df5d00d0599c34c4f90748c89163ed6ff760916004808301926020929190829003018186803b1580156200009357600080fd5b505afa158015620000a8573d6000803e3d6000fd5b505050506040513d601f19601f82011682018060405250810190620000ce9190620001bd565b60601b6001600160601b03191660a0526040517324a42fd28c976a61df5d00d0599c34c4f90748c8906200010290620001a1565b6200010e9190620001e3565b604051809103906000f0801580156200012b573d6000803e3d6000fd5b5060601b6001600160601b03191660c0526040517324a42fd28c976a61df5d00d0599c34c4f90748c8906200016090620001af565b6200016c9190620001e3565b604051809103906000f08015801562000189573d6000803e3d6000fd5b5060601b6001600160601b03191660e0525062000210565b611af0806200155083390190565b6117f5806200304083390190565b600060208284031215620001cf578081fd5b8151620001dc81620001f7565b9392505050565b6001600160a01b0391909116815260200190565b6001600160a01b03811681146200020d57600080fd5b50565b60805160601c60a05160601c60c05160601c60e05160601c6112cc620002846000398061050c5280610c9d5250806109275280610de55250806102965280610abb5280610b075280610cf25280610e265250806103f452806104995280610733528061082252806109ff52506112cc6000f3fe608060405234801561001057600080fd5b50600436106101515760003560e01c8063b8dda9c7116100cd578063dc51b6ac11610081578063f1402dea11610066578063f1402dea14610257578063f2f4eb261461025f578063f401f8a01461026757610151565b8063dc51b6ac1461022f578063e31beb9a1461024457610151565b8063c97764e5116100b2578063c97764e51461020c578063d1e08f3114610214578063dc3312241461021c57610151565b8063b8dda9c7146101e6578063c961c589146101f957610151565b8063819faf7b11610124578063990918fb11610109578063990918fb146101c357806399a16e61146101cb578063b1245307146101de57610151565b8063819faf7b146101a65780638ce74426146101ae57610151565b80633fc8cef3146101565780634d0ceecb146101745780634d787ea9146101895780637b1039991461019e575b600080fd5b61015e61027a565b60405161016b9190611162565b60405180910390f35b61017c610292565b60405161016b9190611190565b61019c61019736600461114a565b610356565b005b61015e610497565b61015e6104bb565b6101b66104d3565b60405161016b91906111dd565b61015e61050a565b61017c6101d936600461114a565b61052e565b61017c61054c565b61019c6101f436600461114a565b6105ae565b61019c610207366004611036565b6107a1565b61017c6108c5565b61015e610925565b61015e61022a36600461114a565b610949565b610237610973565b60405161016b919061129e565b61019c61025236600461114a565b610979565b61015e610aa1565b61015e610ab9565b61015e61027536600461114a565b610add565b73c02aaa39b223fe8d0a0e5c4f27ead9083c756cc281565b60607f00000000000000000000000000000000000000000000000000000000000000006001600160a01b0316630902f1ac6040518163ffffffff1660e01b815260040160006040518083038186803b1580156102ed57600080fd5b505afa158015610301573d6000803e3d6000fd5b505050506040513d6000823e601f3d908101601f191682016040526103299190810190611075565b805160025491925090808214156103435760008352610351565b602081028301925080820383525b505090565b60006001828154811061036557fe5b6000918252602090912001546001600160a01b0316905061038581610aed565b156103ab5760405162461bcd60e51b81526004016103a290611230565b60405180910390fd5b6103b6600183610b92565b60006103c182610c71565b6040517fff46d01b0000000000000000000000000000000000000000000000000000000081529091506001600160a01b037f0000000000000000000000000000000000000000000000000000000000000000169063ff46d01b90610429908490600401611162565b600060405180830381600087803b15801561044357600080fd5b505af1158015610457573d6000803e3d6000fd5b505050507f9d70968988366484026d19fd2ed45ba53154e653af0d3b64a6e30fd1e59e9c028260405161048a9190611162565b60405180910390a1505050565b7f000000000000000000000000000000000000000000000000000000000000000081565b7324a42fd28c976a61df5d00d0599c34c4f90748c881565b60408051808201909152600781527f4161766520563100000000000000000000000000000000000000000000000000602082015290565b7f000000000000000000000000000000000000000000000000000000000000000081565b6060610538610292565b90508181511115610547578181525b919050565b606060008054806020026020016040519081016040528092919081815260200182805480156105a457602002820191906000526020600020905b81546001600160a01b03168152600190910190602001808311610586575b5050505050905090565b60006105b98261052e565b805190915060008167ffffffffffffffff811180156105d757600080fd5b50604051908082528060200260200182016040528015610601578160200160208202803683370190505b5090506000805b8381101561070757600085828151811061061e57fe5b6020026020010151905061063181610aed565b156106c05760018054808201825560008290527fb10e2d527612073b26eecdfd717e6a320cf44b4afac2b0732d9fcbe2b7fa0cf60180546001600160a01b0319166001600160a01b0384161790556040519301927fb33cb2dd3d0d4f68fb707ddade8bd1e4c8ba3c3cf18274aff3968e86a0548da1906106b2908390611162565b60405180910390a1506106ff565b60006106cb82610c71565b90508085858503815181106106dc57fe5b60200260200101906001600160a01b031690816001600160a01b03168152505050505b600101610608565b506002805484019055801561071c5780830382525b604051633be4c7fd60e01b81526001600160a01b037f00000000000000000000000000000000000000000000000000000000000000001690633be4c7fd90610768908590600401611190565b600060405180830381600087803b15801561078257600080fd5b505af1158015610796573d6000803e3d6000fd5b505050505050505050565b6107aa81610f14565b6107c65760405162461bcd60e51b81526004016103a290611267565b600080546001810182559080527f290decd9548b62a8d60345a988386fc84ba6bc95484008f6362f93160ef3e5630180546001600160a01b0319166001600160a01b038381169190911790915560405163053551dd60e51b81527f00000000000000000000000000000000000000000000000000000000000000009091169063a6aa3ba090610859908490600401611162565b600060405180830381600087803b15801561087357600080fd5b505af1158015610887573d6000803e3d6000fd5b505050507fd40fc6dc0bc7f9e69f705b5e74dfd3623d55ea32890b826bd25584e5f0f03fcc816040516108ba9190611162565b60405180910390a150565b606060018054806020026020016040519081016040528092919081815260200182805480156105a4576020028201919060005260206000209081546001600160a01b03168152600190910190602001808311610586575050505050905090565b7f000000000000000000000000000000000000000000000000000000000000000081565b6000818154811061095957600080fd5b6000918252602090912001546001600160a01b0316905081565b60025481565b600080828154811061098757fe5b6000918252602090912001546001600160a01b031690506109a781610f14565b156109c45760405162461bcd60e51b81526004016103a290611230565b6109cf600083610b92565b6040517fff46d01b0000000000000000000000000000000000000000000000000000000081526001600160a01b037f0000000000000000000000000000000000000000000000000000000000000000169063ff46d01b90610a34908490600401611162565b600060405180830381600087803b158015610a4e57600080fd5b505af1158015610a62573d6000803e3d6000fd5b505050507f2dac01b475b5c97016d30db596f912172f79a142dd507389304167f50f0173fb81604051610a959190611162565b60405180910390a15050565b73eeeeeeeeeeeeeeeeeeeeeeeeeeeeeeeeeeeeeeee81565b7f000000000000000000000000000000000000000000000000000000000000000081565b6001818154811061095957600080fd5b604051634a08accb60e01b81526000906001600160a01b037f00000000000000000000000000000000000000000000000000000000000000001690634a08accb90610b3c908590600401611162565b60206040518083038186803b158015610b5457600080fd5b505afa158015610b68573d6000803e3d6000fd5b505050506040513d601f19601f82011682018060405250810190610b8c919061112a565b92915050565b81546000198101821415610bd25782805480610baa57fe5b600082815260209020810160001990810180546001600160a01b031916905501905550610c6d565b6000836001830381548110610be357fe5b9060005260206000200160009054906101000a90046001600160a01b0316905080848481548110610c1057fe5b9060005260206000200160006101000a8154816001600160a01b0302191690836001600160a01b0316021790555083805480610c4857fe5b600082815260209020810160001990810180546001600160a01b031916905501905550505b5050565b60006001600160a01b03821673eeeeeeeeeeeeeeeeeeeeeeeeeeeeeeeeeeeeeeee1415610de057610cca7f00000000000000000000000000000000000000000000000000000000000000006001600160a01b0316610f8f565b9050806001600160a01b031663485cc95573c02aaa39b223fe8d0a0e5c4f27ead9083c756cc27f00000000000000000000000000000000000000000000000000000000000000006001600160a01b03166334b3beee866040518263ffffffff1660e01b8152600401610d3c9190611162565b60206040518083038186803b158015610d5457600080fd5b505afa158015610d68573d6000803e3d6000fd5b505050506040513d601f19601f82011682018060405250810190610d8c9190611059565b6040518363ffffffff1660e01b8152600401610da9929190611176565b600060405180830381600087803b158015610dc357600080fd5b505af1158015610dd7573d6000803e3d6000fd5b50505050610547565b610e127f00000000000000000000000000000000000000000000000000000000000000006001600160a01b0316610f8f565b9050806001600160a01b031663485cc955837f00000000000000000000000000000000000000000000000000000000000000006001600160a01b03166334b3beee866040518263ffffffff1660e01b8152600401610e709190611162565b60206040518083038186803b158015610e8857600080fd5b505afa158015610e9c573d6000803e3d6000fd5b505050506040513d601f19601f82011682018060405250810190610ec09190611059565b6040518363ffffffff1660e01b8152600401610edd929190611176565b600060405180830381600087803b158015610ef757600080fd5b505af1158015610f0b573d6000803e3d6000fd5b50505050919050565b6000610b8c826001600160a01b0316636f307dc36040518163ffffffff1660e01b815260040160206040518083038186803b158015610f5257600080fd5b505afa158015610f66573d6000803e3d6000fd5b505050506040513d601f19601f82011682018060405250810190610f8a9190611059565b610aed565b600080610f9b83610fad565b90506037602082016000f09392505050565b6040805160488082526080820190925260609160208201818036833750507f3d602d80600a3d3981f3363d3d373d3d3d363d7300000000000000000000000060208301525060609290921b6034830152507f5af43d82803e903d91602b57fd5bf3000000000000000000000000000000000060488201526037815290565b8051610547816112a7565b600060208284031215611047578081fd5b8135611052816112a7565b9392505050565b60006020828403121561106a578081fd5b8151611052816112a7565b60006020808385031215611087578182fd5b825167ffffffffffffffff8082111561109e578384fd5b818501915085601f8301126110b1578384fd5b8151818111156110bd57fe5b838102604051858282010181811085821117156110d657fe5b604052828152858101935084860182860187018a10156110f4578788fd5b8795505b8386101561111d576111098161102b565b8552600195909501949386019386016110f8565b5098975050505050505050565b60006020828403121561113b578081fd5b81518015158114611052578182fd5b60006020828403121561115b578081fd5b5035919050565b6001600160a01b0391909116815260200190565b6001600160a01b0392831681529116602082015260400190565b6020808252825182820181905260009190848201906040850190845b818110156111d15783516001600160a01b0316835292840192918401916001016111ac565b50909695505050505050565b6000602080835283518082850152825b81811015611209578581018301518582016040015282016111ed565b8181111561121a5783604083870101525b50601f01601f1916929092016040019392505050565b60208082526013908201527f4d61726b6574207374696c6c2066726f7a656e00000000000000000000000000604082015260600190565b60208082526011908201527f4d61726b6574206e6f742066726f7a656e000000000000000000000000000000604082015260600190565b90815260200190565b6001600160a01b03811681146112bc57600080fd5b5056fea164736f6c6343000706000a60c060405234801561001057600080fd5b50604051611af0380380611af08339818101604052602081101561003357600080fd5b505160408051630261bf8b60e01b815290516001600160a01b03831691630261bf8b916004808301926020929190829003018186803b15801561007557600080fd5b505afa158015610089573d6000803e3d6000fd5b505050506040513d602081101561009f57600080fd5b505160601b6001600160601b0319166080526040805163076b7fbb60e51b815290516001600160a01b0383169163ed6ff760916004808301926020929190829003018186803b1580156100f157600080fd5b505afa158015610105573d6000803e3d6000fd5b505050506040513d602081101561011b57600080fd5b5051606081811b6001600160601b03191660a052608051901c91506001600160a01b0316611967610189600039806108685280610a0a5280610ab55280610b5d5280610bd75280610c905280610d275280610e5052806114d35250806105db528061152f52506119676000f3fe608060405234801561001057600080fd5b50600436106101515760003560e01c80636f307dc3116100cd578063c89d5b8b11610081578063e83dd2e011610066578063e83dd2e014610366578063f2f4eb26146103b0578063fc0c546a146103b857610151565b8063c89d5b8b1461038b578063d31c9c291461039357610151565b8063853828b6116100b2578063853828b61461035e5780638da876c914610366578063b6b55f251461036e57610151565b80636f307dc31461034e578063743753591461035657610151565b8063282a050b11610124578063485cc95511610109578063485cc955146103015780634e6f376d146102c757806365cdab3d1461033157610151565b8063282a050b146102c75780632e1a7d4d146102e457610151565b8063020c06731461015657806306fdde03146101f75780631071a2901461027457806316f0115b146102a3575b600080fd5b61015e6103c0565b604051808060200180602001838103835285818151815260200191508051906020019060200280838360005b838110156101a257818101518382015260200161018a565b50505050905001838103825284818151815260200191508051906020019060200280838360005b838110156101e15781810151838201526020016101c9565b5050505090500194505050505060405180910390f35b6101ff610462565b6040805160208082528351818301528351919283929083019185019080838360005b83811015610239578181015183820152602001610221565b50505050905090810190601f1680156102665780820380516001836020036101000a031916815260200191505b509250505060405180910390f35b6102916004803603602081101561028a57600080fd5b503561056e565b60408051918252519081900360200190f35b6102ab6105d9565b604080516001600160a01b039092168252519081900360200190f35b610291600480360360208110156102dd57600080fd5b50356105fd565b610291600480360360208110156102fa57600080fd5b5035610600565b61032f6004803603604081101561031757600080fd5b506001600160a01b038135811691602001351661067e565b005b6102916004803603602081101561034757600080fd5b50356107b6565b6102ab61083d565b61029161084c565b6102916108eb565b610291610902565b6102916004803603602081101561038457600080fd5b503561094d565b6102916109de565b610291600480360360208110156103a957600080fd5b5035610a89565b6102ab610e4e565b6102ab610e72565b60408051600180825281830190925260609182919060208083019080368337505060408051600180825281830190925292945090506020808301908036833750506000805485519394506001600160a01b03169285925061041d57fe5b60200260200101906001600160a01b031690816001600160a01b0316815250506104456109de565b8160008151811061045257fe5b6020026020010181815250509091565b606061046c610e81565b600054610481906001600160a01b0316610eb8565b6040516020018083805190602001908083835b602083106104b35780518252601f199092019160209182019101610494565b6001836020036101000a03801982511681845116808217855250505050505090500180600160fd1b81525060010182805190602001908083835b6020831061050c5780518252601f1990920191602091820191016104ed565b6001836020036101000a038019825116818451168082178552505050505050905001807f204164617074657200000000000000000000000000000000000000000000000081525060080192505050604051602081830303815290604052905090565b60008082116105b1576040805162461bcd60e51b815260206004820152600a6024820152690776974686472617720360b41b604482015290519081900360640190fd5b6105ba82611115565b6000549091506105d4906001600160a01b0316338461119a565b919050565b7f000000000000000000000000000000000000000000000000000000000000000081565b90565b6000808211610643576040805162461bcd60e51b815260206004820152600a6024820152690776974686472617720360b41b604482015290519081900360640190fd5b60015461065b906001600160a01b0316333085611303565b61066482611475565b6000549091506105d4906001600160a01b0316338361119a565b6000546001600160a01b03161580156106a057506001546001600160a01b0316155b6106f1576040805162461bcd60e51b815260206004820152600b60248201527f696e697469616c697a6564000000000000000000000000000000000000000000604482015290519081900360640190fd5b6001600160a01b0382161580159061071157506001600160a01b03811615155b610762576040805162461bcd60e51b815260206004820152600b60248201527f6261642061646472657373000000000000000000000000000000000000000000604482015290519081900360640190fd5b600080546001600160a01b038085167fffffffffffffffffffffffff00000000000000000000000000000000000000009283161790925560018054928416929091169190911790556107b26114c1565b5050565b60008082116107f9576040805162461bcd60e51b815260206004820152600a6024820152690776974686472617720360b41b604482015290519081900360640190fd5b600061080361084c565b90508281106108125782610814565b805b915061081f82611115565b50600054610837906001600160a01b0316338461119a565b50919050565b6000546001600160a01b031681565b60008054604080516370a0823160e01b81526001600160a01b037f000000000000000000000000000000000000000000000000000000000000000081166004830152915191909216916370a08231916024808301926020929190829003018186803b1580156108ba57600080fd5b505afa1580156108ce573d6000803e3d6000fd5b505050506040513d60208110156108e457600080fd5b5051905090565b60006108fd6108f8610902565b610600565b905090565b600154604080516370a0823160e01b815233600482015290516000926001600160a01b0316916370a08231916024808301926020929190829003018186803b1580156108ba57600080fd5b60008082116109a3576040805162461bcd60e51b815260206004820152600960248201527f6465706f73697420300000000000000000000000000000000000000000000000604482015290519081900360640190fd5b6000546109bb906001600160a01b0316333085611303565b6109c4826114f9565b6001549091506105d4906001600160a01b0316338361119a565b60008054604080516362a00a4760e11b81526001600160a01b0392831660048201529051633b9aca00927f0000000000000000000000000000000000000000000000000000000000000000169163c540148e916024808301926020929190829003018186803b158015610a5057600080fd5b505afa158015610a64573d6000803e3d6000fd5b505050506040513d6020811015610a7a57600080fd5b505181610a8357fe5b04905090565b6000805460408051633570a20b60e11b81526001600160a01b03928316600482018190529151919284927f000000000000000000000000000000000000000000000000000000000000000090911691636ae14416916024808301926020929190829003018186803b158015610afd57600080fd5b505afa158015610b11573d6000803e3d6000fd5b505050506040513d6020811015610b2757600080fd5b50516040805163e240301960e01b81526001600160a01b0385811660048301529151928216926357e37af0928692610bd5928a927f0000000000000000000000000000000000000000000000000000000000000000169163e2403019916024808301926020929190829003018186803b158015610ba357600080fd5b505afa158015610bb7573d6000803e3d6000fd5b505050506040513d6020811015610bcd57600080fd5b505190611574565b7f00000000000000000000000000000000000000000000000000000000000000006001600160a01b0316637f90fec5876040518263ffffffff1660e01b815260040180826001600160a01b0316815260200191505060206040518083038186803b158015610c4257600080fd5b505afa158015610c56573d6000803e3d6000fd5b505050506040513d6020811015610c6c57600080fd5b5051604080516398bd473760e01b81526001600160a01b03898116600483015291517f0000000000000000000000000000000000000000000000000000000000000000909216916398bd473791602480820192602092909190829003018186803b158015610cd957600080fd5b505afa158015610ced573d6000803e3d6000fd5b505050506040513d6020811015610d0357600080fd5b5051604080516308d781e560e31b81526001600160a01b038a8116600483015291517f0000000000000000000000000000000000000000000000000000000000000000909216916346bc0f2891602480820192602092909190829003018186803b158015610d7057600080fd5b505afa158015610d84573d6000803e3d6000fd5b505050506040513d6020811015610d9a57600080fd5b5051604080517fffffffff0000000000000000000000000000000000000000000000000000000060e089901b1681526001600160a01b03909616600487015260248601949094526044850192909252606484015260848301525160a4808301926060929190829003018186803b158015610e1357600080fd5b505afa158015610e27573d6000803e3d6000fd5b505050506040513d6060811015610e3d57600080fd5b5051633b9aca009004949350505050565b7f000000000000000000000000000000000000000000000000000000000000000081565b6001546001600160a01b031681565b60408051808201909152600781527f4161766520563100000000000000000000000000000000000000000000000000602082015290565b60408051600481526024810182526020810180516001600160e01b03166395d89b4160e01b1781529151815160609360009384936001600160a01b03881693919290918291908083835b60208310610f215780518252601f199092019160209182019101610f02565b6001836020036101000a038019825116818451168082178552505050505050905001915050600060405180830381855afa9150503d8060008114610f81576040519150601f19603f3d011682016040523d82523d6000602084013e610f86565b606091505b509150915081610fb957604051806040016040528060078152602001662aa725a727aba760c91b815250925050506105d4565b805160201461109057808060200190516020811015610fd757600080fd5b8101908080516040519392919084640100000000821115610ff757600080fd5b90830190602082018581111561100c57600080fd5b825164010000000081118282018810171561102657600080fd5b82525081516020918201929091019080838360005b8381101561105357818101518382015260200161103b565b50505050905090810190601f1680156110805780820380516001836020036101000a031916815260200191505b50604052505050925050506105d4565b60008180602001905160208110156110a757600080fd5b50519050806110da57604051806040016040528060078152602001662aa725a727aba760c91b81525093505050506105d4565b60006110e5826115d7565b60ff03905060008060088306116110fd576000611100565b60015b60ff1660088304018452509195945050505050565b600154600090611130906001600160a01b0316333085611303565b506001546040805163db006a7560e01b815260048101849052905183926001600160a01b03169163db006a7591602480830192600092919082900301818387803b15801561117d57600080fd5b505af1158015611191573d6000803e3d6000fd5b50505050919050565b604080516001600160a01b038481166024830152604480830185905283518084039091018152606490920183526020820180516001600160e01b031663a9059cbb60e01b1781529251825160009485949389169392918291908083835b602083106112165780518252601f1990920191602091820191016111f7565b6001836020036101000a0380198251168184511680821785525050505050509050019150506000604051808303816000865af19150503d8060008114611278576040519150601f19603f3d011682016040523d82523d6000602084013e61127d565b606091505b50915091508180156112ab5750805115806112ab57508080602001905160208110156112a857600080fd5b50515b6112fc576040805162461bcd60e51b815260206004820152600560248201527f54483a5354000000000000000000000000000000000000000000000000000000604482015290519081900360640190fd5b5050505050565b604080516001600160a01b0385811660248301528481166044830152606480830185905283518084039091018152608490920183526020820180516001600160e01b03166323b872dd60e01b178152925182516000948594938a169392918291908083835b602083106113875780518252601f199092019160209182019101611368565b6001836020036101000a0380198251168184511680821785525050505050509050019150506000604051808303816000865af19150503d80600081146113e9576040519150601f19603f3d011682016040523d82523d6000602084013e6113ee565b606091505b509150915081801561141c57508051158061141c575080806020019051602081101561141957600080fd5b50515b61146d576040805162461bcd60e51b815260206004820152600660248201527f54483a5354460000000000000000000000000000000000000000000000000000604482015290519081900360640190fd5b505050505050565b6001546040805163db006a7560e01b815260048101849052905183926001600160a01b03169163db006a7591602480830192600092919082900301818387803b15801561117d57600080fd5b6000546114f7906001600160a01b03167f00000000000000000000000000000000000000000000000000000000000000006117c5565b565b6000805460408051636968703360e11b81526001600160a01b0392831660048201526024810185905260448101849052905184937f00000000000000000000000000000000000000000000000000000000000000009093169263d2d0e066926064808201939182900301818387803b15801561117d57600080fd5b6000600160ff1b831061158657600080fd5b828281016000841280159061159b5750818112155b806115b057506000841280156115b057508181125b6115b957600080fd5b60008112156115cd576000925050506115d1565b9150505b92915050565b60008082116116175760405162461bcd60e51b815260040180806020018281038252602b815260200180611930602b913960400191505060405180910390fd5b7e818283848586878898a8b8c8d8e8f929395969799a9b9d9e9faaeb6bedeeff60008390038316810260f881901c9060fd1c6004811061170357600681106116ae5780600614611687577ff8f9cbfae6cc78fbefe7cdc3a1793dfcf4f0e8bbd8cec470b6a28a7a5a3e1efd6116a9565b7ff5ecf1b3e9debc68e1d9cfabc5997135bfb7a7a3938b7b606b5b4b3f2f1f0ffe5b6116fe565b806004146116dc577ff6e4ed9ff2d6b458eadcdf97bd91692de2d4da8fd2d0ac50c6ae9a82725236166116fe565b7fc8c0b887b0a8a4489c948c7f847c6125746c645c544c444038302820181008ff5b6117ad565b6002811061175f5780600214611739577ff7cae577eec2a03cf3bad76fb589591debb2dd67e0aa9834bea6925f6a4a2e0e6116fe565b7fe39ed557db96902cd38ed14fad815115c786af479b7e832473635343372717076117ad565b801561178b577fc976c13bb96e881cb166a933a55e490d9d56952b8d4e801485467d23624226066117ad565b7f753a6d1b65325d0c552a4d1345224105391a310b29122104190a1103090201005b60039290921b60f8169190911c60ff16949350505050565b6107b28282600019604080516001600160a01b038481166024830152604480830185905283518084039091018152606490920183526020820180516001600160e01b031663095ea7b360e01b1781529251825160009485949389169392918291908083835b602083106118495780518252601f19909201916020918201910161182a565b6001836020036101000a0380198251168184511680821785525050505050509050019150506000604051808303816000865af19150503d80600081146118ab576040519150601f19603f3d011682016040523d82523d6000602084013e6118b0565b606091505b50915091508180156118de5750805115806118de57508080602001905160208110156118db57600080fd5b50515b6112fc576040805162461bcd60e51b815260206004820152600560248201527f54483a5341000000000000000000000000000000000000000000000000000000604482015290519081900360640190fdfe426974733a3a6c6f776573744269745365743a2056616c7565203020686173206e6f206269747320736574a164736f6c6343000706000a60c060405234801561001057600080fd5b506040516117f53803806117f58339818101604052602081101561003357600080fd5b505160408051630261bf8b60e01b815290516001600160a01b03831691630261bf8b916004808301926020929190829003018186803b15801561007557600080fd5b505afa158015610089573d6000803e3d6000fd5b505050506040513d602081101561009f57600080fd5b505160601b6001600160601b0319166080526040805163076b7fbb60e51b815290516001600160a01b0383169163ed6ff760916004808301926020929190829003018186803b1580156100f157600080fd5b505afa158015610105573d6000803e3d6000fd5b505050506040513d602081101561011b57600080fd5b5051606081811b6001600160601b03191660a052608051901c91506001600160a01b0316611671610184600039806109615280610a865280610b435280610c355280610ce15280610d875280610e2d5280610f7c5250806106cc528061159c52506116716000f3fe60806040526004361061018b5760003560e01c8063853828b6116100d6578063d809e4531161007f578063f2f4eb2611610059578063f2f4eb2614610526578063f6326fb31461053b578063fc0c546a146105435761018b565b8063d809e453146104fc578063e83dd2e014610454578063f1402dea146105115761018b565b8063b6b55f25116100b0578063b6b55f2514610493578063c89d5b8b146104bd578063d31c9c29146104d25761018b565b8063853828b61461043f5780638da876c9146104545780639103c16b146104695761018b565b8063485cc955116101385780636c4c790e116101125780636c4c790e146103eb5780636f307dc314610415578063743753591461042a5761018b565b8063485cc955146103865780634e6f376d1461033257806365cdab3d146103c15761018b565b806316f0115b1161016957806316f0115b14610301578063282a050b146103325780632e1a7d4d1461035c5761018b565b8063020c06731461018d57806306fdde031461023b5780631071a290146102c5575b005b34801561019957600080fd5b506101a2610558565b604051808060200180602001838103835285818151815260200191508051906020019060200280838360005b838110156101e65781810151838201526020016101ce565b50505050905001838103825284818151815260200191508051906020019060200280838360005b8381101561022557818101518382015260200161020d565b5050505090500194505050505060405180910390f35b34801561024757600080fd5b506102506105fa565b6040805160208082528351818301528351919283929083019185019080838360005b8381101561028a578181015183820152602001610272565b50505050905090810190601f1680156102b75780820380516001836020036101000a031916815260200191505b509250505060405180910390f35b3480156102d157600080fd5b506102ef600480360360208110156102e857600080fd5b5035610698565b60408051918252519081900360200190f35b34801561030d57600080fd5b506103166106ca565b604080516001600160a01b039092168252519081900360200190f35b34801561033e57600080fd5b506102ef6004803603602081101561035557600080fd5b5035610695565b34801561036857600080fd5b506102ef6004803603602081101561037f57600080fd5b50356106ee565b34801561039257600080fd5b5061018b600480360360408110156103a957600080fd5b506001600160a01b0381358116916020013516610734565b3480156103cd57600080fd5b506102ef600480360360208110156103e457600080fd5b503561086c565b3480156103f757600080fd5b506102ef6004803603602081101561040e57600080fd5b503561090f565b34801561042157600080fd5b50610316610948565b34801561043657600080fd5b506102ef610957565b34801561044b57600080fd5b506102ef610985565b34801561046057600080fd5b506102ef61099c565b34801561047557600080fd5b506102ef6004803603602081101561048c57600080fd5b5035610a18565b34801561049f57600080fd5b506102ef600480360360208110156104b657600080fd5b5035610a38565b3480156104c957600080fd5b506102ef610a7d565b3480156104de57600080fd5b506102ef600480360360208110156104f557600080fd5b5035610b3e565b34801561050857600080fd5b506102ef610f50565b34801561051d57600080fd5b50610316610f62565b34801561053257600080fd5b50610316610f7a565b6102ef610f9e565b34801561054f57600080fd5b50610316610fcc565b60408051600180825281830190925260609182919060208083019080368337505060408051600180825281830190925292945090506020808301908036833750506000805485519394506001600160a01b0316928592506105b557fe5b60200260200101906001600160a01b031690816001600160a01b0316815250506105dd610a7d565b816000815181106105ea57fe5b6020026020010181815250509091565b6060610604610fdb565b6040516020018082805190602001908083835b602083106106365780518252601f199092019160209182019101610617565b6001836020036101000a038019825116818451168082178552505050505050905001807f2045544820416461707465720000000000000000000000000000000000000000815250600c0191505060405160208183030381529060405290505b90565b60006106a382611012565b90506106ae82611097565b6000546106c5906001600160a01b03163384611101565b919050565b7f000000000000000000000000000000000000000000000000000000000000000081565b600154600090610709906001600160a01b031633308561127f565b610712826113fe565b905061071d81611097565b6000546106c5906001600160a01b03163383611101565b6000546001600160a01b031615801561075657506001546001600160a01b0316155b6107a7576040805162461bcd60e51b815260206004820152600b60248201527f696e697469616c697a6564000000000000000000000000000000000000000000604482015290519081900360640190fd5b6001600160a01b038216158015906107c757506001600160a01b03811615155b610818576040805162461bcd60e51b815260206004820152600b60248201527f6261642061646472657373000000000000000000000000000000000000000000604482015290519081900360640190fd5b600080546001600160a01b038085167fffffffffffffffffffffffff000000000000000000000000000000000000000092831617909255600180549284169290911691909117905561086861144a565b5050565b60008082116108c2576040805162461bcd60e51b815260206004820152600a60248201527f7769746864726177203000000000000000000000000000000000000000000000604482015290519081900360640190fd5b60006108cc610957565b90508281106108db57826108dd565b805b91506108e882611012565b506108f282611097565b600054610909906001600160a01b03163384611101565b50919050565b60015460009061092a906001600160a01b031633308561127f565b610933826113fe565b905061093e8161144c565b6106c5338261144f565b6000546001600160a01b031681565b6001600160a01b037f0000000000000000000000000000000000000000000000000000000000000000163190565b600061099761099261099c565b6106ee565b905090565b600154604080516370a0823160e01b815233600482015290516000926001600160a01b0316916370a08231916024808301926020929190829003018186803b1580156109e757600080fd5b505afa1580156109fb573d6000803e3d6000fd5b505050506040513d6020811015610a1157600080fd5b5051905090565b6000610a2382611012565b9050610a2e8261144c565b6106c5338361144f565b60008054610a51906001600160a01b031633308561127f565b610a5a826114fa565b610a6382611556565b6001549091506106c5906001600160a01b03163383611101565b6000633b9aca007f00000000000000000000000000000000000000000000000000000000000000006001600160a01b031663c540148e73eeeeeeeeeeeeeeeeeeeeeeeeeeeeeeeeeeeeeeee6040518263ffffffff1660e01b815260040180826001600160a01b0316815260200191505060206040518083038186803b158015610b0557600080fd5b505afa158015610b19573d6000803e3d6000fd5b505050506040513d6020811015610b2f57600080fd5b505181610b3857fe5b04905090565b6000807f00000000000000000000000000000000000000000000000000000000000000006001600160a01b0316636ae1441673eeeeeeeeeeeeeeeeeeeeeeeeeeeeeeeeeeeeeeee6040518263ffffffff1660e01b815260040180826001600160a01b0316815260200191505060206040518083038186803b158015610bc257600080fd5b505afa158015610bd6573d6000803e3d6000fd5b505050506040513d6020811015610bec57600080fd5b50516040805163e240301960e01b815273eeeeeeeeeeeeeeeeeeeeeeeeeeeeeeeeeeeeeeee6004820181905291516001600160a01b03938416936357e37af09392610cad9289927f0000000000000000000000000000000000000000000000000000000000000000169163e2403019916024808301926020929190829003018186803b158015610c7b57600080fd5b505afa158015610c8f573d6000803e3d6000fd5b505050506040513d6020811015610ca557600080fd5b505190611601565b60408051637f90fec560e01b815273eeeeeeeeeeeeeeeeeeeeeeeeeeeeeeeeeeeeeeee600482015290516001600160a01b037f00000000000000000000000000000000000000000000000000000000000000001691637f90fec5916024808301926020929190829003018186803b158015610d2757600080fd5b505afa158015610d3b573d6000803e3d6000fd5b505050506040513d6020811015610d5157600080fd5b5051604080516398bd473760e01b815273eeeeeeeeeeeeeeeeeeeeeeeeeeeeeeeeeeeeeeee600482015290516001600160a01b037f000000000000000000000000000000000000000000000000000000000000000016916398bd4737916024808301926020929190829003018186803b158015610dcd57600080fd5b505afa158015610de1573d6000803e3d6000fd5b505050506040513d6020811015610df757600080fd5b5051604080516308d781e560e31b815273eeeeeeeeeeeeeeeeeeeeeeeeeeeeeeeeeeeeeeee600482015290516001600160a01b037f000000000000000000000000000000000000000000000000000000000000000016916346bc0f28916024808301926020929190829003018186803b158015610e7357600080fd5b505afa158015610e87573d6000803e3d6000fd5b505050506040513d6020811015610e9d57600080fd5b5051604080517fffffffff0000000000000000000000000000000000000000000000000000000060e089901b1681526001600160a01b03909616600487015260248601949094526044850192909252606484015260848301525160a4808301926060929190829003018186803b158015610f1657600080fd5b505afa158015610f2a573d6000803e3d6000fd5b505050506040513d6060811015610f4057600080fd5b5051633b9aca0090049392505050565b6000610997610f5d61099c565b61090f565b73eeeeeeeeeeeeeeeeeeeeeeeeeeeeeeeeeeeeeeee81565b7f000000000000000000000000000000000000000000000000000000000000000081565b6000610fa93461144c565b610fb234611556565b600154909150610695906001600160a01b03163383611101565b6001546001600160a01b031681565b60408051808201909152600781527f4161766520563100000000000000000000000000000000000000000000000000602082015290565b60015460009061102d906001600160a01b031633308561127f565b506001546040805163db006a7560e01b815260048101849052905183926001600160a01b03169163db006a7591602480830192600092919082900301818387803b15801561107a57600080fd5b505af115801561108e573d6000803e3d6000fd5b50505050919050565b60008054906101000a90046001600160a01b03166001600160a01b031663d0e30db0826040518263ffffffff1660e01b81526004016000604051808303818588803b1580156110e557600080fd5b505af11580156110f9573d6000803e3d6000fd5b505050505050565b604080516001600160a01b038481166024830152604480830185905283518084039091018152606490920183526020820180517bffffffffffffffffffffffffffffffffffffffffffffffffffffffff1663a9059cbb60e01b1781529251825160009485949389169392918291908083835b602083106111925780518252601f199092019160209182019101611173565b6001836020036101000a0380198251168184511680821785525050505050509050019150506000604051808303816000865af19150503d80600081146111f4576040519150601f19603f3d011682016040523d82523d6000602084013e6111f9565b606091505b5091509150818015611227575080511580611227575080806020019051602081101561122457600080fd5b50515b611278576040805162461bcd60e51b815260206004820152600560248201527f54483a5354000000000000000000000000000000000000000000000000000000604482015290519081900360640190fd5b5050505050565b604080516001600160a01b0385811660248301528481166044830152606480830185905283518084039091018152608490920183526020820180517bffffffffffffffffffffffffffffffffffffffffffffffffffffffff166323b872dd60e01b178152925182516000948594938a169392918291908083835b602083106113185780518252601f1990920191602091820191016112f9565b6001836020036101000a0380198251168184511680821785525050505050509050019150506000604051808303816000865af19150503d806000811461137a576040519150601f19603f3d011682016040523d82523d6000602084013e61137f565b606091505b50915091508180156113ad5750805115806113ad57508080602001905160208110156113aa57600080fd5b50515b6110f9576040805162461bcd60e51b815260206004820152600660248201527f54483a5354460000000000000000000000000000000000000000000000000000604482015290519081900360640190fd5b6001546040805163db006a7560e01b815260048101849052905183926001600160a01b03169163db006a7591602480830192600092919082900301818387803b15801561107a57600080fd5b565b50565b6040516000906001600160a01b0384169083908381818185875af1925050503d806000811461149a576040519150601f19603f3d011682016040523d82523d6000602084013e61149f565b606091505b50509050806114f5576040805162461bcd60e51b815260206004820152600660248201527f54483a5354450000000000000000000000000000000000000000000000000000604482015290519081900360640190fd5b505050565b6000805460408051632e1a7d4d60e01b81526004810185905290516001600160a01b0390921692632e1a7d4d9260248084019382900301818387803b15801561154257600080fd5b505af1158015611278573d6000803e3d6000fd5b60408051636968703360e11b815273eeeeeeeeeeeeeeeeeeeeeeeeeeeeeeeeeeeeeeee600482015260248101839052600060448201819052915183926001600160a01b037f0000000000000000000000000000000000000000000000000000000000000000169263d2d0e06692859260648084019391929182900301818588803b1580156115e357600080fd5b505af11580156115f7573d6000803e3d6000fd5b5050505050919050565b6000600160ff1b831061161357600080fd5b82828101600084128015906116285750818112155b8061163d575060008412801561163d57508181125b61164657600080fd5b600081121561165a5760009250505061165e565b9150505b9291505056fea164736f6c6343000706000a",
  "devdoc": {
    "kind": "dev",
    "methods": {
      "freezeAdapter(address)": {
        "details": "Freeze `adapter` - add it to `frozenAdapters` and remove it from the registry. Does not verify adapter exists or has been registered by this contract because the registry handles that."
      },
      "getUnmapped()": {
        "details": "Get the list of tokens which have not already been mapped by the adapter. Tokens may be underlying tokens or wrapper tokens for a lending market."
      },
      "getUnmappedUpTo(uint256)": {
        "details": "Get up to `max` tokens which have not already been mapped by the adapter. Tokens may be underlying tokens or wrapper tokens for a lending market."
      },
      "map(uint256)": {
        "details": "Map up to `max` tokens, starting at `totalMapped`."
      },
      "protocol()": {
        "details": "Name of the protocol the adapter is for."
      },
      "unfreezeAdapter(uint256)": {
        "details": "Unfreeze adapter at `index` in `frozenAdapters`. Market for the adapter must not be frozen by the protocol."
      },
      "unfreezeToken(uint256)": {
        "details": "Unfreeze token at `index` in `frozenTokens` and create a new adapter for it. Market for the token must not be frozen by the protocol."
      }
    },
    "version": 1
  },
  "userdoc": {
    "kind": "user",
    "methods": {},
    "version": 1
  },
  "storageLayout": {
    "storage": [
      {
        "astId": 18197,
        "contract": "contracts/protocols/AaveV1ProtocolAdapter.sol:AaveV1ProtocolAdapter",
        "label": "frozenAdapters",
        "offset": 0,
        "slot": "0",
        "type": "t_array(t_address)dyn_storage"
      },
      {
        "astId": 18201,
        "contract": "contracts/protocols/AaveV1ProtocolAdapter.sol:AaveV1ProtocolAdapter",
        "label": "frozenTokens",
        "offset": 0,
        "slot": "1",
        "type": "t_array(t_address)dyn_storage"
      },
      {
        "astId": 18204,
        "contract": "contracts/protocols/AaveV1ProtocolAdapter.sol:AaveV1ProtocolAdapter",
        "label": "totalMapped",
        "offset": 0,
        "slot": "2",
        "type": "t_uint256"
      }
    ],
    "types": {
      "t_address": {
        "encoding": "inplace",
        "label": "address",
        "numberOfBytes": "20"
      },
      "t_array(t_address)dyn_storage": {
        "base": "t_address",
        "encoding": "dynamic_array",
        "label": "address[]",
        "numberOfBytes": "32"
      },
      "t_uint256": {
        "encoding": "inplace",
        "label": "uint256",
        "numberOfBytes": "32"
      }
    }
  }
}