{
  "address": "0x7e8248b81CA0840D63d8afbbb42f23B0fE101CBf",
  "abi": [
    {
      "inputs": [
        {
          "internalType": "contract IAdapterRegistry",
          "name": "_registry",
          "type": "address"
        }
      ],
      "stateMutability": "nonpayable",
      "type": "constructor"
    },
    {
      "anonymous": false,
      "inputs": [
        {
          "indexed": false,
          "internalType": "address",
          "name": "adapter",
          "type": "address"
        }
      ],
      "name": "AdapterFrozen",
      "type": "event"
    },
    {
      "anonymous": false,
      "inputs": [
        {
          "indexed": false,
          "internalType": "address",
          "name": "adapter",
          "type": "address"
        }
      ],
      "name": "AdapterUnfrozen",
      "type": "event"
    },
    {
      "anonymous": false,
      "inputs": [
        {
          "indexed": false,
          "internalType": "address",
          "name": "token",
          "type": "address"
        }
      ],
      "name": "MarketFrozen",
      "type": "event"
    },
    {
      "anonymous": false,
      "inputs": [
        {
          "indexed": false,
          "internalType": "address",
          "name": "token",
          "type": "address"
        }
      ],
      "name": "MarketUnfrozen",
      "type": "event"
    },
    {
      "inputs": [],
      "name": "aave",
      "outputs": [
        {
          "internalType": "contract ILendingPoolAddressesProvider",
          "name": "",
          "type": "address"
        }
      ],
      "stateMutability": "view",
      "type": "function"
    },
    {
      "inputs": [],
      "name": "erc20AdapterImplementation",
      "outputs": [
        {
          "internalType": "address",
          "name": "",
          "type": "address"
        }
      ],
      "stateMutability": "view",
      "type": "function"
    },
    {
      "inputs": [
        {
          "internalType": "address",
          "name": "adapter",
          "type": "address"
        }
      ],
      "name": "freezeAdapter",
      "outputs": [],
      "stateMutability": "nonpayable",
      "type": "function"
    },
    {
      "inputs": [
        {
          "internalType": "uint256",
          "name": "",
          "type": "uint256"
        }
      ],
      "name": "frozenAdapters",
      "outputs": [
        {
          "internalType": "address",
          "name": "",
          "type": "address"
        }
      ],
      "stateMutability": "view",
      "type": "function"
    },
    {
      "inputs": [
        {
          "internalType": "uint256",
          "name": "",
          "type": "uint256"
        }
      ],
      "name": "frozenTokens",
      "outputs": [
        {
          "internalType": "address",
          "name": "",
          "type": "address"
        }
      ],
      "stateMutability": "view",
      "type": "function"
    },
    {
      "inputs": [],
      "name": "getFrozenAdapters",
      "outputs": [
        {
          "internalType": "address[]",
          "name": "tokens",
          "type": "address[]"
        }
      ],
      "stateMutability": "view",
      "type": "function"
    },
    {
      "inputs": [],
      "name": "getFrozenTokens",
      "outputs": [
        {
          "internalType": "address[]",
          "name": "tokens",
          "type": "address[]"
        }
      ],
      "stateMutability": "view",
      "type": "function"
    },
    {
      "inputs": [],
      "name": "getUnmapped",
      "outputs": [
        {
          "internalType": "address[]",
          "name": "tokens",
          "type": "address[]"
        }
      ],
      "stateMutability": "view",
      "type": "function"
    },
    {
      "inputs": [
        {
          "internalType": "uint256",
          "name": "max",
          "type": "uint256"
        }
      ],
      "name": "getUnmappedUpTo",
      "outputs": [
        {
          "internalType": "address[]",
          "name": "tokens",
          "type": "address[]"
        }
      ],
      "stateMutability": "view",
      "type": "function"
    },
    {
      "inputs": [
        {
          "internalType": "uint256",
          "name": "max",
          "type": "uint256"
        }
      ],
      "name": "map",
      "outputs": [],
      "stateMutability": "nonpayable",
      "type": "function"
    },
    {
      "inputs": [],
      "name": "pool",
      "outputs": [
        {
          "internalType": "contract ILendingPool",
          "name": "",
          "type": "address"
        }
      ],
      "stateMutability": "view",
      "type": "function"
    },
    {
      "inputs": [],
      "name": "protocol",
      "outputs": [
        {
          "internalType": "string",
          "name": "",
          "type": "string"
        }
      ],
      "stateMutability": "pure",
      "type": "function"
    },
    {
      "inputs": [],
      "name": "registry",
      "outputs": [
        {
          "internalType": "contract IAdapterRegistry",
          "name": "",
          "type": "address"
        }
      ],
      "stateMutability": "view",
      "type": "function"
    },
    {
      "inputs": [],
      "name": "totalMapped",
      "outputs": [
        {
          "internalType": "uint256",
          "name": "",
          "type": "uint256"
        }
      ],
      "stateMutability": "view",
      "type": "function"
    },
    {
      "inputs": [
        {
          "internalType": "uint256",
          "name": "index",
          "type": "uint256"
        }
      ],
      "name": "unfreezeAdapter",
      "outputs": [],
      "stateMutability": "nonpayable",
      "type": "function"
    },
    {
      "inputs": [
        {
          "internalType": "uint256",
          "name": "index",
          "type": "uint256"
        }
      ],
      "name": "unfreezeToken",
      "outputs": [],
      "stateMutability": "nonpayable",
      "type": "function"
    },
    {
      "inputs": [],
      "name": "weth",
      "outputs": [
        {
          "internalType": "address",
          "name": "",
          "type": "address"
        }
      ],
      "stateMutability": "view",
      "type": "function"
    }
  ],
  "transactionHash": "0x573a08b83bc448072565911f274ab1f6b98bb3f00ca54e4dcabf52372b3df2de",
  "args": [
    "0x5F2945604013Ee9f80aE2eDDb384462B681859C4"
  ],
  "solcInputHash": "15c5eb146eed5e149f0fa39b934f8cde",
  "bytecode": "0x60e06040523480156200001157600080fd5b50604051620080e7380380620080e783398101604081905262000034916200015e565b6001600160601b0319606082901b1660805260405173b53c1a33016b2dc2ff3653530bff1848a515c8c5906200006a9062000150565b62000076919062000184565b604051809103906000f08015801562000093573d6000803e3d6000fd5b506001600160a01b031660c0816001600160a01b031660601b8152505073b53c1a33016b2dc2ff3653530bff1848a515c8c56001600160a01b0316630261bf8b6040518163ffffffff1660e01b815260040160206040518083038186803b158015620000fe57600080fd5b505afa15801562000113573d6000803e3d6000fd5b505050506040513d601f19601f820116820180604052508101906200013991906200015e565b60601b6001600160601b03191660a05250620001b1565b6132888062004e5f83390190565b60006020828403121562000170578081fd5b81516200017d8162000198565b9392505050565b6001600160a01b0391909116815260200190565b6001600160a01b0381168114620001ae57600080fd5b50565b60805160601c60a05160601c60c05160601c614c506200020f600039806109715280610dd552508061028952806102c75280610b135280610ca952508061043552806104e0528061076c52806108645280610a525250614c506000f3fe60806040523480156200001157600080fd5b5060043610620001365760003560e01c8063b124530711620000c3578063d1e08f31116200008d578063dc51b6ac116200006f578063dc51b6ac1462000240578063e31beb9a1462000259578063f401f8a014620002705762000136565b8063d1e08f31146200021f578063dc33122414620002295762000136565b8063b124530714620001dd578063b8dda9c714620001e7578063c961c58914620001fe578063c97764e514620002155762000136565b80637b10399911620001055780637b1039991462000199578063819faf7b14620001a35780638ce7442614620001ad57806399a16e6114620001c65762000136565b806316f0115b146200013b5780633fc8cef3146200015d5780634d0ceecb14620001675780634d787ea91462000180575b600080fd5b6200014562000287565b60405162000154919062001277565b60405180910390f35b62000145620002ab565b62000171620002c3565b604051620001549190620012a5565b62000197620001913660046200125e565b6200038d565b005b62000145620004de565b6200014562000502565b620001b76200051a565b60405162000154919062001317565b62000171620001d73660046200125e565b62000551565b6200017162000572565b62000197620001f83660046200125e565b620005d6565b620001976200020f36600462001038565b620007de565b620001716200090d565b620001456200096f565b620001456200023a3660046200125e565b62000993565b6200024a620009be565b604051620001549190620013db565b620001976200026a3660046200125e565b620009c4565b62000145620002813660046200125e565b62000afa565b7f000000000000000000000000000000000000000000000000000000000000000081565b73c02aaa39b223fe8d0a0e5c4f27ead9083c756cc281565b60607f00000000000000000000000000000000000000000000000000000000000000006001600160a01b031663d1946dbc6040518163ffffffff1660e01b815260040160006040518083038186803b1580156200031f57600080fd5b505afa15801562000334573d6000803e3d6000fd5b505050506040513d6000823e601f3d908101601f191682016040526200035e91908101906200107d565b805160025491925090808214156200037a576000835262000388565b602081028301925080820383525b505090565b6000600182815481106200039d57fe5b6000918252602090912001546001600160a01b03169050620003bf8162000b0b565b15620003e85760405162461bcd60e51b8152600401620003df906200136d565b60405180910390fd5b620003f560018362000bbf565b6000620004028262000ca4565b6040517fff46d01b0000000000000000000000000000000000000000000000000000000081529091506001600160a01b037f0000000000000000000000000000000000000000000000000000000000000000169063ff46d01b906200046c90849060040162001277565b600060405180830381600087803b1580156200048757600080fd5b505af11580156200049c573d6000803e3d6000fd5b505050507f9d70968988366484026d19fd2ed45ba53154e653af0d3b64a6e30fd1e59e9c0282604051620004d1919062001277565b60405180910390a1505050565b7f000000000000000000000000000000000000000000000000000000000000000081565b73b53c1a33016b2dc2ff3653530bff1848a515c8c581565b60408051808201909152600781527f4161766520563200000000000000000000000000000000000000000000000000602082015290565b60606200055d620002c3565b905081815111156200056d578181525b919050565b60606000805480602002602001604051908101604052809291908181526020018280548015620005cc57602002820191906000526020600020905b81546001600160a01b03168152600190910190602001808311620005ad575b5050505050905090565b6000620005e38262000551565b805190915060008167ffffffffffffffff811180156200060257600080fd5b506040519080825280602002602001820160405280156200062d578160200160208202803683370190505b5090506000805b838110156200073f5760008582815181106200064c57fe5b60200260200101519050620006618162000b0b565b15620006f45760018054808201825560008290527fb10e2d527612073b26eecdfd717e6a320cf44b4afac2b0732d9fcbe2b7fa0cf60180546001600160a01b0319166001600160a01b0384161790556040519301927fb33cb2dd3d0d4f68fb707ddade8bd1e4c8ba3c3cf18274aff3968e86a0548da190620006e590839062001277565b60405180910390a15062000736565b6000620007018262000ca4565b90508085858503815181106200071357fe5b60200260200101906001600160a01b031690816001600160a01b03168152505050505b60010162000634565b5060028054840190558015620007555780830382525b604051633be4c7fd60e01b81526001600160a01b037f00000000000000000000000000000000000000000000000000000000000000001690633be4c7fd90620007a3908590600401620012a5565b600060405180830381600087803b158015620007be57600080fd5b505af1158015620007d3573d6000803e3d6000fd5b505050505050505050565b620007e98162000e68565b620008085760405162461bcd60e51b8152600401620003df90620013a4565b600080546001810182559080527f290decd9548b62a8d60345a988386fc84ba6bc95484008f6362f93160ef3e5630180546001600160a01b0319166001600160a01b038381169190911790915560405163053551dd60e51b81527f00000000000000000000000000000000000000000000000000000000000000009091169063a6aa3ba0906200089d90849060040162001277565b600060405180830381600087803b158015620008b857600080fd5b505af1158015620008cd573d6000803e3d6000fd5b505050507fd40fc6dc0bc7f9e69f705b5e74dfd3623d55ea32890b826bd25584e5f0f03fcc8160405162000902919062001277565b60405180910390a150565b60606001805480602002602001604051908101604052809291908181526020018280548015620005cc576020028201919060005260206000209081546001600160a01b03168152600190910190602001808311620005ad575050505050905090565b7f000000000000000000000000000000000000000000000000000000000000000081565b60008181548110620009a457600080fd5b6000918252602090912001546001600160a01b0316905081565b60025481565b6000808281548110620009d357fe5b6000918252602090912001546001600160a01b03169050620009f58162000e68565b1562000a155760405162461bcd60e51b8152600401620003df906200136d565b62000a2260008362000bbf565b6040517fff46d01b0000000000000000000000000000000000000000000000000000000081526001600160a01b037f0000000000000000000000000000000000000000000000000000000000000000169063ff46d01b9062000a8990849060040162001277565b600060405180830381600087803b15801562000aa457600080fd5b505af115801562000ab9573d6000803e3d6000fd5b505050507f2dac01b475b5c97016d30db596f912172f79a142dd507389304167f50f0173fb8160405162000aee919062001277565b60405180910390a15050565b60018181548110620009a457600080fd5b600062000bb97f00000000000000000000000000000000000000000000000000000000000000006001600160a01b031663c44b11f7846040518263ffffffff1660e01b815260040162000b5f919062001277565b60206040518083038186803b15801562000b7857600080fd5b505afa15801562000b8d573d6000803e3d6000fd5b505050506040513d601f19601f8201168201806040525081019062000bb3919062001135565b62000ee9565b92915050565b8154600019810182141562000c02578280548062000bd957fe5b600082815260209020810160001990810180546001600160a01b03191690550190555062000ca0565b600083600183038154811062000c1457fe5b9060005260206000200160009054906101000a90046001600160a01b031690508084848154811062000c4257fe5b9060005260206000200160006101000a8154816001600160a01b0302191690836001600160a01b031602179055508380548062000c7b57fe5b600082815260209020810160001990810180546001600160a01b031916905501905550505b5050565b6000807f00000000000000000000000000000000000000000000000000000000000000006001600160a01b03166335ea6a75846040518263ffffffff1660e01b815260040162000cf5919062001277565b6101806040518083038186803b15801562000d0f57600080fd5b505afa15801562000d24573d6000803e3d6000fd5b505050506040513d601f19601f8201168201806040525081019062000d4a919062001153565b60e0015190506001600160a01b03831673c02aaa39b223fe8d0a0e5c4f27ead9083c756cc2141562000dcf5773b53c1a33016b2dc2ff3653530bff1848a515c8c5838260405162000d9b9062000f97565b62000da993929190620012f4565b604051809103906000f08015801562000dc6573d6000803e3d6000fd5b50915062000e62565b62000dfa7f000000000000000000000000000000000000000000000000000000000000000062000ef9565b60405163485cc95560e01b81529092506001600160a01b0383169063485cc9559062000e2d90869085906004016200128b565b600060405180830381600087803b15801562000e4857600080fd5b505af115801562000e5d573d6000803e3d6000fd5b505050505b50919050565b600062000bb9826001600160a01b0316636f307dc36040518163ffffffff1660e01b815260040160206040518083038186803b15801562000ea857600080fd5b505afa15801562000ebd573d6000803e3d6000fd5b505050506040513d601f19601f8201168201806040525081019062000ee391906200105e565b62000b0b565b5167020000000000000016151590565b60008062000f078362000f19565b90506037602082016000f09392505050565b6040805160488082526080820190925260609160208201818036833750507f3d602d80600a3d3981f3363d3d373d3d3d363d7300000000000000000000000060208301525060609290921b6034830152507f5af43d82803e903d91602b57fd5bf3000000000000000000000000000000000060488201526037815290565b613821806200142383390190565b80516200056d8162001409565b60006020828403121562000fc4578081fd5b6040516020810181811067ffffffffffffffff8211171562000fe257fe5b6040529151825250919050565b80516fffffffffffffffffffffffffffffffff811681146200056d57600080fd5b805164ffffffffff811681146200056d57600080fd5b805160ff811681146200056d57600080fd5b6000602082840312156200104a578081fd5b8135620010578162001409565b9392505050565b60006020828403121562001070578081fd5b8151620010578162001409565b6000602080838503121562001090578182fd5b825167ffffffffffffffff80821115620010a8578384fd5b818501915085601f830112620010bc578384fd5b815181811115620010c957fe5b8381029150620010db848301620013e4565b8181528481019084860184860187018a1015620010f6578788fd5b8795505b83861015620011285780519450620011128562001409565b84835260019590950194918601918601620010fa565b5098975050505050505050565b60006020828403121562001147578081fd5b62001057838362000fb2565b600061018080838503121562001167578182fd5b6200117281620013e4565b905062001180848462000fb2565b8152620011906020840162000fef565b6020820152620011a36040840162000fef565b6040820152620011b66060840162000fef565b6060820152620011c96080840162000fef565b6080820152620011dc60a0840162000fef565b60a0820152620011ef60c0840162001010565b60c08201526200120260e0840162000fa5565b60e08201526101006200121781850162000fa5565b908201526101206200122b84820162000fa5565b908201526101406200123f84820162000fa5565b908201526101606200125384820162001026565b908201529392505050565b60006020828403121562001270578081fd5b5035919050565b6001600160a01b0391909116815260200190565b6001600160a01b0392831681529116602082015260400190565b6020808252825182820181905260009190848201906040850190845b81811015620012e85783516001600160a01b031683529284019291840191600101620012c1565b50909695505050505050565b6001600160a01b0393841681529183166020830152909116604082015260600190565b6000602080835283518082850152825b81811015620013455785810183015185820160400152820162001327565b81811115620013575783604083870101525b50601f01601f1916929092016040019392505050565b60208082526013908201527f4d61726b6574207374696c6c2066726f7a656e00000000000000000000000000604082015260600190565b60208082526011908201527f4d61726b6574206e6f742066726f7a656e000000000000000000000000000000604082015260600190565b90815260200190565b60405181810167ffffffffffffffff811182821017156200140157fe5b604052919050565b6001600160a01b03811681146200141f57600080fd5b5056fe6101206040523480156200001257600080fd5b506040516200382138038062003821833981016040819052620000359162000153565b826001600160a01b03166080816001600160a01b031660601b81525050826001600160a01b0316630261bf8b6040518163ffffffff1660e01b815260040160206040518083038186803b1580156200008c57600080fd5b505afa158015620000a1573d6000803e3d6000fd5b505050506040513d601f19601f82011682018060405250810190620000c79190620001a6565b6001600160601b0319606091821b811660a05283821b811660e0529082901b1661010052604051839083908390620000ff9062000145565b6200010d93929190620001cc565b604051809103906000f0801580156200012a573d6000803e3d6000fd5b5060601b6001600160601b03191660c0525062000208915050565b610ebf806200296283390190565b60008060006060848603121562000168578283fd5b83516200017581620001ef565b60208501519093506200018881620001ef565b60408501519092506200019b81620001ef565b809150509250925092565b600060208284031215620001b8578081fd5b8151620001c581620001ef565b9392505050565b6001600160a01b0393841681529183166020830152909116604082015260600190565b6001600160a01b03811681146200020557600080fd5b50565b60805160601c60a05160601c60c05160601c60e05160601c6101005160601c612689620002d960003980610447528061073b52806109105280610b3e5280610bfa5280610d815280610ded52806112f6528061132a52508061057f528061065b52806107a7528061097c5280610a585280610ad55280610b115280610ce45280610e5652806111e652806112645280611516528061163c5250806111955280611b915250806106c1528061077a528061094f5280610e82528061160d525080610d5552806113de52506126896000f3fe6080604052600436106101a55760003560e01c80638da876c9116100e1578063cd01a64e1161008a578063dc03051811610064578063dc0305181461040b578063e83dd2e014610322578063f6326fb314610420578063fc0c546a14610428576101ac565b8063cd01a64e146103c1578063d31c9c29146103d6578063d809e453146103f6576101ac565b8063b8e4e72c116100bb578063b8e4e72c14610377578063c72c4d1014610397578063c89d5b8b146103ac576101ac565b80638da876c9146103225780639103c16b14610337578063b6b55f2514610357576101ac565b80634e6f376d1161014e5780636f307dc3116101285780636f307dc3146102ce57806374375359146102e3578063819faf7b146102f8578063853828b61461030d576101ac565b80634e6f376d1461024e57806365cdab3d1461028e5780636c4c790e146102ae576101ac565b806316f0115b1161017f57806316f0115b1461022c578063282a050b1461024e5780632e1a7d4d1461026e576101ac565b8063020c0673146101b157806306fdde03146101dd5780631071a290146101ff576101ac565b366101ac57005b600080fd5b3480156101bd57600080fd5b506101c661043d565b6040516101d49291906124a8565b60405180910390f35b3480156101e957600080fd5b506101f2610654565b6040516101d4919061252b565b34801561020b57600080fd5b5061021f61021a366004612262565b6106ac565b6040516101d491906125cc565b34801561023857600080fd5b506102416106bf565b6040516101d4919061243e565b34801561025a57600080fd5b5061021f610269366004612262565b6106e3565b34801561027a57600080fd5b5061021f610289366004612262565b6106e6565b34801561029a57600080fd5b5061021f6102a9366004612262565b610876565b3480156102ba57600080fd5b5061021f6102c9366004612262565b6108c4565b3480156102da57600080fd5b50610241610ad3565b3480156102ef57600080fd5b5061021f610af7565b34801561030457600080fd5b50610241610bbb565b34801561031957600080fd5b5061021f610bd3565b34801561032e57600080fd5b5061021f610bdc565b34801561034357600080fd5b5061021f610352366004612262565b610c9f565b34801561036357600080fd5b5061021f610372366004612262565b610caa565b34801561038357600080fd5b50610241610392366004612223565b610d38565b3480156103a357600080fd5b50610241610d53565b3480156103b857600080fd5b5061021f610d77565b3480156103cd57600080fd5b5061021f610de6565b3480156103e257600080fd5b5061021f6103f1366004612262565b610e44565b34801561040257600080fd5b5061021f611186565b34801561041757600080fd5b50610241611193565b61021f6111b7565b34801561043457600080fd5b506102416112f4565b60608060006104db7f00000000000000000000000000000000000000000000000000000000000000006001600160a01b03166318160ddd6040518163ffffffff1660e01b815260040160206040518083038186803b15801561049e57600080fd5b505afa1580156104b2573d6000803e3d6000fd5b505050506040513d601f19601f820116820180604052508101906104d6919061236a565b611318565b905060008082116104ed5760016104f0565b60025b60ff1690508067ffffffffffffffff8111801561050c57600080fd5b50604051908082528060200260200182016040528015610536578160200160208202803683370190505b5093508067ffffffffffffffff8111801561055057600080fd5b5060405190808252806020026020018201604052801561057a578160200160208202803683370190505b5092507f0000000000000000000000000000000000000000000000000000000000000000846000815181106105ab57fe5b60200260200101906001600160a01b031690816001600160a01b0316815250506105d3611608565b836000815181106105e057fe5b6020908102919091010152811561064e57737fc66500c84a76ad7e9c93437bfc5ac33e2ddae98460018151811061061357fe5b60200260200101906001600160a01b031690816001600160a01b031681525050818360018151811061064157fe5b6020026020010181815250505b50509091565b60606106887f00000000000000000000000000000000000000000000000000000000000000006001600160a01b03166116f4565b60405160200161069891906123d2565b604051602081830303815290604052905090565b60006106b7826106e6565b90505b919050565b7f000000000000000000000000000000000000000000000000000000000000000081565b90565b60008082116107105760405162461bcd60e51b815260040161070790612595565b60405180910390fd5b336000908152602081905260409020546001600160a01b03168061080e576107636001600160a01b037f000000000000000000000000000000000000000000000000000000000000000016333086611951565b604051631a4ca37b60e21b81526001600160a01b037f000000000000000000000000000000000000000000000000000000000000000016906369328dec906107d3907f00000000000000000000000000000000000000000000000000000000000000009087903390600401612452565b600060405180830381600087803b1580156107ed57600080fd5b505af1158015610801573d6000803e3d6000fd5b50505050829150506106ba565b604051631c683a1b60e11b81526001600160a01b038216906338d074369061083d9086906001906004016125d5565b600060405180830381600087803b15801561085757600080fd5b505af115801561086b573d6000803e3d6000fd5b509495945050505050565b60008082116108975760405162461bcd60e51b815260040161070790612595565b60006108a1610af7565b90508281106108b057826108b2565b805b91506108bd826106e6565b5050919050565b60008082116108e55760405162461bcd60e51b815260040161070790612595565b336000908152602081905260409020546001600160a01b0316806109df576109386001600160a01b037f000000000000000000000000000000000000000000000000000000000000000016333086611951565b604051631a4ca37b60e21b81526001600160a01b037f000000000000000000000000000000000000000000000000000000000000000016906369328dec906109a8907f00000000000000000000000000000000000000000000000000000000000000009087903090600401612452565b600060405180830381600087803b1580156109c257600080fd5b505af11580156109d6573d6000803e3d6000fd5b50505050610a41565b604051631c683a1b60e11b81526001600160a01b038216906338d0743690610a0e9086906000906004016125d5565b600060405180830381600087803b158015610a2857600080fd5b505af1158015610a3c573d6000803e3d6000fd5b505050505b604051632e1a7d4d60e01b81526001600160a01b037f00000000000000000000000000000000000000000000000000000000000000001690632e1a7d4d90610a8d9086906004016125cc565b600060405180830381600087803b158015610aa757600080fd5b505af1158015610abb573d6000803e3d6000fd5b50610acc9250339150859050611ac3565b5090919050565b7f000000000000000000000000000000000000000000000000000000000000000081565b6040516370a0823160e01b81526000906001600160a01b037f000000000000000000000000000000000000000000000000000000000000000016906370a0823190610b66907f00000000000000000000000000000000000000000000000000000000000000009060040161243e565b60206040518083038186803b158015610b7e57600080fd5b505afa158015610b92573d6000803e3d6000fd5b505050506040513d601f19601f82011682018060405250810190610bb6919061236a565b905090565b737fc66500c84a76ad7e9c93437bfc5ac33e2ddae981565b6000610bb66102895b336000908152602081905260408120546001600160a01b03908116907f0000000000000000000000000000000000000000000000000000000000000000166370a082318215610c2b5782610c2d565b335b6040518263ffffffff1660e01b8152600401610c49919061243e565b60206040518083038186803b158015610c6157600080fd5b505afa158015610c75573d6000803e3d6000fd5b505050506040513d601f19601f82011682018060405250810190610c99919061236a565b91505090565b60006106b7826108c4565b6000808211610ccb5760405162461bcd60e51b81526004016107079061255e565b6000610cd5611b6e565b9050610d0c6001600160a01b037f000000000000000000000000000000000000000000000000000000000000000016338386611951565b60405163b6b55f2560e01b81526001600160a01b0382169063b6b55f259061083d9086906004016125cc565b6000602081905290815260409020546001600160a01b031681565b7f000000000000000000000000000000000000000000000000000000000000000081565b6000610bb6610dd87f00000000000000000000000000000000000000000000000000000000000000006001600160a01b03166318160ddd6040518163ffffffff1660e01b815260040160206040518083038186803b15801561049e57600080fd5b610de0611608565b90611c53565b6000610bb67f00000000000000000000000000000000000000000000000000000000000000006001600160a01b03166318160ddd6040518163ffffffff1660e01b815260040160206040518083038186803b15801561049e57600080fd5b6040516335ea6a7560e01b81526000907f00000000000000000000000000000000000000000000000000000000000000009082906001600160a01b037f000000000000000000000000000000000000000000000000000000000000000016906335ea6a7590610eb790859060040161243e565b6101806040518083038186803b158015610ed057600080fd5b505afa158015610ee4573d6000803e3d6000fd5b505050506040513d601f19601f82011682018060405250810190610f08919061227a565b90506000610f9685846001600160a01b03166370a082318560e001516040518263ffffffff1660e01b8152600401610f40919061243e565b60206040518083038186803b158015610f5857600080fd5b505afa158015610f6c573d6000803e3d6000fd5b505050506040513d601f19601f82011682018060405250810190610f90919061236a565b90611c69565b9050600061103083604001516fffffffffffffffffffffffffffffffff168461012001516001600160a01b031663b1bf962d6040518163ffffffff1660e01b815260040160206040518083038186803b158015610ff257600080fd5b505afa158015611006573d6000803e3d6000fd5b505050506040513d601f19601f8201168201806040525081019061102a919061236a565b90611cca565b90506000808461010001516001600160a01b031663f731e9be6040518163ffffffff1660e01b8152600401604080518083038186803b15801561107257600080fd5b505afa158015611086573d6000803e3d6000fd5b505050506040513d601f19601f820116820180604052508101906110aa9190612382565b9150915060008561014001516001600160a01b0316639584df2888878688876110d68d60000151611d71565b6040518763ffffffff1660e01b81526004016110f796959493929190612475565b60606040518083038186803b15801561110f57600080fd5b505afa158015611123573d6000803e3d6000fd5b505050506040513d601f19601f8201168201806040525081019061114791906123a5565b509091506000905061115d84610de08888611c53565b905061117861116b82611318565b633b9aca00840490611c53565b9a9950505050505050505050565b6000610bb66102c9610bdc565b7f000000000000000000000000000000000000000000000000000000000000000081565b60008034116111d85760405162461bcd60e51b81526004016107079061255e565b60006111e2611b6e565b90507f00000000000000000000000000000000000000000000000000000000000000006001600160a01b031663d0e30db0346040518263ffffffff1660e01b81526004016000604051808303818588803b15801561123f57600080fd5b505af1158015611253573d6000803e3d6000fd5b5061128f9350506001600160a01b037f000000000000000000000000000000000000000000000000000000000000000016915083905034611d7c565b60405163b6b55f2560e01b81526001600160a01b0382169063b6b55f25906112bb9034906004016125cc565b600060405180830381600087803b1580156112d557600080fd5b505af11580156112e9573d6000803e3d6000fd5b505050503491505090565b7f000000000000000000000000000000000000000000000000000000000000000081565b604051631652e7b760e01b81526000907f000000000000000000000000000000000000000000000000000000000000000090829073d784927ff2f95ba542bfc824c8a8a98f3495f6b590631652e7b79061137690859060040161243e565b60606040518083038186803b15801561138e57600080fd5b505afa1580156113a2573d6000803e3d6000fd5b505050506040513d601f19601f820116820180604052508101906113c691906123a5565b50915050806113da576000925050506106ba565b60007f00000000000000000000000000000000000000000000000000000000000000006001600160a01b031663fca513a86040518163ffffffff1660e01b815260040160206040518083038186803b15801561143557600080fd5b505afa158015611449573d6000803e3d6000fd5b505050506040513d601f19601f8201168201806040525081019061146d9190612246565b90506000816001600160a01b031663b3596f07737fc66500c84a76ad7e9c93437bfc5ac33e2ddae96040518263ffffffff1660e01b81526004016114b1919061243e565b60206040518083038186803b1580156114c957600080fd5b505afa1580156114dd573d6000803e3d6000fd5b505050506040513d601f19601f82011682018060405250810190611501919061236a565b90506000826001600160a01b031663b3596f077f00000000000000000000000000000000000000000000000000000000000000006040518263ffffffff1660e01b8152600401611551919061243e565b60206040518083038186803b15801561156957600080fd5b505afa15801561157d573d6000803e3d6000fd5b505050506040513d601f19601f820116820180604052508101906115a1919061236a565b90508115806115ae575080155b156115c1576000955050505050506106ba565b6115cb8188611ee5565b6115f5670de0b6b3a76400006115ef6115e8886301e13380611ee5565b8690611ee5565b90611ee5565b816115fc57fe5b04979650505050505050565b6000807f00000000000000000000000000000000000000000000000000000000000000006001600160a01b03166335ea6a757f00000000000000000000000000000000000000000000000000000000000000006040518263ffffffff1660e01b8152600401611677919061243e565b6101806040518083038186803b15801561169057600080fd5b505afa1580156116a4573d6000803e3d6000fd5b505050506040513d601f19601f820116820180604052508101906116c8919061227a565b9050633b9aca0081606001516fffffffffffffffffffffffffffffffff16816116ed57fe5b0491505090565b60408051600481526024810182526020810180516001600160e01b03166395d89b4160e01b1781529151815160609360009384936001600160a01b03881693919290918291908083835b6020831061175d5780518252601f19909201916020918201910161173e565b6001836020036101000a038019825116818451168082178552505050505050905001915050600060405180830381855afa9150503d80600081146117bd576040519150601f19603f3d011682016040523d82523d6000602084013e6117c2565b606091505b5091509150816117f557604051806040016040528060078152602001662aa725a727aba760c91b815250925050506106ba565b80516020146118cc5780806020019051602081101561181357600080fd5b810190808051604051939291908464010000000082111561183357600080fd5b90830190602082018581111561184857600080fd5b825164010000000081118282018810171561186257600080fd5b82525081516020918201929091019080838360005b8381101561188f578181015183820152602001611877565b50505050905090810190601f1680156118bc5780820380516001836020036101000a031916815260200191505b50604052505050925050506106ba565b60008180602001905160208110156118e357600080fd5b505190508061191657604051806040016040528060078152602001662aa725a727aba760c91b81525093505050506106ba565b600061192182611f0d565b60ff039050600080600883061161193957600061193c565b60015b60ff1660088304018452509195945050505050565b604080516001600160a01b0385811660248301528481166044830152606480830185905283518084039091018152608490920183526020820180516001600160e01b03166323b872dd60e01b178152925182516000948594938a169392918291908083835b602083106119d55780518252601f1990920191602091820191016119b6565b6001836020036101000a0380198251168184511680821785525050505050509050019150506000604051808303816000865af19150503d8060008114611a37576040519150601f19603f3d011682016040523d82523d6000602084013e611a3c565b606091505b5091509150818015611a6a575080511580611a6a5750808060200190516020811015611a6757600080fd5b50515b611abb576040805162461bcd60e51b815260206004820152600660248201527f54483a5354460000000000000000000000000000000000000000000000000000604482015290519081900360640190fd5b505050505050565b6040516000906001600160a01b0384169083908381818185875af1925050503d8060008114611b0e576040519150601f19603f3d011682016040523d82523d6000602084013e611b13565b606091505b5050905080611b69576040805162461bcd60e51b815260206004820152600660248201527f54483a5354450000000000000000000000000000000000000000000000000000604482015290519081900360640190fd5b505050565b336000908152602081905260408120546001600160a01b031680610bb657611bb57f00000000000000000000000000000000000000000000000000000000000000006120fb565b336000818152602081905260409081902080547fffffffffffffffffffffffff0000000000000000000000000000000000000000166001600160a01b038516908117909155905163189acdbd60e31b81529293509163c4d66de891611c1c9160040161243e565b600060405180830381600087803b158015611c3657600080fd5b505af1158015611c4a573d6000803e3d6000fd5b50505050905090565b80820182811015611c6357600080fd5b92915050565b6000600160ff1b8310611c7b57600080fd5b8282810160008412801590611c905750818112155b80611ca55750600084128015611ca557508181125b611cae57600080fd5b6000811215611cc257600092505050611c63565b949350505050565b6000821580611cd7575081155b15611ce457506000611c63565b816b019d971e4fe8401e740000001981611cfa57fe5b04831115611d4f576040805162461bcd60e51b815260206004820152600f60248201527f7261794d756c206f766572666c6f770000000000000000000000000000000000604482015290519081900360640190fd5b506b033b2e3c9fd0803ce800000091026b019d971e4fe8401e74000000010490565b5160401c61ffff1690565b604080516001600160a01b038481166024830152604480830185905283518084039091018152606490920183526020820180516001600160e01b031663a9059cbb60e01b1781529251825160009485949389169392918291908083835b60208310611df85780518252601f199092019160209182019101611dd9565b6001836020036101000a0380198251168184511680821785525050505050509050019150506000604051808303816000865af19150503d8060008114611e5a576040519150601f19603f3d011682016040523d82523d6000602084013e611e5f565b606091505b5091509150818015611e8d575080511580611e8d5750808060200190516020811015611e8a57600080fd5b50515b611ede576040805162461bcd60e51b815260206004820152600560248201527f54483a5354000000000000000000000000000000000000000000000000000000604482015290519081900360640190fd5b5050505050565b600082611ef457506000611c63565b5081810281838281611f0257fe5b0414611c6357600080fd5b6000808211611f4d5760405162461bcd60e51b815260040180806020018281038252602b815260200180612652602b913960400191505060405180910390fd5b7e818283848586878898a8b8c8d8e8f929395969799a9b9d9e9faaeb6bedeeff60008390038316810260f881901c9060fd1c600481106120395760068110611fe45780600614611fbd577ff8f9cbfae6cc78fbefe7cdc3a1793dfcf4f0e8bbd8cec470b6a28a7a5a3e1efd611fdf565b7ff5ecf1b3e9debc68e1d9cfabc5997135bfb7a7a3938b7b606b5b4b3f2f1f0ffe5b612034565b80600414612012577ff6e4ed9ff2d6b458eadcdf97bd91692de2d4da8fd2d0ac50c6ae9a8272523616612034565b7fc8c0b887b0a8a4489c948c7f847c6125746c645c544c444038302820181008ff5b6120e3565b60028110612095578060021461206f577ff7cae577eec2a03cf3bad76fb589591debb2dd67e0aa9834bea6925f6a4a2e0e612034565b7fe39ed557db96902cd38ed14fad815115c786af479b7e832473635343372717076120e3565b80156120c1577fc976c13bb96e881cb166a933a55e490d9d56952b8d4e801485467d23624226066120e3565b7f753a6d1b65325d0c552a4d1345224105391a310b29122104190a1103090201005b60039290921b60f8169190911c60ff16949350505050565b60008061210783612119565b90506037602082016000f09392505050565b6040805160488082526080820190925260609160208201818036833750507f3d602d80600a3d3981f3363d3d373d3d3d363d7300000000000000000000000060208301525060609290921b6034830152507f5af43d82803e903d91602b57fd5bf3000000000000000000000000000000000060488201526037815290565b80516106ba81612639565b6000602082840312156121b3578081fd5b6040516020810181811067ffffffffffffffff821117156121d057fe5b6040529151825250919050565b80516fffffffffffffffffffffffffffffffff811681146106ba57600080fd5b805164ffffffffff811681146106ba57600080fd5b805160ff811681146106ba57600080fd5b600060208284031215612234578081fd5b813561223f81612639565b9392505050565b600060208284031215612257578081fd5b815161223f81612639565b600060208284031215612273578081fd5b5035919050565b600061018080838503121561228d578182fd5b612296816125e5565b90506122a284846121a2565b81526122b0602084016121dd565b60208201526122c1604084016121dd565b60408201526122d2606084016121dd565b60608201526122e3608084016121dd565b60808201526122f460a084016121dd565b60a082015261230560c084016121fd565b60c082015261231660e08401612197565b60e0820152610100612329818501612197565b9082015261012061233b848201612197565b9082015261014061234d848201612197565b9082015261016061235f848201612212565b908201529392505050565b60006020828403121561237b578081fd5b5051919050565b60008060408385031215612394578081fd5b505080516020909101519092909150565b6000806000606084860312156123b9578081fd5b8351925060208401519150604084015190509250925092565b60007f41617665205632200000000000000000000000000000000000000000000000008252825161240a816008850160208701612609565b7f20416461707465720000000000000000000000000000000000000000000000006008939091019283015250601001919050565b6001600160a01b0391909116815260200190565b6001600160a01b0393841681526020810192909252909116604082015260600190565b6001600160a01b03969096168652602086019490945260408501929092526060840152608083015260a082015260c00190565b604080825283519082018190526000906020906060840190828701845b828110156124ea5781516001600160a01b0316845292840192908401906001016124c5565b50505083810382850152845180825285830191830190845b8181101561251e57835183529284019291840191600101612502565b5090979650505050505050565b600060208252825180602084015261254a816040850160208701612609565b601f01601f19169190910160400192915050565b60208082526009908201527f6465706f73697420300000000000000000000000000000000000000000000000604082015260600190565b6020808252600a908201527f7769746864726177203000000000000000000000000000000000000000000000604082015260600190565b90815260200190565b9182521515602082015260400190565b60405181810167ffffffffffffffff8111828210171561260157fe5b604052919050565b60005b8381101561262457818101518382015260200161260c565b83811115612633576000848401525b50505050565b6001600160a01b038116811461264e57600080fd5b5056fe426974733a3a6c6f776573744269745365743a2056616c7565203020686173206e6f206269747320736574a164736f6c6343000706000a6101006040523480156200001257600080fd5b5060405162000ebf38038062000ebf8339810160408190526200003591620000f2565b33606090811b60e0526001600160601b031983821b811660a0529082901b1660c05260408051630261bf8b60e01b815290516000916001600160a01b03861691630261bf8b91600480820192602092909190829003018186803b1580156200009c57600080fd5b505afa158015620000b1573d6000803e3d6000fd5b505050506040513d601f19601f82011682018060405250810190620000d7919062000145565b60601b6001600160601b031916608052506200018492505050565b60008060006060848603121562000107578283fd5b835162000114816200016b565b602085015190935062000127816200016b565b60408501519092506200013a816200016b565b809150509250925092565b60006020828403121562000157578081fd5b815162000164816200016b565b9392505050565b6001600160a01b03811681146200018157600080fd5b50565b60805160601c60a05160601c60c05160601c60e05160601c610ccc620001f3600039806101d552806102735280610342528061044e525080610543528061060d52806106c852508061024c52806103c352806104cb52508061021d528061039652806104ed5250610ccc6000f3fe608060405234801561001057600080fd5b506004361061007d5760003560e01c8063ae230f561161005b578063ae230f56146100bd578063b6b55f25146100d2578063c4d66de8146100e5578063d15b60a7146100f85761007d565b8063181783581461008257806338d074361461008c57806340e1e3051461009f575b600080fd5b61008a610100565b005b61008a61009a366004610b2b565b6101ca565b6100a7610314565b6040516100b49190610cae565b60405180910390f35b6100c5610327565b6040516100b49190610c6c565b61008a6100e0366004610afb565b610337565b61008a6100f3366004610acd565b610443565b61008a6105db565b600054600160a81b900463ffffffff16156101c05760005442600160a81b90910463ffffffff1610156101bb576000546040516301e9a69560e41b8152734da27a545c0c5b758a6ba100e3a049001de870f591631e9a695091610173916001600160a01b03169060001990600401610b9f565b600060405180830381600087803b15801561018d57600080fd5b505af11580156101a1573d6000803e3d6000fd5b50506000805463ffffffff60a81b19169055506101c09050565b6101c8565b6101c86106a4565b565b336001600160a01b037f0000000000000000000000000000000000000000000000000000000000000000161461021b5760405162461bcd60e51b815260040161021290610c77565b60405180910390fd5b7f00000000000000000000000000000000000000000000000000000000000000006001600160a01b03166369328dec7f00000000000000000000000000000000000000000000000000000000000000008484610297577f00000000000000000000000000000000000000000000000000000000000000006102a4565b6000546001600160a01b03165b6040518463ffffffff1660e01b81526004016102c293929190610bb8565b600060405180830381600087803b1580156102dc57600080fd5b505af11580156102f0573d6000803e3d6000fd5b5050600054600160a01b900460ff16159150610310905057610310610100565b5050565b600054600160a81b900463ffffffff1681565b600054600160a01b900460ff1681565b336001600160a01b037f0000000000000000000000000000000000000000000000000000000000000000161461037f5760405162461bcd60e51b815260040161021290610c77565b60405163e8eda9df60e01b81526001600160a01b037f0000000000000000000000000000000000000000000000000000000000000000169063e8eda9df906103f2907f00000000000000000000000000000000000000000000000000000000000000009085903090600090600401610bdb565b600060405180830381600087803b15801561040c57600080fd5b505af1158015610420573d6000803e3d6000fd5b5050600054600160a01b900460ff16159150610440905057610440610100565b50565b336001600160a01b037f00000000000000000000000000000000000000000000000000000000000000001614801561048457506000546001600160a01b0316155b61048d57600080fd5b600080547fffffffffffffffffffffffff0000000000000000000000000000000000000000166001600160a01b0383811691909117909155610511907f0000000000000000000000000000000000000000000000000000000000000000167f0000000000000000000000000000000000000000000000000000000000000000610947565b604051631652e7b760e01b815260009073d784927ff2f95ba542bfc824c8a8a98f3495f6b590631652e7b79061056b907f000000000000000000000000000000000000000000000000000000000000000090600401610b8b565b60606040518083038186803b15801561058357600080fd5b505afa158015610597573d6000803e3d6000fd5b505050506040513d601f19601f820116820180604052508101906105bb9190610b5e565b506000805460ff60a01b1916911515600160a01b02919091179055505050565b604051631652e7b760e01b815260009073d784927ff2f95ba542bfc824c8a8a98f3495f6b590631652e7b790610635907f000000000000000000000000000000000000000000000000000000000000000090600401610b8b565b60606040518083038186803b15801561064d57600080fd5b505afa158015610661573d6000803e3d6000fd5b505050506040513d601f19601f820116820180604052508101906106859190610b5e565b506000805460ff60a01b1916911515600160a01b029190911790555050565b604080516001808252818301909252600091602080830190803683370190505090507f0000000000000000000000000000000000000000000000000000000000000000816000815181106106f457fe5b6001600160a01b0390921660209283029190910190910152604051630cc7d40f60e11b815260009073d784927ff2f95ba542bfc824c8a8a98f3495f6b59063198fa81e90610746903090600401610b8b565b60206040518083038186803b15801561075e57600080fd5b505afa158015610772573d6000803e3d6000fd5b505050506040513d601f19601f820116820180604052508101906107969190610b13565b9050801561031057604051633111e7b360e01b815273d784927ff2f95ba542bfc824c8a8a98f3495f6b590633111e7b3906107d990859085903090600401610c08565b602060405180830381600087803b1580156107f357600080fd5b505af1158015610807573d6000803e3d6000fd5b505050506040513d601f19601f8201168201806040525081019061082b9190610b13565b50734da27a545c0c5b758a6ba100e3a049001de870f56001600160a01b031663787a08a66040518163ffffffff1660e01b8152600401600060405180830381600087803b15801561087b57600080fd5b505af115801561088f573d6000803e3d6000fd5b505050506000734da27a545c0c5b758a6ba100e3a049001de870f56001600160a01b03166372b49d636040518163ffffffff1660e01b815260040160206040518083038186803b1580156108e257600080fd5b505afa1580156108f6573d6000803e3d6000fd5b505050506040513d601f19601f8201168201806040525081019061091a9190610b13565b6000805463ffffffff60a81b1916600160a81b429390930163ffffffff1692909202919091179055505050565b6103108282600019604080516001600160a01b038481166024830152604480830185905283518084039091018152606490920183526020820180517bffffffffffffffffffffffffffffffffffffffffffffffffffffffff1663095ea7b360e01b1781529251825160009485949389169392918291908083835b602083106109e05780518252601f1990920191602091820191016109c1565b6001836020036101000a0380198251168184511680821785525050505050509050019150506000604051808303816000865af19150503d8060008114610a42576040519150601f19603f3d011682016040523d82523d6000602084013e610a47565b606091505b5091509150818015610a75575080511580610a755750808060200190516020811015610a7257600080fd5b50515b610ac6576040805162461bcd60e51b815260206004820152600560248201527f54483a5341000000000000000000000000000000000000000000000000000000604482015290519081900360640190fd5b5050505050565b600060208284031215610ade578081fd5b81356001600160a01b0381168114610af4578182fd5b9392505050565b600060208284031215610b0c578081fd5b5035919050565b600060208284031215610b24578081fd5b5051919050565b60008060408385031215610b3d578081fd5b8235915060208301358015158114610b53578182fd5b809150509250929050565b600080600060608486031215610b72578081fd5b8351925060208401519150604084015190509250925092565b6001600160a01b0391909116815260200190565b6001600160a01b03929092168252602082015260400190565b6001600160a01b0393841681526020810192909252909116604082015260600190565b6001600160a01b03948516815260208101939093529216604082015261ffff909116606082015260800190565b606080825284519082018190526000906020906080840190828801845b82811015610c4a5781516001600160a01b031684529284019290840190600101610c25565b50505090830194909452506001600160a01b0391909116604090910152919050565b901515815260200190565b60208082526008908201527f2161646170746572000000000000000000000000000000000000000000000000604082015260600190565b63ffffffff9190911681526020019056fea164736f6c6343000706000aa164736f6c6343000706000a60c06040523480156200001157600080fd5b5060405162003288380380620032888339810160408190526200003491620000dd565b806001600160a01b03166080816001600160a01b031660601b81525050806001600160a01b0316630261bf8b6040518163ffffffff1660e01b815260040160206040518083038186803b1580156200008b57600080fd5b505afa158015620000a0573d6000803e3d6000fd5b505050506040513d601f19601f82011682018060405250810190620000c69190620000dd565b60601b6001600160601b03191660a052506200011c565b600060208284031215620000ef578081fd5b8151620000fc8162000103565b9392505050565b6001600160a01b03811681146200011957600080fd5b50565b60805160601c60a05160601c6131296200015f6000398061059c52806106455280610c5952806112ad5250806107f25280610b55528061105b52506131296000f3fe60806040523480156200001157600080fd5b5060043610620001b45760003560e01c8063819faf7b11620000f9578063c89d5b8b1162000099578063dc030518116200006f578063dc0305181462000327578063e83dd2e014620002ba578063fc0c546a146200033157620001b4565b8063c89d5b8b14620002fc578063cd01a64e1462000306578063d31c9c29146200031057620001b4565b8063b6b55f2511620000cf578063b6b55f2514620002c4578063b8e4e72c14620002db578063c72c4d1014620002f257620001b4565b8063819faf7b14620002a6578063853828b614620002b05780638da876c914620002ba57620001b4565b80632e1a7d4d116200016557806365cdab3d116200013b57806365cdab3d146200027b5780636f307dc3146200029257806374375359146200029c57620001b4565b80632e1a7d4d146200024b578063485cc95514620002625780634e6f376d146200023457620001b4565b80631071a290116200019b5780631071a29014620001f557806316f0115b146200021b578063282a050b146200023457620001b4565b8063020c067314620001b957806306fdde0314620001dc575b600080fd5b620001c36200033b565b604051620001d392919062001fed565b60405180910390f35b620001e662000547565b604051620001d3919062002097565b6200020c6200020636600462001d69565b62000587565b604051620001d39190620021a8565b620002256200059a565b604051620001d3919062001f83565b6200020c6200024536600462001d69565b620005be565b6200020c6200025c36600462001d69565b620005c5565b620002796200027336600462001d0d565b6200072e565b005b6200020c6200028c36600462001d69565b620008f4565b620002256200094b565b6200020c6200095a565b62000225620009ed565b6200020c62000a05565b6200020c62000a10565b6200020c620002d536600462001d69565b62000abd565b62000225620002ec36600462001ce7565b62000b38565b6200022562000b53565b6200020c62000b77565b6200020c62000be1565b6200020c6200032136600462001d69565b62000c36565b6200022562000f84565b6200022562000f93565b6060806000620003d4600260009054906101000a90046001600160a01b03166001600160a01b03166318160ddd6040518163ffffffff1660e01b815260040160206040518083038186803b1580156200039357600080fd5b505afa158015620003a8573d6000803e3d6000fd5b505050506040513d601f19601f82011682018060405250810190620003ce919062001e8d565b62000fa2565b90506000808211620003e8576001620003eb565b60025b60ff1690508067ffffffffffffffff811180156200040857600080fd5b5060405190808252806020026020018201604052801562000433578160200160208202803683370190505b5093508067ffffffffffffffff811180156200044e57600080fd5b5060405190808252806020026020018201604052801562000479578160200160208202803683370190505b5060015485519194506001600160a01b03169085906000906200049857fe5b60200260200101906001600160a01b031690816001600160a01b031681525050620004c26200128e565b83600081518110620004d057fe5b602090810291909101015281156200054157737fc66500c84a76ad7e9c93437bfc5ac33e2ddae9846001815181106200050557fe5b60200260200101906001600160a01b031690816001600160a01b03168152505081836001815181106200053457fe5b6020026020010181815250505b50509091565b60015460609062000561906001600160a01b03166200136a565b60405160200162000573919062001f15565b604051602081830303815290604052905090565b60006200059482620005c5565b92915050565b7f000000000000000000000000000000000000000000000000000000000000000081565b805b919050565b6000808211620005f25760405162461bcd60e51b8152600401620005e99062002103565b60405180910390fd5b336000908152600360205260409020546001600160a01b031680620006c2576002546200062b906001600160a01b0316333086620015f2565b600154604051631a4ca37b60e21b81526001600160a01b037f00000000000000000000000000000000000000000000000000000000000000008116926369328dec92620006849291909116908790339060040162001f97565b600060405180830381600087803b1580156200069f57600080fd5b505af1158015620006b4573d6000803e3d6000fd5b5050505082915050620005c0565b604051631c683a1b60e11b81526001600160a01b038216906338d0743690620006f3908690600190600401620021b1565b600060405180830381600087803b1580156200070e57600080fd5b505af115801562000723573d6000803e3d6000fd5b509495945050505050565b6001546001600160a01b03161580156200075157506002546001600160a01b0316155b620007705760405162461bcd60e51b8152600401620005e99062002171565b6001600160a01b038216158015906200079157506001600160a01b03811615155b620007b05760405162461bcd60e51b8152600401620005e9906200213a565b600180546001600160a01b0380851673ffffffffffffffffffffffffffffffffffffffff199283161790925560028054928416929091169190911790556040517f00000000000000000000000000000000000000000000000000000000000000009083908390620008219062001c46565b6200082f9392919062002074565b604051809103906000f0801580156200084c573d6000803e3d6000fd5b506000806101000a8154816001600160a01b0302191690836001600160a01b03160217905550816001600160a01b031663313ce5676040518163ffffffff1660e01b815260040160206040518083038186803b158015620008ac57600080fd5b505afa158015620008c1573d6000803e3d6000fd5b505050506040513d601f19601f82011682018060405250810190620008e7919062001ef8565b60ff16600a0a6004555050565b6000808211620009185760405162461bcd60e51b8152600401620005e99062002103565b6000620009246200095a565b905082811062000935578262000937565b805b91506200094482620005c5565b5050919050565b6001546001600160a01b031681565b6001546002546040516370a0823160e01b81526000926001600160a01b03908116926370a082319262000994929091169060040162001f83565b60206040518083038186803b158015620009ad57600080fd5b505afa158015620009c2573d6000803e3d6000fd5b505050506040513d601f19601f82011682018060405250810190620009e8919062001e8d565b905090565b737fc66500c84a76ad7e9c93437bfc5ac33e2ddae981565b6000620009e86200025c5b336000908152600360205260408120546002546001600160a01b0391821691166370a08231821562000a43578262000a45565b335b6040518263ffffffff1660e01b815260040162000a63919062001f83565b60206040518083038186803b15801562000a7c57600080fd5b505afa15801562000a91573d6000803e3d6000fd5b505050506040513d601f19601f8201168201806040525081019062000ab7919062001e8d565b91505090565b600080821162000ae15760405162461bcd60e51b8152600401620005e990620020cc565b600062000aed62001781565b60015490915062000b0a906001600160a01b0316338386620015f2565b60405163b6b55f2560e01b81526001600160a01b0382169063b6b55f2590620006f3908690600401620021a8565b6003602052600090815260409020546001600160a01b031681565b7f000000000000000000000000000000000000000000000000000000000000000081565b6000620009e862000bd0600260009054906101000a90046001600160a01b03166001600160a01b03166318160ddd6040518163ffffffff1660e01b815260040160206040518083038186803b1580156200039357600080fd5b62000bda6200128e565b906200184e565b6000620009e8600260009054906101000a90046001600160a01b03166001600160a01b03166318160ddd6040518163ffffffff1660e01b815260040160206040518083038186803b1580156200039357600080fd5b6001546040516335ea6a7560e01b81526000916001600160a01b039081169183917f000000000000000000000000000000000000000000000000000000000000000016906335ea6a759062000c9090859060040162001f83565b6101806040518083038186803b15801562000caa57600080fd5b505afa15801562000cbf573d6000803e3d6000fd5b505050506040513d601f19601f8201168201806040525081019062000ce5919062001d82565b9050600062000d7b85846001600160a01b03166370a082318560e001516040518263ffffffff1660e01b815260040162000d20919062001f83565b60206040518083038186803b15801562000d3957600080fd5b505afa15801562000d4e573d6000803e3d6000fd5b505050506040513d601f19601f8201168201806040525081019062000d74919062001e8d565b906200185f565b9050600062000e1b83604001516fffffffffffffffffffffffffffffffff168461012001516001600160a01b031663b1bf962d6040518163ffffffff1660e01b815260040160206040518083038186803b15801562000dd957600080fd5b505afa15801562000dee573d6000803e3d6000fd5b505050506040513d601f19601f8201168201806040525081019062000e14919062001e8d565b90620018c7565b90506000808461010001516001600160a01b031663f731e9be6040518163ffffffff1660e01b8152600401604080518083038186803b15801562000e5e57600080fd5b505afa15801562000e73573d6000803e3d6000fd5b505050506040513d601f19601f8201168201806040525081019062000e99919062001ea6565b9150915060008561014001516001600160a01b0316639584df28888786888762000ec78d6000015162001973565b6040518763ffffffff1660e01b815260040162000eea9695949392919062001fba565b60606040518083038186803b15801562000f0357600080fd5b505afa15801562000f18573d6000803e3d6000fd5b505050506040513d601f19601f8201168201806040525081019062000f3e919062001eca565b509091506000905062000f578462000bda88886200184e565b905062000f7662000f688262000fa2565b633b9aca008404906200184e565b9a9950505050505050505050565b6000546001600160a01b031681565b6002546001600160a01b031681565b600254604051631652e7b760e01b81526000916001600160a01b031690829073d784927ff2f95ba542bfc824c8a8a98f3495f6b590631652e7b79062000fed90859060040162001f83565b60606040518083038186803b1580156200100657600080fd5b505afa1580156200101b573d6000803e3d6000fd5b505050506040513d601f19601f8201168201806040525081019062001041919062001eca565b50915050806200105757600092505050620005c0565b60007f00000000000000000000000000000000000000000000000000000000000000006001600160a01b031663fca513a86040518163ffffffff1660e01b815260040160206040518083038186803b158015620010b357600080fd5b505afa158015620010c8573d6000803e3d6000fd5b505050506040513d601f19601f82011682018060405250810190620010ee919062001d4a565b90506000816001600160a01b031663b3596f07737fc66500c84a76ad7e9c93437bfc5ac33e2ddae96040518263ffffffff1660e01b815260040162001134919062001f83565b60206040518083038186803b1580156200114d57600080fd5b505afa15801562001162573d6000803e3d6000fd5b505050506040513d601f19601f8201168201806040525081019062001188919062001e8d565b60015460405163b3596f0760e01b81529192506000916001600160a01b038581169263b3596f0792620011c2929091169060040162001f83565b60206040518083038186803b158015620011db57600080fd5b505afa158015620011f0573d6000803e3d6000fd5b505050506040513d601f19601f8201168201806040525081019062001216919062001e8d565b905081158062001224575080155b156200123957600095505050505050620005c0565b6004546000906200124b838a6200197e565b816200125357fe5b0490506000620012746200126c876301e133806200197e565b85906200197e565b90508181816200128057fe5b049998505050505050505050565b6001546040516335ea6a7560e01b815260009182916001600160a01b037f00000000000000000000000000000000000000000000000000000000000000008116926335ea6a7592620012e892919091169060040162001f83565b6101806040518083038186803b1580156200130257600080fd5b505afa15801562001317573d6000803e3d6000fd5b505050506040513d601f19601f820116820180604052508101906200133d919062001d82565b9050633b9aca0081606001516fffffffffffffffffffffffffffffffff16816200136357fe5b0491505090565b60408051600481526024810182526020810180517bffffffffffffffffffffffffffffffffffffffffffffffffffffffff166395d89b4160e01b1781529151815160609360009384936001600160a01b03881693919290918291908083835b60208310620013ea5780518252601f199092019160209182019101620013c9565b6001836020036101000a038019825116818451168082178552505050505050905001915050600060405180830381855afa9150503d80600081146200144c576040519150601f19603f3d011682016040523d82523d6000602084013e62001451565b606091505b5091509150816200148657604051806040016040528060078152602001662aa725a727aba760c91b81525092505050620005c0565b80516020146200156657808060200190516020811015620014a657600080fd5b8101908080516040519392919084640100000000821115620014c757600080fd5b908301906020820185811115620014dd57600080fd5b8251640100000000811182820188101715620014f857600080fd5b82525081516020918201929091019080838360005b83811015620015275781810151838201526020016200150d565b50505050905090810190601f168015620015555780820380516001836020036101000a031916815260200191505b5060405250505092505050620005c0565b60008180602001905160208110156200157e57600080fd5b5051905080620015b357604051806040016040528060078152602001662aa725a727aba760c91b8152509350505050620005c0565b6000620015c082620019aa565b60ff0390506000806008830611620015da576000620015dd565b60015b60ff1660088304018452509195945050505050565b604080516001600160a01b0385811660248301528481166044830152606480830185905283518084039091018152608490920183526020820180517bffffffffffffffffffffffffffffffffffffffffffffffffffffffff166323b872dd60e01b178152925182516000948594938a169392918291908083835b602083106200168d5780518252601f1990920191602091820191016200166c565b6001836020036101000a0380198251168184511680821785525050505050509050019150506000604051808303816000865af19150503d8060008114620016f1576040519150601f19603f3d011682016040523d82523d6000602084013e620016f6565b606091505b5091509150818015620017275750805115806200172757508080602001905160208110156200172457600080fd5b50515b62001779576040805162461bcd60e51b815260206004820152600660248201527f54483a5354460000000000000000000000000000000000000000000000000000604482015290519081900360640190fd5b505050505050565b336000908152600360205260408120546001600160a01b031680620009e857600054620017b7906001600160a01b031662001ba8565b3360008181526003602052604090819020805473ffffffffffffffffffffffffffffffffffffffff19166001600160a01b038516908117909155905163189acdbd60e31b81529293509163c4d66de891620018159160040162001f83565b600060405180830381600087803b1580156200183057600080fd5b505af115801562001845573d6000803e3d6000fd5b50505050905090565b808201828110156200059457600080fd5b6000600160ff1b83106200187257600080fd5b8282810160008412801590620018885750818112155b806200189f57506000841280156200189f57508181125b620018a957600080fd5b6000811215620018bf5760009250505062000594565b949350505050565b6000821580620018d5575081155b15620018e45750600062000594565b816b019d971e4fe8401e740000001981620018fb57fe5b0483111562001951576040805162461bcd60e51b815260206004820152600f60248201527f7261794d756c206f766572666c6f770000000000000000000000000000000000604482015290519081900360640190fd5b506b033b2e3c9fd0803ce800000091026b019d971e4fe8401e74000000010490565b5160401c61ffff1690565b6000826200198f5750600062000594565b50818102818382816200199e57fe5b04146200059457600080fd5b6000808211620019ec5760405162461bcd60e51b815260040180806020018281038252602b815260200180620030f2602b913960400191505060405180910390fd5b7e818283848586878898a8b8c8d8e8f929395969799a9b9d9e9faaeb6bedeeff60008390038316810260f881901c9060fd1c6004811062001ae0576006811062001a88578060061462001a60577ff8f9cbfae6cc78fbefe7cdc3a1793dfcf4f0e8bbd8cec470b6a28a7a5a3e1efd62001a82565b7ff5ecf1b3e9debc68e1d9cfabc5997135bfb7a7a3938b7b606b5b4b3f2f1f0ffe5b62001ada565b8060041462001ab8577ff6e4ed9ff2d6b458eadcdf97bd91692de2d4da8fd2d0ac50c6ae9a827252361662001ada565b7fc8c0b887b0a8a4489c948c7f847c6125746c645c544c444038302820181008ff5b62001b90565b6002811062001b40578060021462001b19577ff7cae577eec2a03cf3bad76fb589591debb2dd67e0aa9834bea6925f6a4a2e0e62001ada565b7fe39ed557db96902cd38ed14fad815115c786af479b7e8324736353433727170762001b90565b801562001b6e577fc976c13bb96e881cb166a933a55e490d9d56952b8d4e801485467d236242260662001b90565b7f753a6d1b65325d0c552a4d1345224105391a310b29122104190a1103090201005b60039290921b60f8169190911c60ff16949350505050565b60008062001bb68362001bc8565b90506037602082016000f09392505050565b6040805160488082526080820190925260609160208201818036833750507f3d602d80600a3d3981f3363d3d373d3d3d363d7300000000000000000000000060208301525060609290921b6034830152507f5af43d82803e903d91602b57fd5bf3000000000000000000000000000000000060488201526037815290565b610ebf806200223383390190565b8051620005c08162002219565b60006020828403121562001c73578081fd5b6040516020810181811067ffffffffffffffff8211171562001c9157fe5b6040529151825250919050565b80516fffffffffffffffffffffffffffffffff81168114620005c057600080fd5b805164ffffffffff81168114620005c057600080fd5b805160ff81168114620005c057600080fd5b60006020828403121562001cf9578081fd5b813562001d068162002219565b9392505050565b6000806040838503121562001d20578081fd5b823562001d2d8162002219565b9150602083013562001d3f8162002219565b809150509250929050565b60006020828403121562001d5c578081fd5b815162001d068162002219565b60006020828403121562001d7b578081fd5b5035919050565b600061018080838503121562001d96578182fd5b62001da181620021c1565b905062001daf848462001c61565b815262001dbf6020840162001c9e565b602082015262001dd26040840162001c9e565b604082015262001de56060840162001c9e565b606082015262001df86080840162001c9e565b608082015262001e0b60a0840162001c9e565b60a082015262001e1e60c0840162001cbf565b60c082015262001e3160e0840162001c54565b60e082015261010062001e4681850162001c54565b9082015261012062001e5a84820162001c54565b9082015261014062001e6e84820162001c54565b9082015261016062001e8284820162001cd5565b908201529392505050565b60006020828403121562001e9f578081fd5b5051919050565b6000806040838503121562001eb9578182fd5b505080516020909101519092909150565b60008060006060848603121562001edf578081fd5b8351925060208401519150604084015190509250925092565b60006020828403121562001f0a578081fd5b62001d068262001cd5565b60007f41617665205632200000000000000000000000000000000000000000000000008252825162001f4f816008850160208701620021e6565b7f20416461707465720000000000000000000000000000000000000000000000006008939091019283015250601001919050565b6001600160a01b0391909116815260200190565b6001600160a01b0393841681526020810192909252909116604082015260600190565b6001600160a01b03969096168652602086019490945260408501929092526060840152608083015260a082015260c00190565b604080825283519082018190526000906020906060840190828701845b82811015620020315781516001600160a01b0316845292840192908401906001016200200a565b50505083810382850152845180825285830191830190845b81811015620020675783518352928401929184019160010162002049565b5090979650505050505050565b6001600160a01b0393841681529183166020830152909116604082015260600190565b6000602082528251806020840152620020b8816040850160208701620021e6565b601f01601f19169190910160400192915050565b60208082526009908201527f6465706f73697420300000000000000000000000000000000000000000000000604082015260600190565b6020808252600a908201527f7769746864726177203000000000000000000000000000000000000000000000604082015260600190565b6020808252600b908201527f6261642061646472657373000000000000000000000000000000000000000000604082015260600190565b6020808252600b908201527f696e697469616c697a6564000000000000000000000000000000000000000000604082015260600190565b90815260200190565b9182521515602082015260400190565b60405181810167ffffffffffffffff81118282101715620021de57fe5b604052919050565b60005b8381101562002203578181015183820152602001620021e9565b8381111562002213576000848401525b50505050565b6001600160a01b03811681146200222f57600080fd5b5056fe6101006040523480156200001257600080fd5b5060405162000ebf38038062000ebf8339810160408190526200003591620000f2565b33606090811b60e0526001600160601b031983821b811660a0529082901b1660c05260408051630261bf8b60e01b815290516000916001600160a01b03861691630261bf8b91600480820192602092909190829003018186803b1580156200009c57600080fd5b505afa158015620000b1573d6000803e3d6000fd5b505050506040513d601f19601f82011682018060405250810190620000d7919062000145565b60601b6001600160601b031916608052506200018492505050565b60008060006060848603121562000107578283fd5b835162000114816200016b565b602085015190935062000127816200016b565b60408501519092506200013a816200016b565b809150509250925092565b60006020828403121562000157578081fd5b815162000164816200016b565b9392505050565b6001600160a01b03811681146200018157600080fd5b50565b60805160601c60a05160601c60c05160601c60e05160601c610ccc620001f3600039806101d552806102735280610342528061044e525080610543528061060d52806106c852508061024c52806103c352806104cb52508061021d528061039652806104ed5250610ccc6000f3fe608060405234801561001057600080fd5b506004361061007d5760003560e01c8063ae230f561161005b578063ae230f56146100bd578063b6b55f25146100d2578063c4d66de8146100e5578063d15b60a7146100f85761007d565b8063181783581461008257806338d074361461008c57806340e1e3051461009f575b600080fd5b61008a610100565b005b61008a61009a366004610b2b565b6101ca565b6100a7610314565b6040516100b49190610cae565b60405180910390f35b6100c5610327565b6040516100b49190610c6c565b61008a6100e0366004610afb565b610337565b61008a6100f3366004610acd565b610443565b61008a6105db565b600054600160a81b900463ffffffff16156101c05760005442600160a81b90910463ffffffff1610156101bb576000546040516301e9a69560e41b8152734da27a545c0c5b758a6ba100e3a049001de870f591631e9a695091610173916001600160a01b03169060001990600401610b9f565b600060405180830381600087803b15801561018d57600080fd5b505af11580156101a1573d6000803e3d6000fd5b50506000805463ffffffff60a81b19169055506101c09050565b6101c8565b6101c86106a4565b565b336001600160a01b037f0000000000000000000000000000000000000000000000000000000000000000161461021b5760405162461bcd60e51b815260040161021290610c77565b60405180910390fd5b7f00000000000000000000000000000000000000000000000000000000000000006001600160a01b03166369328dec7f00000000000000000000000000000000000000000000000000000000000000008484610297577f00000000000000000000000000000000000000000000000000000000000000006102a4565b6000546001600160a01b03165b6040518463ffffffff1660e01b81526004016102c293929190610bb8565b600060405180830381600087803b1580156102dc57600080fd5b505af11580156102f0573d6000803e3d6000fd5b5050600054600160a01b900460ff16159150610310905057610310610100565b5050565b600054600160a81b900463ffffffff1681565b600054600160a01b900460ff1681565b336001600160a01b037f0000000000000000000000000000000000000000000000000000000000000000161461037f5760405162461bcd60e51b815260040161021290610c77565b60405163e8eda9df60e01b81526001600160a01b037f0000000000000000000000000000000000000000000000000000000000000000169063e8eda9df906103f2907f00000000000000000000000000000000000000000000000000000000000000009085903090600090600401610bdb565b600060405180830381600087803b15801561040c57600080fd5b505af1158015610420573d6000803e3d6000fd5b5050600054600160a01b900460ff16159150610440905057610440610100565b50565b336001600160a01b037f00000000000000000000000000000000000000000000000000000000000000001614801561048457506000546001600160a01b0316155b61048d57600080fd5b600080547fffffffffffffffffffffffff0000000000000000000000000000000000000000166001600160a01b0383811691909117909155610511907f0000000000000000000000000000000000000000000000000000000000000000167f0000000000000000000000000000000000000000000000000000000000000000610947565b604051631652e7b760e01b815260009073d784927ff2f95ba542bfc824c8a8a98f3495f6b590631652e7b79061056b907f000000000000000000000000000000000000000000000000000000000000000090600401610b8b565b60606040518083038186803b15801561058357600080fd5b505afa158015610597573d6000803e3d6000fd5b505050506040513d601f19601f820116820180604052508101906105bb9190610b5e565b506000805460ff60a01b1916911515600160a01b02919091179055505050565b604051631652e7b760e01b815260009073d784927ff2f95ba542bfc824c8a8a98f3495f6b590631652e7b790610635907f000000000000000000000000000000000000000000000000000000000000000090600401610b8b565b60606040518083038186803b15801561064d57600080fd5b505afa158015610661573d6000803e3d6000fd5b505050506040513d601f19601f820116820180604052508101906106859190610b5e565b506000805460ff60a01b1916911515600160a01b029190911790555050565b604080516001808252818301909252600091602080830190803683370190505090507f0000000000000000000000000000000000000000000000000000000000000000816000815181106106f457fe5b6001600160a01b0390921660209283029190910190910152604051630cc7d40f60e11b815260009073d784927ff2f95ba542bfc824c8a8a98f3495f6b59063198fa81e90610746903090600401610b8b565b60206040518083038186803b15801561075e57600080fd5b505afa158015610772573d6000803e3d6000fd5b505050506040513d601f19601f820116820180604052508101906107969190610b13565b9050801561031057604051633111e7b360e01b815273d784927ff2f95ba542bfc824c8a8a98f3495f6b590633111e7b3906107d990859085903090600401610c08565b602060405180830381600087803b1580156107f357600080fd5b505af1158015610807573d6000803e3d6000fd5b505050506040513d601f19601f8201168201806040525081019061082b9190610b13565b50734da27a545c0c5b758a6ba100e3a049001de870f56001600160a01b031663787a08a66040518163ffffffff1660e01b8152600401600060405180830381600087803b15801561087b57600080fd5b505af115801561088f573d6000803e3d6000fd5b505050506000734da27a545c0c5b758a6ba100e3a049001de870f56001600160a01b03166372b49d636040518163ffffffff1660e01b815260040160206040518083038186803b1580156108e257600080fd5b505afa1580156108f6573d6000803e3d6000fd5b505050506040513d601f19601f8201168201806040525081019061091a9190610b13565b6000805463ffffffff60a81b1916600160a81b429390930163ffffffff1692909202919091179055505050565b6103108282600019604080516001600160a01b038481166024830152604480830185905283518084039091018152606490920183526020820180517bffffffffffffffffffffffffffffffffffffffffffffffffffffffff1663095ea7b360e01b1781529251825160009485949389169392918291908083835b602083106109e05780518252601f1990920191602091820191016109c1565b6001836020036101000a0380198251168184511680821785525050505050509050019150506000604051808303816000865af19150503d8060008114610a42576040519150601f19603f3d011682016040523d82523d6000602084013e610a47565b606091505b5091509150818015610a75575080511580610a755750808060200190516020811015610a7257600080fd5b50515b610ac6576040805162461bcd60e51b815260206004820152600560248201527f54483a5341000000000000000000000000000000000000000000000000000000604482015290519081900360640190fd5b5050505050565b600060208284031215610ade578081fd5b81356001600160a01b0381168114610af4578182fd5b9392505050565b600060208284031215610b0c578081fd5b5035919050565b600060208284031215610b24578081fd5b5051919050565b60008060408385031215610b3d578081fd5b8235915060208301358015158114610b53578182fd5b809150509250929050565b600080600060608486031215610b72578081fd5b8351925060208401519150604084015190509250925092565b6001600160a01b0391909116815260200190565b6001600160a01b03929092168252602082015260400190565b6001600160a01b0393841681526020810192909252909116604082015260600190565b6001600160a01b03948516815260208101939093529216604082015261ffff909116606082015260800190565b606080825284519082018190526000906020906080840190828801845b82811015610c4a5781516001600160a01b031684529284019290840190600101610c25565b50505090830194909452506001600160a01b0391909116604090910152919050565b901515815260200190565b60208082526008908201527f2161646170746572000000000000000000000000000000000000000000000000604082015260600190565b63ffffffff9190911681526020019056fea164736f6c6343000706000a426974733a3a6c6f776573744269745365743a2056616c7565203020686173206e6f206269747320736574a164736f6c6343000706000a",
  "devdoc": {
    "kind": "dev",
    "methods": {
      "freezeAdapter(address)": {
        "details": "Freeze `adapter` - add it to `frozenAdapters` and remove it from the registry. Does not verify adapter exists or has been registered by this contract because the registry handles that."
      },
      "getUnmapped()": {
        "details": "Get the list of tokens which have not already been mapped by the adapter. Tokens may be underlying tokens or wrapper tokens for a lending market."
      },
      "getUnmappedUpTo(uint256)": {
        "details": "Get up to `max` tokens which have not already been mapped by the adapter. Tokens may be underlying tokens or wrapper tokens for a lending market."
      },
      "map(uint256)": {
        "details": "Map up to `max` tokens, starting at `totalMapped`."
      },
      "protocol()": {
        "details": "Name of the protocol the adapter is for."
      },
      "unfreezeAdapter(uint256)": {
        "details": "Unfreeze adapter at `index` in `frozenAdapters`. Market for the adapter must not be frozen by the protocol."
      },
      "unfreezeToken(uint256)": {
        "details": "Unfreeze token at `index` in `frozenTokens` and create a new adapter for it. Market for the token must not be frozen by the protocol."
      }
    },
    "version": 1
  },
  "userdoc": {
    "kind": "user",
    "methods": {},
    "version": 1
  },
  "storageLayout": {
    "storage": [
      {
        "astId": 18197,
        "contract": "contracts/protocols/AaveV2ProtocolAdapter.sol:AaveV2ProtocolAdapter",
        "label": "frozenAdapters",
        "offset": 0,
        "slot": "0",
        "type": "t_array(t_address)dyn_storage"
      },
      {
        "astId": 18201,
        "contract": "contracts/protocols/AaveV2ProtocolAdapter.sol:AaveV2ProtocolAdapter",
        "label": "frozenTokens",
        "offset": 0,
        "slot": "1",
        "type": "t_array(t_address)dyn_storage"
      },
      {
        "astId": 18204,
        "contract": "contracts/protocols/AaveV2ProtocolAdapter.sol:AaveV2ProtocolAdapter",
        "label": "totalMapped",
        "offset": 0,
        "slot": "2",
        "type": "t_uint256"
      }
    ],
    "types": {
      "t_address": {
        "encoding": "inplace",
        "label": "address",
        "numberOfBytes": "20"
      },
      "t_array(t_address)dyn_storage": {
        "base": "t_address",
        "encoding": "dynamic_array",
        "label": "address[]",
        "numberOfBytes": "32"
      },
      "t_uint256": {
        "encoding": "inplace",
        "label": "uint256",
        "numberOfBytes": "32"
      }
    }
  }
}