{
  "address": "0x5F2945604013Ee9f80aE2eDDb384462B681859C4",
  "abi": [
    {
      "anonymous": false,
      "inputs": [
        {
          "indexed": true,
          "internalType": "address",
          "name": "previousOwner",
          "type": "address"
        },
        {
          "indexed": true,
          "internalType": "address",
          "name": "newOwner",
          "type": "address"
        }
      ],
      "name": "OwnershipTransferred",
      "type": "event"
    },
    {
      "anonymous": false,
      "inputs": [
        {
          "indexed": false,
          "internalType": "uint256",
          "name": "protocolId",
          "type": "uint256"
        },
        {
          "indexed": false,
          "internalType": "address",
          "name": "protocolAdapter",
          "type": "address"
        }
      ],
      "name": "ProtocolAdapterAdded",
      "type": "event"
    },
    {
      "anonymous": false,
      "inputs": [
        {
          "indexed": false,
          "internalType": "uint256",
          "name": "protocolId",
          "type": "uint256"
        }
      ],
      "name": "ProtocolAdapterRemoved",
      "type": "event"
    },
    {
      "anonymous": false,
      "inputs": [
        {
          "indexed": false,
          "internalType": "address",
          "name": "adapter",
          "type": "address"
        },
        {
          "indexed": false,
          "internalType": "uint256",
          "name": "protocolId",
          "type": "uint256"
        },
        {
          "indexed": false,
          "internalType": "address",
          "name": "underlying",
          "type": "address"
        },
        {
          "indexed": false,
          "internalType": "address",
          "name": "wrapper",
          "type": "address"
        }
      ],
      "name": "TokenAdapterAdded",
      "type": "event"
    },
    {
      "anonymous": false,
      "inputs": [
        {
          "indexed": false,
          "internalType": "address",
          "name": "adapter",
          "type": "address"
        },
        {
          "indexed": false,
          "internalType": "uint256",
          "name": "protocolId",
          "type": "uint256"
        },
        {
          "indexed": false,
          "internalType": "address",
          "name": "underlying",
          "type": "address"
        },
        {
          "indexed": false,
          "internalType": "address",
          "name": "wrapper",
          "type": "address"
        }
      ],
      "name": "TokenAdapterRemoved",
      "type": "event"
    },
    {
      "anonymous": false,
      "inputs": [
        {
          "indexed": false,
          "internalType": "address",
          "name": "underlying",
          "type": "address"
        }
      ],
      "name": "TokenSupportAdded",
      "type": "event"
    },
    {
      "anonymous": false,
      "inputs": [
        {
          "indexed": false,
          "internalType": "address",
          "name": "underlying",
          "type": "address"
        }
      ],
      "name": "TokenSupportRemoved",
      "type": "event"
    },
    {
      "anonymous": false,
      "inputs": [
        {
          "indexed": false,
          "internalType": "address",
          "name": "underlying",
          "type": "address"
        },
        {
          "indexed": false,
          "internalType": "address",
          "name": "vault",
          "type": "address"
        }
      ],
      "name": "VaultAdded",
      "type": "event"
    },
    {
      "anonymous": false,
      "inputs": [
        {
          "indexed": false,
          "internalType": "address",
          "name": "factory",
          "type": "address"
        }
      ],
      "name": "VaultFactoryAdded",
      "type": "event"
    },
    {
      "anonymous": false,
      "inputs": [
        {
          "indexed": false,
          "internalType": "address",
          "name": "factory",
          "type": "address"
        }
      ],
      "name": "VaultFactoryRemoved",
      "type": "event"
    },
    {
      "anonymous": false,
      "inputs": [
        {
          "indexed": false,
          "internalType": "address",
          "name": "underlying",
          "type": "address"
        },
        {
          "indexed": false,
          "internalType": "address",
          "name": "vault",
          "type": "address"
        }
      ],
      "name": "VaultRemoved",
      "type": "event"
    },
    {
      "inputs": [
        {
          "internalType": "address",
          "name": "protocolAdapter",
          "type": "address"
        }
      ],
      "name": "addProtocolAdapter",
      "outputs": [
        {
          "internalType": "uint256",
          "name": "id",
          "type": "uint256"
        }
      ],
      "stateMutability": "nonpayable",
      "type": "function"
    },
    {
      "inputs": [
        {
          "internalType": "address",
          "name": "adapter",
          "type": "address"
        }
      ],
      "name": "addTokenAdapter",
      "outputs": [],
      "stateMutability": "nonpayable",
      "type": "function"
    },
    {
      "inputs": [
        {
          "internalType": "address[]",
          "name": "adapters",
          "type": "address[]"
        }
      ],
      "name": "addTokenAdapters",
      "outputs": [],
      "stateMutability": "nonpayable",
      "type": "function"
    },
    {
      "inputs": [
        {
          "internalType": "address",
          "name": "vault",
          "type": "address"
        }
      ],
      "name": "addVault",
      "outputs": [],
      "stateMutability": "nonpayable",
      "type": "function"
    },
    {
      "inputs": [
        {
          "internalType": "address",
          "name": "_factory",
          "type": "address"
        }
      ],
      "name": "addVaultFactory",
      "outputs": [],
      "stateMutability": "nonpayable",
      "type": "function"
    },
    {
      "inputs": [
        {
          "internalType": "address",
          "name": "",
          "type": "address"
        }
      ],
      "name": "approvedVaultFactories",
      "outputs": [
        {
          "internalType": "bool",
          "name": "",
          "type": "bool"
        }
      ],
      "stateMutability": "view",
      "type": "function"
    },
    {
      "inputs": [
        {
          "internalType": "address",
          "name": "wrapperToken",
          "type": "address"
        }
      ],
      "name": "getAdapterForWrapperToken",
      "outputs": [
        {
          "internalType": "address",
          "name": "",
          "type": "address"
        }
      ],
      "stateMutability": "view",
      "type": "function"
    },
    {
      "inputs": [
        {
          "internalType": "address",
          "name": "underlying",
          "type": "address"
        }
      ],
      "name": "getAdapterWithHighestAPR",
      "outputs": [
        {
          "internalType": "address",
          "name": "adapter",
          "type": "address"
        },
        {
          "internalType": "uint256",
          "name": "apr",
          "type": "uint256"
        }
      ],
      "stateMutability": "view",
      "type": "function"
    },
    {
      "inputs": [
        {
          "internalType": "address",
          "name": "underlying",
          "type": "address"
        },
        {
          "internalType": "uint256",
          "name": "deposit",
          "type": "uint256"
        },
        {
          "internalType": "address",
          "name": "excludingAdapter",
          "type": "address"
        }
      ],
      "name": "getAdapterWithHighestAPRForDeposit",
      "outputs": [
        {
          "internalType": "address",
          "name": "adapter",
          "type": "address"
        },
        {
          "internalType": "uint256",
          "name": "apr",
          "type": "uint256"
        }
      ],
      "stateMutability": "view",
      "type": "function"
    },
    {
      "inputs": [
        {
          "internalType": "address",
          "name": "underlying",
          "type": "address"
        }
      ],
      "name": "getAdaptersCount",
      "outputs": [
        {
          "internalType": "uint256",
          "name": "",
          "type": "uint256"
        }
      ],
      "stateMutability": "view",
      "type": "function"
    },
    {
      "inputs": [
        {
          "internalType": "address",
          "name": "underlying",
          "type": "address"
        }
      ],
      "name": "getAdaptersList",
      "outputs": [
        {
          "internalType": "address[]",
          "name": "list",
          "type": "address[]"
        }
      ],
      "stateMutability": "view",
      "type": "function"
    },
    {
      "inputs": [
        {
          "internalType": "address",
          "name": "underlying",
          "type": "address"
        }
      ],
      "name": "getAdaptersSortedByAPR",
      "outputs": [
        {
          "internalType": "address[]",
          "name": "adapters",
          "type": "address[]"
        },
        {
          "internalType": "uint256[]",
          "name": "aprs",
          "type": "uint256[]"
        }
      ],
      "stateMutability": "view",
      "type": "function"
    },
    {
      "inputs": [
        {
          "internalType": "address",
          "name": "underlying",
          "type": "address"
        },
        {
          "internalType": "uint256",
          "name": "deposit",
          "type": "uint256"
        },
        {
          "internalType": "address",
          "name": "excludingAdapter",
          "type": "address"
        }
      ],
      "name": "getAdaptersSortedByAPRWithDeposit",
      "outputs": [
        {
          "internalType": "address[]",
          "name": "adapters",
          "type": "address[]"
        },
        {
          "internalType": "uint256[]",
          "name": "aprs",
          "type": "uint256[]"
        }
      ],
      "stateMutability": "view",
      "type": "function"
    },
    {
      "inputs": [],
      "name": "getProtocolAdaptersAndIds",
      "outputs": [
        {
          "internalType": "address[]",
          "name": "adapters",
          "type": "address[]"
        },
        {
          "internalType": "uint256[]",
          "name": "ids",
          "type": "uint256[]"
        }
      ],
      "stateMutability": "view",
      "type": "function"
    },
    {
      "inputs": [
        {
          "internalType": "address",
          "name": "adapter",
          "type": "address"
        }
      ],
      "name": "getProtocolForTokenAdapter",
      "outputs": [
        {
          "internalType": "address",
          "name": "protocolAdapter",
          "type": "address"
        }
      ],
      "stateMutability": "view",
      "type": "function"
    },
    {
      "inputs": [
        {
          "internalType": "uint256",
          "name": "id",
          "type": "uint256"
        }
      ],
      "name": "getProtocolMetadata",
      "outputs": [
        {
          "internalType": "address",
          "name": "protocolAdapter",
          "type": "address"
        },
        {
          "internalType": "string",
          "name": "name",
          "type": "string"
        }
      ],
      "stateMutability": "view",
      "type": "function"
    },
    {
      "inputs": [],
      "name": "getSupportedTokens",
      "outputs": [
        {
          "internalType": "address[]",
          "name": "list",
          "type": "address[]"
        }
      ],
      "stateMutability": "view",
      "type": "function"
    },
    {
      "inputs": [],
      "name": "getVaultsList",
      "outputs": [
        {
          "internalType": "address[]",
          "name": "",
          "type": "address[]"
        }
      ],
      "stateMutability": "view",
      "type": "function"
    },
    {
      "inputs": [
        {
          "internalType": "address",
          "name": "underlying",
          "type": "address"
        }
      ],
      "name": "haveVaultFor",
      "outputs": [
        {
          "internalType": "bool",
          "name": "",
          "type": "bool"
        }
      ],
      "stateMutability": "view",
      "type": "function"
    },
    {
      "inputs": [
        {
          "internalType": "address",
          "name": "adapter",
          "type": "address"
        }
      ],
      "name": "isApprovedAdapter",
      "outputs": [
        {
          "internalType": "bool",
          "name": "",
          "type": "bool"
        }
      ],
      "stateMutability": "view",
      "type": "function"
    },
    {
      "inputs": [
        {
          "internalType": "address",
          "name": "underlying",
          "type": "address"
        }
      ],
      "name": "isSupported",
      "outputs": [
        {
          "internalType": "bool",
          "name": "",
          "type": "bool"
        }
      ],
      "stateMutability": "view",
      "type": "function"
    },
    {
      "inputs": [],
      "name": "owner",
      "outputs": [
        {
          "internalType": "address",
          "name": "",
          "type": "address"
        }
      ],
      "stateMutability": "view",
      "type": "function"
    },
    {
      "inputs": [
        {
          "internalType": "address",
          "name": "",
          "type": "address"
        }
      ],
      "name": "protocolAdapterIds",
      "outputs": [
        {
          "internalType": "uint256",
          "name": "",
          "type": "uint256"
        }
      ],
      "stateMutability": "view",
      "type": "function"
    },
    {
      "inputs": [
        {
          "internalType": "uint256",
          "name": "",
          "type": "uint256"
        }
      ],
      "name": "protocolAdapters",
      "outputs": [
        {
          "internalType": "address",
          "name": "",
          "type": "address"
        }
      ],
      "stateMutability": "view",
      "type": "function"
    },
    {
      "inputs": [],
      "name": "protocolsCount",
      "outputs": [
        {
          "internalType": "uint256",
          "name": "",
          "type": "uint256"
        }
      ],
      "stateMutability": "view",
      "type": "function"
    },
    {
      "inputs": [
        {
          "internalType": "address",
          "name": "protocolAdapter",
          "type": "address"
        }
      ],
      "name": "removeProtocolAdapter",
      "outputs": [],
      "stateMutability": "nonpayable",
      "type": "function"
    },
    {
      "inputs": [
        {
          "internalType": "address",
          "name": "adapter",
          "type": "address"
        }
      ],
      "name": "removeTokenAdapter",
      "outputs": [],
      "stateMutability": "nonpayable",
      "type": "function"
    },
    {
      "inputs": [
        {
          "internalType": "address",
          "name": "vault",
          "type": "address"
        }
      ],
      "name": "removeVault",
      "outputs": [],
      "stateMutability": "nonpayable",
      "type": "function"
    },
    {
      "inputs": [
        {
          "internalType": "address",
          "name": "_factory",
          "type": "address"
        }
      ],
      "name": "removeVaultFactory",
      "outputs": [],
      "stateMutability": "nonpayable",
      "type": "function"
    },
    {
      "inputs": [],
      "name": "renounceOwnership",
      "outputs": [],
      "stateMutability": "nonpayable",
      "type": "function"
    },
    {
      "inputs": [
        {
          "internalType": "address",
          "name": "newOwner",
          "type": "address"
        }
      ],
      "name": "transferOwnership",
      "outputs": [],
      "stateMutability": "nonpayable",
      "type": "function"
    },
    {
      "inputs": [
        {
          "internalType": "address",
          "name": "",
          "type": "address"
        }
      ],
      "name": "vaultsByUnderlying",
      "outputs": [
        {
          "internalType": "address",
          "name": "",
          "type": "address"
        }
      ],
      "stateMutability": "view",
      "type": "function"
    }
  ],
  "transactionHash": "0xf7587a41e1fda5fdf3e9360f85cea638805a69f1d1ab79711ce85181892242f4",
  "args": [],
  "solcInputHash": "9bffdedaeba4603e348d0b7b645d9a82",
  "bytecode": "0x608060405234801561001057600080fd5b50600061001b61006a565b600080546001600160a01b0319166001600160a01b0383169081178255604051929350917f8be0079c531659141344cd1fd0a4f28419497f9722a3daafe3b4186f6b6457e0908290a35061006e565b3390565b6127558061007d6000396000f3fe608060405234801561001057600080fd5b50600436106101f05760003560e01c8063715018a61161010f578063c29b2686116100a2578063e1e758eb11610071578063e1e758eb14610799578063f2fde38b146107bf578063f6fb74ff146107e5578063ff46d01b1461080b576101f0565b8063c29b26861461071f578063ceb68c2314610745578063d3c7c2c71461076b578063d54e5e4f14610773576101f0565b80638da5cb5b116100de5780638da5cb5b146106a557806396004d82146106ad578063a6aa3ba0146106d3578063b90e34da146106f9576101f0565b8063715018a614610649578063728d31041461065157806378a192f514610659578063887a3ef81461067f576101f0565b80633be4c7fd1161018757806352e900c51161015657806352e900c51461045757806362db2dfc146105265780636b776e2f146105cb5780636edb4728146105f1576101f0565b80633be4c7fd146103805780633eab4c02146103f0578063440d44df146103f85780634f129c5314610431576101f0565b806328e25244116101c357806328e25244146102d657806329f16a0b1461030e5780632c833290146103345780632dc5b1ea1461035a576101f0565b8063016d6950146101f55780630513247b1461022f578063232bacd714610257578063256b5a02146102b0575b600080fd5b61021b6004803603602081101561020b57600080fd5b50356001600160a01b0316610831565b604080519115158252519081900360200190f35b6102556004803603602081101561024557600080fd5b50356001600160a01b0316610854565b005b61028d6004803603606081101561026d57600080fd5b506001600160a01b03813581169160208101359160409091013516610979565b604080516001600160a01b03909316835260208301919091528051918290030190f35b610255600480360360208110156102c657600080fd5b50356001600160a01b03166109c6565b6102fc600480360360208110156102ec57600080fd5b50356001600160a01b0316610b59565b60408051918252519081900360200190f35b6102fc6004803603602081101561032457600080fd5b50356001600160a01b0316610b74565b61021b6004803603602081101561034a57600080fd5b50356001600160a01b0316610d00565b6102fc6004803603602081101561037057600080fd5b50356001600160a01b0316610d15565b6102556004803603602081101561039657600080fd5b8101906020810181356401000000008111156103b157600080fd5b8201836020820111156103c357600080fd5b803590602001918460208302840111640100000000831117156103e557600080fd5b509092509050610d27565b6102fc610d7a565b6104156004803603602081101561040e57600080fd5b5035610d80565b604080516001600160a01b039092168252519081900360200190f35b61021b6004803603602081101561044757600080fd5b50356001600160a01b0316610d9b565b61048d6004803603606081101561046d57600080fd5b506001600160a01b03813581169160208101359160409091013516610db8565b604051808060200180602001838103835285818151815260200191508051906020019060200280838360005b838110156104d15781810151838201526020016104b9565b50505050905001838103825284818151815260200191508051906020019060200280838360005b838110156105105781810151838201526020016104f8565b5050505090500194505050505060405180910390f35b6105436004803603602081101561053c57600080fd5b5035610faf565b60405180836001600160a01b0316815260200180602001828103825283818151815260200191508051906020019080838360005b8381101561058f578181015183820152602001610577565b50505050905090810190601f1680156105bc5780820380516001836020036101000a031916815260200191505b50935050505060405180910390f35b61028d600480360360208110156105e157600080fd5b50356001600160a01b0316611148565b6105f9611190565b60408051602080825283518183015283519192839290830191858101910280838360005b8381101561063557818101518382015260200161061d565b505050509050019250505060405180910390f35b6102556111a1565b61048d61125f565b6102556004803603602081101561066f57600080fd5b50356001600160a01b03166112c8565b6104156004803603602081101561069557600080fd5b50356001600160a01b03166113b5565b6104156114de565b610255600480360360208110156106c357600080fd5b50356001600160a01b03166114ed565b610255600480360360208110156106e957600080fd5b50356001600160a01b0316611685565b61021b6004803603602081101561070f57600080fd5b50356001600160a01b03166119eb565b61048d6004803603602081101561073557600080fd5b50356001600160a01b0316611aa8565b6102556004803603602081101561075b57600080fd5b50356001600160a01b0316611bd0565b6105f9611d7f565b6104156004803603602081101561078957600080fd5b50356001600160a01b0316611d8b565b6105f9600480360360208110156107af57600080fd5b50356001600160a01b0316611da9565b610255600480360360208110156107d557600080fd5b50356001600160a01b0316611e1f565b610415600480360360208110156107fb57600080fd5b50356001600160a01b0316611f33565b6102556004803603602081101561082157600080fd5b50356001600160a01b0316611f4e565b6001600160a01b038181166000908152600160205260409020541615155b919050565b61085c611f69565b6001600160a01b031661086d6114de565b6001600160a01b0316146108c8576040805162461bcd60e51b815260206004820181905260248201527f4f776e61626c653a2063616c6c6572206973206e6f7420746865206f776e6572604482015290519081900360640190fd5b6001600160a01b03811660009081526002602052604090205460ff16610921576040805162461bcd60e51b815260206004820152600960248201526808585c1c1c9bdd995960ba1b604482015290519081900360640190fd5b6001600160a01b038116600081815260026020908152604091829020805460ff19169055815192835290517f040b321f0ccd1b9d7890282c99da1d97cbf2de30c3af0782aba31fbd952832439281900390910190a150565b60008060008061098a878787610db8565b915091508160008151811061099b57fe5b60200260200101519350806000815181106109b257fe5b602002602001015192505050935093915050565b3360009081526002602052604090205460ff16610a16576040805162461bcd60e51b815260206004820152600960248201526808585c1c1c9bdd995960ba1b604482015290519081900360640190fd5b6000816001600160a01b0316636f307dc36040518163ffffffff1660e01b815260040160206040518083038186803b158015610a5157600080fd5b505afa158015610a65573d6000803e3d6000fd5b505050506040513d6020811015610a7b57600080fd5b50516001600160a01b038082166000908152600160205260409020549192501615610ad6576040805162461bcd60e51b815260206004820152600660248201526565786973747360d01b604482015290519081900360640190fd5b6001600160a01b03818116600090815260016020526040902080546001600160a01b031916918416919091179055610b0f600383611f6d565b50604080516001600160a01b0380841682528416602082015281517f2f0697414292d16e25e419060ebbb3a3318648280380829ca42af307b155393b929181900390910190a15050565b6001600160a01b031660009081526008602052604090205490565b33600090815260076020526040812054151580610ba95750610b946114de565b6001600160a01b0316336001600160a01b0316145b610be6576040805162461bcd60e51b815260206004820152600960248201526808585c1c1c9bdd995960ba1b604482015290519081900360640190fd5b6001600160a01b038216610c2a576040805162461bcd60e51b815260206004808301919091526024820152631b9d5b1b60e21b604482015290519081900360640190fd5b6001600160a01b03821660009081526007602052604090205415610c7e576040805162461bcd60e51b815260206004820152600660248201526565786973747360d01b604482015290519081900360640190fd5b5060058054600101908190556001600160a01b0382166000818152600760209081526040808320859055848352600682529182902080546001600160a01b0319168417905581518481529081019290925280517f71f685a16b87e0313c89e4b8cdd720b2b9f03bf7d7adf30781164955703ad55b9281900390910190a1919050565b60026020526000908152604090205460ff1681565b60076020526000908152604090205481565b6000610d3233611f8b565b90508160005b81811015610d73576000858583818110610d4e57fe5b905060200201356001600160a01b03169050610d6a8185611fe0565b50600101610d38565b5050505050565b60055481565b6006602052600090815260409020546001600160a01b031681565b6001600160a01b0316600090815260086020526040902054151590565b606080610dc485611da9565b80519092508067ffffffffffffffff81118015610de057600080fd5b50604051908082528060200260200182016040528015610e0a578160200160208202803683370190505b50915060005b81811015610f9b576000848281518110610e2657fe5b60200260200101519050856001600160a01b0316816001600160a01b03161415610eeb57806001600160a01b031663c89d5b8b6040518163ffffffff1660e01b815260040160206040518083038186803b158015610e8357600080fd5b505afa925050508015610ea857506040513d6020811015610ea357600080fd5b505160015b610ecb576000848381518110610eba57fe5b602002602001018181525050610ee6565b80858481518110610ed857fe5b602002602001018181525050505b610f92565b806001600160a01b031663d31c9c29886040518263ffffffff1660e01b81526004018082815260200191505060206040518083038186803b158015610f2f57600080fd5b505afa925050508015610f5457506040513d6020811015610f4f57600080fd5b505160015b610f77576000848381518110610f6657fe5b602002602001018181525050610f92565b80858481518110610f8457fe5b602002602001018181525050505b50600101610e10565b50610fa68383612278565b50935093915050565b6000818152600660205260409020546001600160a01b031660608161101b576040805162461bcd60e51b815260206004820152600a60248201527f696e76616c696420696400000000000000000000000000000000000000000000604482015290519081900360640190fd5b816001600160a01b0316638ce744266040518163ffffffff1660e01b815260040160006040518083038186803b15801561105457600080fd5b505afa158015611068573d6000803e3d6000fd5b505050506040513d6000823e601f3d908101601f19168201604052602081101561109157600080fd5b81019080805160405193929190846401000000008211156110b157600080fd5b9083019060208201858111156110c657600080fd5b82516401000000008111828201881017156110e057600080fd5b82525081516020918201929091019080838360005b8381101561110d5781810151838201526020016110f5565b50505050905090810190601f16801561113a5780820380516001836020036101000a031916815260200191505b506040525050509050915091565b60008060008061115785611aa8565b915091508160008151811061116857fe5b602002602001015193508060008151811061117f57fe5b602002602001015192505050915091565b606061119c60036123af565b905090565b6111a9611f69565b6001600160a01b03166111ba6114de565b6001600160a01b031614611215576040805162461bcd60e51b815260206004820181905260248201527f4f776e61626c653a2063616c6c6572206973206e6f7420746865206f776e6572604482015290519081900360640190fd5b600080546040516001600160a01b03909116907f8be0079c531659141344cd1fd0a4f28419497f9722a3daafe3b4186f6b6457e0908390a3600080546001600160a01b0319169055565b600554606090819061127081612409565b925061127b81612409565b915060015b8181116112c2576000818152600660205260409020546001600160a01b031680156112b9576112af8582612457565b6112b98483612457565b50600101611280565b50509091565b6112d0611f69565b6001600160a01b03166112e16114de565b6001600160a01b03161461133c576040805162461bcd60e51b815260206004820181905260248201527f4f776e61626c653a2063616c6c6572206973206e6f7420746865206f776e6572604482015290519081900360640190fd5b600061134782611f8b565b6001600160a01b0383166000908152600760209081526040808320839055838352600682529182902080546001600160a01b0319169055815183815291519293507f5c7b11df68bc0d197ddf6353cfe4de4df8a39c6dd5e36c7fddad9ec2b9d9c61c92918290030190a15050565b600080826001600160a01b031663fc0c546a6040518163ffffffff1660e01b815260040160206040518083038186803b1580156113f157600080fd5b505afa158015611405573d6000803e3d6000fd5b505050506040513d602081101561141b57600080fd5b50516001600160a01b03808216600090815260096020908152604091829020825180840190935254808416808452600160a01b9091046bffffffffffffffffffffffff169183019190915292935091908516146114ab576040805162461bcd60e51b815260206004820152600960248201526808585c1c1c9bdd995960ba1b604482015290519081900360640190fd5b6020908101516bffffffffffffffffffffffff166000908152600690915260409020546001600160a01b03169392505050565b6000546001600160a01b031690565b6114f5611f69565b6001600160a01b03166115066114de565b6001600160a01b031614611561576040805162461bcd60e51b815260206004820181905260248201527f4f776e61626c653a2063616c6c6572206973206e6f7420746865206f776e6572604482015290519081900360640190fd5b6001600160a01b0381166115bc576040805162461bcd60e51b815260206004820152600c60248201527f6e756c6c20616464726573730000000000000000000000000000000000000000604482015290519081900360640190fd5b6001600160a01b03811660009081526002602052604090205460ff161561162a576040805162461bcd60e51b815260206004820152601060248201527f616c726561647920617070726f76656400000000000000000000000000000000604482015290519081900360640190fd5b6001600160a01b038116600081815260026020908152604091829020805460ff19166001179055815192835290517fccfce3c9da81d855858a820abfab9b97cdd212a745e37a5b2e22b5c51e7639719281900390910190a150565b6000816001600160a01b031663fc0c546a6040518163ffffffff1660e01b815260040160206040518083038186803b1580156116c057600080fd5b505afa1580156116d4573d6000803e3d6000fd5b505050506040513d60208110156116ea57600080fd5b50516001600160a01b03808216600090815260096020908152604091829020825180840190935254808416808452600160a01b9091046bffffffffffffffffffffffff1691830191909152929350919084161461178e576040805162461bcd60e51b815260206004820152600d60248201527f77726f6e67206164617074657200000000000000000000000000000000000000604482015290519081900360640190fd5b60208101516bffffffffffffffffffffffff166117a96114de565b6001600160a01b0316336001600160a01b031614806117de57506000818152600660205260409020546001600160a01b031633145b61182f576040805162461bcd60e51b815260206004820152600b60248201527f21617574686f72697a6564000000000000000000000000000000000000000000604482015290519081900360640190fd5b6001600160a01b0380841660009081526009602090815260408083208390558051636f307dc360e01b815290519293881692636f307dc392600480840193919291829003018186803b15801561188457600080fd5b505afa158015611898573d6000803e3d6000fd5b505050506040513d60208110156118ae57600080fd5b50516001600160a01b0381166000908152600860209081526040808320805482518185028101850190935280835294955093611935928a9291869183018282801561192257602002820191906000526020600020905b81546001600160a01b03168152600190910190602001808311611904575b505050505061246c90919063ffffffff16565b90506119418282612507565b815461199057611952600a846125e5565b50604080516001600160a01b038516815290517f1cef54ca6e1745ad87fa3077491d9fc42257e9f1a2d7cad58a4e52bd14dfc6269181900360200190a15b604080516001600160a01b03808a16825260208201879052808616828401528816606082015290517f75df15a742a7404cdede62f71b28fd68db15a67d7c358acaf4f2c770c9bab0539181900360800190a150505050505050565b600080826001600160a01b031663fc0c546a6040518163ffffffff1660e01b815260040160206040518083038186803b158015611a2757600080fd5b505afa158015611a3b573d6000803e3d6000fd5b505050506040513d6020811015611a5157600080fd5b50516001600160a01b03908116600090815260096020908152604091829020825180840190935254808416808452600160a01b9091046bffffffffffffffffffffffff169290910191909152931690921492915050565b606080611ab483611da9565b80519092508067ffffffffffffffff81118015611ad057600080fd5b50604051908082528060200260200182016040528015611afa578160200160208202803683370190505b50915060005b81811015611bbf57838181518110611b1457fe5b60200260200101516001600160a01b031663c89d5b8b6040518163ffffffff1660e01b815260040160206040518083038186803b158015611b5457600080fd5b505afa925050508015611b7957506040513d6020811015611b7457600080fd5b505160015b611b9c576000838281518110611b8b57fe5b602002602001018181525050611bb7565b80848381518110611ba957fe5b602002602001018181525050505b600101611b00565b50611bca8383612278565b50915091565b611bd8611f69565b6001600160a01b0316611be96114de565b6001600160a01b031614611c44576040805162461bcd60e51b815260206004820181905260248201527f4f776e61626c653a2063616c6c6572206973206e6f7420746865206f776e6572604482015290519081900360640190fd5b6000816001600160a01b0316636f307dc36040518163ffffffff1660e01b815260040160206040518083038186803b158015611c7f57600080fd5b505afa158015611c93573d6000803e3d6000fd5b505050506040513d6020811015611ca957600080fd5b50516001600160a01b0380821660009081526001602052604090205491925016611d04576040805162461bcd60e51b81526020600482015260076024820152662165786973747360c81b604482015290519081900360640190fd5b6001600160a01b038116600090815260016020526040902080546001600160a01b0319169055611d356003836125e5565b50604080516001600160a01b0380841682528416602082015281517f395da61c7f5ffbcabe770aa45c9f22dd3a6ee925f912cce668d7058ea472bc2c929181900390910190a15050565b606061119c600a6123af565b6001600160a01b039081166000908152600960205260409020541690565b6001600160a01b038116600090815260086020908152604091829020805483518184028101840190945280845260609392830182828015611e1357602002820191906000526020600020905b81546001600160a01b03168152600190910190602001808311611df5575b50505050509050919050565b611e27611f69565b6001600160a01b0316611e386114de565b6001600160a01b031614611e93576040805162461bcd60e51b815260206004820181905260248201527f4f776e61626c653a2063616c6c6572206973206e6f7420746865206f776e6572604482015290519081900360640190fd5b6001600160a01b038116611ed85760405162461bcd60e51b81526004018080602001828103825260268152602001806127236026913960400191505060405180910390fd5b600080546040516001600160a01b03808516939216917f8be0079c531659141344cd1fd0a4f28419497f9722a3daafe3b4186f6b6457e091a3600080546001600160a01b0319166001600160a01b0392909216919091179055565b6001602052600090815260409020546001600160a01b031681565b6000611f5933611f8b565b9050611f658282611fe0565b5050565b3390565b6000611f82836001600160a01b0384166125fa565b90505b92915050565b6001600160a01b0381166000908152600760205260409020548061084f576040805162461bcd60e51b81526020600482015260076024820152662165786973747360c81b604482015290519081900360640190fd5b6000826001600160a01b0316636f307dc36040518163ffffffff1660e01b815260040160206040518083038186803b15801561201b57600080fd5b505afa15801561202f573d6000803e3d6000fd5b505050506040513d602081101561204557600080fd5b505160408051637e062a3560e11b815290519192506000916001600160a01b0386169163fc0c546a916004808301926020929190829003018186803b15801561208d57600080fd5b505afa1580156120a1573d6000803e3d6000fd5b505050506040513d60208110156120b757600080fd5b50516001600160a01b038116600090815260096020526040902054909150600160a01b90046bffffffffffffffffffffffff161561213c576040805162461bcd60e51b815260206004820152600e60248201527f6164617074657220657869737473000000000000000000000000000000000000604482015290519081900360640190fd5b6001600160a01b0382166000908152600860205260409020546121a257612164600a83611f6d565b50604080516001600160a01b038416815290517f8f50fda9bf5d3b403c53b7e91646abd507f8cebf2577655d55d7de3926168b179181900360200190a15b6001600160a01b03808316600081815260086020908152604080832080546001810182559084528284200180548a87166001600160a01b03199182168117909255825180840184528281526bffffffffffffffffffffffff808c168287019081528a8a168089526009885297869020925183549151909216600160a01b02918a16931692909217909716179095558051948552908401879052838101929092526060830152517f7974f1d75e805656844bd49cd0cc44a1f6a013ddd705892cdde9ecd1933ca2f19181900360800190a150505050565b815160005b818110156123a957600083828151811061229357fe5b6020026020010151905060008583815181106122ab57fe5b6020026020010151905060006001840390505b600081121580156122e15750828682815181106122d757fe5b6020026020010151105b15612359578581815181106122f257fe5b602002602001015186826001018151811061230957fe5b60200260200101818152505086818151811061232157fe5b602002602001015187826001018151811061233857fe5b6001600160a01b0390921660209283029190910190910152600019016122be565b8286826001018151811061236957fe5b6020026020010181815250508187826001018151811061238557fe5b6001600160a01b03929092166020928302919091019091015250505060010161227d565b50505050565b8054604080516020808402820181019092528281526060926000928591908301828280156123fc57602002820191906000526020600020905b8154815260200190600101908083116123e8575b5093979650505050505050565b60608167ffffffffffffffff8111801561242257600080fd5b5060405190808252806020026020018201604052801561244c578160200160208202803683370190505b506000815292915050565b81516020808202840101919091526001019052565b8151600090815b818110156124b957836001600160a01b031685828151811061249157fe5b60200260200101516001600160a01b031614156124b1579150611f859050565b600101612473565b506040805162461bcd60e51b815260206004820152601160248201527f656c656d656e74206e6f7420666f756e64000000000000000000000000000000604482015290519081900360640190fd5b81546000198101821415612547578280548061251f57fe5b600082815260209020810160001990810180546001600160a01b031916905501905550611f65565b600083600183038154811061255857fe5b9060005260206000200160009054906101000a90046001600160a01b031690508084848154811061258557fe5b9060005260206000200160006101000a8154816001600160a01b0302191690836001600160a01b03160217905550838054806125bd57fe5b600082815260209020810160001990810180546001600160a01b031916905501905550505050565b6000611f82836001600160a01b038416612644565b6000612606838361270a565b61263c57508154600181810184556000848152602080822090930184905584548482528286019093526040902091909155611f85565b506000611f85565b60008181526001830160205260408120548015612700578354600019808301919081019060009087908390811061267757fe5b906000526020600020015490508087600001848154811061269457fe5b6000918252602080832090910192909255828152600189810190925260409020908401905586548790806126c457fe5b60019003818190600052602060002001600090559055866001016000878152602001908152602001600020600090556001945050505050611f85565b6000915050611f85565b6000908152600191909101602052604090205415159056fe4f776e61626c653a206e6577206f776e657220697320746865207a65726f2061646472657373a164736f6c6343000706000a",
  "devdoc": {
    "kind": "dev",
    "methods": {
      "owner()": {
        "details": "Returns the address of the current owner."
      },
      "renounceOwnership()": {
        "details": "Leaves the contract without owner. It will not be possible to call `onlyOwner` functions anymore. Can only be called by the current owner. NOTE: Renouncing ownership will leave the contract without an owner, thereby removing any functionality that is only available to the owner."
      },
      "transferOwnership(address)": {
        "details": "Transfers ownership of the contract to a new account (`newOwner`). Can only be called by the current owner."
      }
    },
    "stateVariables": {
      "adaptersByWrapperToken": {
        "details": "Mapping from wrapper tokens to adapters. "
      },
      "approvedVaultFactories": {
        "details": "Accounts allowed to register vaults. "
      },
      "protocolAdapterIds": {
        "details": "Mapping from protocol adapter addresses to protocol IDs. "
      },
      "protocolAdapters": {
        "details": "Mapping from protocol IDs to adapter addresses. "
      },
      "protocolsCount": {
        "details": "Number of protocol adapters registered. "
      },
      "supportedTokens": {
        "details": "List of all underlying tokens with registered adapters. "
      },
      "tokenAdapters": {
        "details": "Mapping from underlying tokens to lists of adapters. "
      },
      "vaults": {
        "details": "List of all registered vaults. "
      },
      "vaultsByUnderlying": {
        "details": "Mapping from underlying token to registered vault. "
      }
    },
    "version": 1
  },
  "userdoc": {
    "kind": "user",
    "methods": {},
    "version": 1
  },
  "storageLayout": {
    "storage": [
      {
        "astId": 7,
        "contract": "contracts/AdapterRegistry.sol:AdapterRegistry",
        "label": "_owner",
        "offset": 0,
        "slot": "0",
        "type": "t_address"
      },
      {
        "astId": 1017,
        "contract": "contracts/AdapterRegistry.sol:AdapterRegistry",
        "label": "vaultsByUnderlying",
        "offset": 0,
        "slot": "1",
        "type": "t_mapping(t_address,t_address)"
      },
      {
        "astId": 1023,
        "contract": "contracts/AdapterRegistry.sol:AdapterRegistry",
        "label": "approvedVaultFactories",
        "offset": 0,
        "slot": "2",
        "type": "t_mapping(t_address,t_bool)"
      },
      {
        "astId": 1026,
        "contract": "contracts/AdapterRegistry.sol:AdapterRegistry",
        "label": "vaults",
        "offset": 0,
        "slot": "3",
        "type": "t_struct(AddressSet)763_storage"
      },
      {
        "astId": 1030,
        "contract": "contracts/AdapterRegistry.sol:AdapterRegistry",
        "label": "protocolsCount",
        "offset": 0,
        "slot": "5",
        "type": "t_uint256"
      },
      {
        "astId": 1036,
        "contract": "contracts/AdapterRegistry.sol:AdapterRegistry",
        "label": "protocolAdapters",
        "offset": 0,
        "slot": "6",
        "type": "t_mapping(t_uint256,t_address)"
      },
      {
        "astId": 1042,
        "contract": "contracts/AdapterRegistry.sol:AdapterRegistry",
        "label": "protocolAdapterIds",
        "offset": 0,
        "slot": "7",
        "type": "t_mapping(t_address,t_uint256)"
      },
      {
        "astId": 1048,
        "contract": "contracts/AdapterRegistry.sol:AdapterRegistry",
        "label": "tokenAdapters",
        "offset": 0,
        "slot": "8",
        "type": "t_mapping(t_address,t_array(t_address)dyn_storage)"
      },
      {
        "astId": 1053,
        "contract": "contracts/AdapterRegistry.sol:AdapterRegistry",
        "label": "adaptersByWrapperToken",
        "offset": 0,
        "slot": "9",
        "type": "t_mapping(t_address,t_struct(TokenAdapter)13008_storage)"
      },
      {
        "astId": 1056,
        "contract": "contracts/AdapterRegistry.sol:AdapterRegistry",
        "label": "supportedTokens",
        "offset": 0,
        "slot": "10",
        "type": "t_struct(AddressSet)763_storage"
      }
    ],
    "types": {
      "t_address": {
        "encoding": "inplace",
        "label": "address",
        "numberOfBytes": "20"
      },
      "t_array(t_address)dyn_storage": {
        "base": "t_address",
        "encoding": "dynamic_array",
        "label": "address[]",
        "numberOfBytes": "32"
      },
      "t_array(t_bytes32)dyn_storage": {
        "base": "t_bytes32",
        "encoding": "dynamic_array",
        "label": "bytes32[]",
        "numberOfBytes": "32"
      },
      "t_bool": {
        "encoding": "inplace",
        "label": "bool",
        "numberOfBytes": "1"
      },
      "t_bytes32": {
        "encoding": "inplace",
        "label": "bytes32",
        "numberOfBytes": "32"
      },
      "t_mapping(t_address,t_address)": {
        "encoding": "mapping",
        "key": "t_address",
        "label": "mapping(address => address)",
        "numberOfBytes": "32",
        "value": "t_address"
      },
      "t_mapping(t_address,t_array(t_address)dyn_storage)": {
        "encoding": "mapping",
        "key": "t_address",
        "label": "mapping(address => address[])",
        "numberOfBytes": "32",
        "value": "t_array(t_address)dyn_storage"
      },
      "t_mapping(t_address,t_bool)": {
        "encoding": "mapping",
        "key": "t_address",
        "label": "mapping(address => bool)",
        "numberOfBytes": "32",
        "value": "t_bool"
      },
      "t_mapping(t_address,t_struct(TokenAdapter)13008_storage)": {
        "encoding": "mapping",
        "key": "t_address",
        "label": "mapping(address => struct IAdapterRegistry.TokenAdapter)",
        "numberOfBytes": "32",
        "value": "t_struct(TokenAdapter)13008_storage"
      },
      "t_mapping(t_address,t_uint256)": {
        "encoding": "mapping",
        "key": "t_address",
        "label": "mapping(address => uint256)",
        "numberOfBytes": "32",
        "value": "t_uint256"
      },
      "t_mapping(t_bytes32,t_uint256)": {
        "encoding": "mapping",
        "key": "t_bytes32",
        "label": "mapping(bytes32 => uint256)",
        "numberOfBytes": "32",
        "value": "t_uint256"
      },
      "t_mapping(t_uint256,t_address)": {
        "encoding": "mapping",
        "key": "t_uint256",
        "label": "mapping(uint256 => address)",
        "numberOfBytes": "32",
        "value": "t_address"
      },
      "t_struct(AddressSet)763_storage": {
        "encoding": "inplace",
        "label": "struct EnumerableSet.AddressSet",
        "members": [
          {
            "astId": 762,
            "contract": "contracts/AdapterRegistry.sol:AdapterRegistry",
            "label": "_inner",
            "offset": 0,
            "slot": "0",
            "type": "t_struct(Set)498_storage"
          }
        ],
        "numberOfBytes": "64"
      },
      "t_struct(Set)498_storage": {
        "encoding": "inplace",
        "label": "struct EnumerableSet.Set",
        "members": [
          {
            "astId": 493,
            "contract": "contracts/AdapterRegistry.sol:AdapterRegistry",
            "label": "_values",
            "offset": 0,
            "slot": "0",
            "type": "t_array(t_bytes32)dyn_storage"
          },
          {
            "astId": 497,
            "contract": "contracts/AdapterRegistry.sol:AdapterRegistry",
            "label": "_indexes",
            "offset": 0,
            "slot": "1",
            "type": "t_mapping(t_bytes32,t_uint256)"
          }
        ],
        "numberOfBytes": "64"
      },
      "t_struct(TokenAdapter)13008_storage": {
        "encoding": "inplace",
        "label": "struct IAdapterRegistry.TokenAdapter",
        "members": [
          {
            "astId": 13005,
            "contract": "contracts/AdapterRegistry.sol:AdapterRegistry",
            "label": "adapter",
            "offset": 0,
            "slot": "0",
            "type": "t_address"
          },
          {
            "astId": 13007,
            "contract": "contracts/AdapterRegistry.sol:AdapterRegistry",
            "label": "protocolId",
            "offset": 20,
            "slot": "0",
            "type": "t_uint96"
          }
        ],
        "numberOfBytes": "32"
      },
      "t_uint256": {
        "encoding": "inplace",
        "label": "uint256",
        "numberOfBytes": "32"
      },
      "t_uint96": {
        "encoding": "inplace",
        "label": "uint96",
        "numberOfBytes": "12"
      }
    }
  }
}