{
  "address": "0xCA116AA63Fc652D2e2b24D0EC260Fa281A1dD4CA",
  "abi": [
    {
      "inputs": [
        {
          "internalType": "address",
          "name": "_registry",
          "type": "address"
        }
      ],
      "stateMutability": "nonpayable",
      "type": "constructor"
    },
    {
      "inputs": [
        {
          "internalType": "address[]",
          "name": "vaults",
          "type": "address[]"
        },
        {
          "internalType": "bytes[]",
          "name": "calldatas",
          "type": "bytes[]"
        }
      ],
      "name": "batchExecuteRebalance",
      "outputs": [],
      "stateMutability": "nonpayable",
      "type": "function"
    },
    {
      "inputs": [],
      "name": "registry",
      "outputs": [
        {
          "internalType": "contract IAdapterRegistry",
          "name": "",
          "type": "address"
        }
      ],
      "stateMutability": "view",
      "type": "function"
    }
  ],
  "transactionHash": "0x2c4aee78255a3bfd5b82072a89b6553a15036ed09a1b12f6fffcd0ac2153e792",
  "args": [
    "0x5F2945604013Ee9f80aE2eDDb384462B681859C4"
  ],
  "solcInputHash": "8ef4372f6a42b1fc2976b04a41fd0d3e",
  "bytecode": "0x60a060405234801561001057600080fd5b506040516107f83803806107f883398101604081905261002f91610044565b60601b6001600160601b031916608052610072565b600060208284031215610055578081fd5b81516001600160a01b038116811461006b578182fd5b9392505050565b60805160601c6107656100936000398060f2528061036f52506107656000f3fe608060405234801561001057600080fd5b50600436106100365760003560e01c80634cd135391461003b5780637b10399914610050575b600080fd5b61004e61004936600461046e565b61006e565b005b61005861036d565b604051610065919061058a565b60405180910390f35b3332146100965760405162461bcd60e51b815260040161008d90610676565b60405180910390fd5b828181146100b65760405162461bcd60e51b815260040161008d906105d1565b60005b818110156103655760008686838181106100cf57fe5b90506020020160208101906100e4919061042f565b9050806001600160a01b03167f00000000000000000000000000000000000000000000000000000000000000006001600160a01b031663f6fb74ff836001600160a01b0316636f307dc36040518163ffffffff1660e01b815260040160206040518083038186803b15801561015857600080fd5b505afa15801561016c573d6000803e3d6000fd5b505050506040513d601f19601f820116820180604052508101906101909190610452565b6040518263ffffffff1660e01b81526004016101ac919061058a565b60206040518083038186803b1580156101c457600080fd5b505afa1580156101d8573d6000803e3d6000fd5b505050506040513d601f19601f820116820180604052508101906101fc9190610452565b6001600160a01b0316146102225760405162461bcd60e51b815260040161008d90610694565b600085858481811061023057fe5b905060200281019061024291906106cb565b8080601f01602080910402602001604051908101604052809392919081815260200183838082843760009201919091525050506020820151919250506001600160e01b03198116631f5f0a8760e21b14806102ad57506001600160e01b031981166327f9b53f60e01b145b806102c857506001600160e01b03198116630755913960e51b145b6102e45760405162461bcd60e51b815260040161008d90610608565b600080846001600160a01b0316846040516102ff919061056e565b6000604051808303816000865af19150503d806000811461033c576040519150601f19603f3d011682016040523d82523d6000602084013e610341565b606091505b5091509150816103545761035481610391565b5050600190930192506100b9915050565b505050505050565b7f000000000000000000000000000000000000000000000000000000000000000081565b6044815110156103b35760405162461bcd60e51b815260040161008d9061063f565b600481019050808060200190518101906103cd91906104d7565b60405162461bcd60e51b815260040161008d919061059e565b60008083601f8401126103f7578081fd5b50813567ffffffffffffffff81111561040e578182fd5b602083019150836020808302850101111561042857600080fd5b9250929050565b600060208284031215610440578081fd5b813561044b81610740565b9392505050565b600060208284031215610463578081fd5b815161044b81610740565b60008060008060408587031215610483578283fd5b843567ffffffffffffffff8082111561049a578485fd5b6104a6888389016103e6565b909650945060208701359150808211156104be578384fd5b506104cb878288016103e6565b95989497509550505050565b6000602082840312156104e8578081fd5b815167ffffffffffffffff808211156104ff578283fd5b818401915084601f830112610512578283fd5b81518181111561051e57fe5b604051601f8201601f19168101602001838111828210171561053c57fe5b604052818152838201602001871015610553578485fd5b610564826020830160208701610710565b9695505050505050565b60008251610580818460208701610710565b9190910192915050565b6001600160a01b0391909116815260200190565b60006020825282518060208401526105bd816040850160208701610710565b601f01601f19169190910160400192915050565b6020808252600b908201527f626164206c656e67746873000000000000000000000000000000000000000000604082015260600190565b6020808252600e908201527f666e206e6f7420616c6c6f776564000000000000000000000000000000000000604082015260600190565b6020808252600d908201527f73696c656e742072657665727400000000000000000000000000000000000000604082015260600190565b60208082526004908201526321454f4160e01b604082015260600190565b60208082526009908201527f626164207661756c740000000000000000000000000000000000000000000000604082015260600190565b6000808335601e198436030181126106e1578283fd5b83018035915067ffffffffffffffff8211156106fb578283fd5b60200191503681900382131561042857600080fd5b60005b8381101561072b578181015183820152602001610713565b8381111561073a576000848401525b50505050565b6001600160a01b038116811461075557600080fd5b5056fea164736f6c6343000706000a",
  "devdoc": {
    "kind": "dev",
    "methods": {},
    "version": 1
  },
  "userdoc": {
    "kind": "user",
    "methods": {},
    "version": 1
  },
  "storageLayout": {
    "storage": [],
    "types": null
  }
}