{
  "address": "0x7f77389B868718B5351433d8031D49921cd72acE",
  "abi": [
    {
      "inputs": [
        {
          "internalType": "contract IAdapterRegistry",
          "name": "_registry",
          "type": "address"
        }
      ],
      "stateMutability": "nonpayable",
      "type": "constructor"
    },
    {
      "anonymous": false,
      "inputs": [
        {
          "indexed": false,
          "internalType": "address",
          "name": "adapter",
          "type": "address"
        }
      ],
      "name": "AdapterFrozen",
      "type": "event"
    },
    {
      "anonymous": false,
      "inputs": [
        {
          "indexed": false,
          "internalType": "address",
          "name": "adapter",
          "type": "address"
        }
      ],
      "name": "AdapterUnfrozen",
      "type": "event"
    },
    {
      "anonymous": false,
      "inputs": [
        {
          "indexed": false,
          "internalType": "address",
          "name": "token",
          "type": "address"
        }
      ],
      "name": "MarketFrozen",
      "type": "event"
    },
    {
      "anonymous": false,
      "inputs": [
        {
          "indexed": false,
          "internalType": "address",
          "name": "token",
          "type": "address"
        }
      ],
      "name": "MarketUnfrozen",
      "type": "event"
    },
    {
      "inputs": [],
      "name": "comptroller",
      "outputs": [
        {
          "internalType": "contract IComptroller",
          "name": "",
          "type": "address"
        }
      ],
      "stateMutability": "view",
      "type": "function"
    },
    {
      "inputs": [],
      "name": "erc20AdapterImplementation",
      "outputs": [
        {
          "internalType": "address",
          "name": "",
          "type": "address"
        }
      ],
      "stateMutability": "view",
      "type": "function"
    },
    {
      "inputs": [],
      "name": "erc20AdapterImplementationV1",
      "outputs": [
        {
          "internalType": "address",
          "name": "",
          "type": "address"
        }
      ],
      "stateMutability": "view",
      "type": "function"
    },
    {
      "inputs": [],
      "name": "etherAdapterImplementation",
      "outputs": [
        {
          "internalType": "address",
          "name": "",
          "type": "address"
        }
      ],
      "stateMutability": "view",
      "type": "function"
    },
    {
      "inputs": [
        {
          "internalType": "address",
          "name": "adapter",
          "type": "address"
        }
      ],
      "name": "freezeAdapter",
      "outputs": [],
      "stateMutability": "nonpayable",
      "type": "function"
    },
    {
      "inputs": [
        {
          "internalType": "uint256",
          "name": "",
          "type": "uint256"
        }
      ],
      "name": "frozenAdapters",
      "outputs": [
        {
          "internalType": "address",
          "name": "",
          "type": "address"
        }
      ],
      "stateMutability": "view",
      "type": "function"
    },
    {
      "inputs": [
        {
          "internalType": "uint256",
          "name": "",
          "type": "uint256"
        }
      ],
      "name": "frozenTokens",
      "outputs": [
        {
          "internalType": "address",
          "name": "",
          "type": "address"
        }
      ],
      "stateMutability": "view",
      "type": "function"
    },
    {
      "inputs": [],
      "name": "getFrozenAdapters",
      "outputs": [
        {
          "internalType": "address[]",
          "name": "tokens",
          "type": "address[]"
        }
      ],
      "stateMutability": "view",
      "type": "function"
    },
    {
      "inputs": [],
      "name": "getFrozenTokens",
      "outputs": [
        {
          "internalType": "address[]",
          "name": "tokens",
          "type": "address[]"
        }
      ],
      "stateMutability": "view",
      "type": "function"
    },
    {
      "inputs": [],
      "name": "getUnmapped",
      "outputs": [
        {
          "internalType": "address[]",
          "name": "cTokens",
          "type": "address[]"
        }
      ],
      "stateMutability": "view",
      "type": "function"
    },
    {
      "inputs": [
        {
          "internalType": "uint256",
          "name": "max",
          "type": "uint256"
        }
      ],
      "name": "getUnmappedUpTo",
      "outputs": [
        {
          "internalType": "address[]",
          "name": "tokens",
          "type": "address[]"
        }
      ],
      "stateMutability": "view",
      "type": "function"
    },
    {
      "inputs": [],
      "name": "interestRateModelV1",
      "outputs": [
        {
          "internalType": "address",
          "name": "",
          "type": "address"
        }
      ],
      "stateMutability": "view",
      "type": "function"
    },
    {
      "inputs": [
        {
          "internalType": "uint256",
          "name": "max",
          "type": "uint256"
        }
      ],
      "name": "map",
      "outputs": [],
      "stateMutability": "nonpayable",
      "type": "function"
    },
    {
      "inputs": [],
      "name": "protocol",
      "outputs": [
        {
          "internalType": "string",
          "name": "",
          "type": "string"
        }
      ],
      "stateMutability": "pure",
      "type": "function"
    },
    {
      "inputs": [],
      "name": "registry",
      "outputs": [
        {
          "internalType": "contract IAdapterRegistry",
          "name": "",
          "type": "address"
        }
      ],
      "stateMutability": "view",
      "type": "function"
    },
    {
      "inputs": [],
      "name": "totalMapped",
      "outputs": [
        {
          "internalType": "uint256",
          "name": "",
          "type": "uint256"
        }
      ],
      "stateMutability": "view",
      "type": "function"
    },
    {
      "inputs": [
        {
          "internalType": "uint256",
          "name": "index",
          "type": "uint256"
        }
      ],
      "name": "unfreezeAdapter",
      "outputs": [],
      "stateMutability": "nonpayable",
      "type": "function"
    },
    {
      "inputs": [
        {
          "internalType": "uint256",
          "name": "index",
          "type": "uint256"
        }
      ],
      "name": "unfreezeToken",
      "outputs": [],
      "stateMutability": "nonpayable",
      "type": "function"
    },
    {
      "inputs": [],
      "name": "weth",
      "outputs": [
        {
          "internalType": "address",
          "name": "",
          "type": "address"
        }
      ],
      "stateMutability": "view",
      "type": "function"
    }
  ],
  "transactionHash": "0x755814c6b13c9523b401ac71e10af9b943cf951c99b12ed7a96ab324c430183b",
  "args": [
    "0x5F2945604013Ee9f80aE2eDDb384462B681859C4"
  ],
  "solcInputHash": "15c5eb146eed5e149f0fa39b934f8cde",
  "bytecode": "0x6101006040523480156200001257600080fd5b5060405162008fd738038062008fd783398101604081905262000035916200012c565b6001600160601b0319606082901b16608052604051620000559062000102565b604051809103906000f08015801562000072573d6000803e3d6000fd5b5060601b6001600160601b03191660a052604051620000919062000110565b604051809103906000f080158015620000ae573d6000803e3d6000fd5b5060601b6001600160601b03191660c052604051620000cd906200011e565b604051809103906000f080158015620000ea573d6000803e3d6000fd5b5060601b6001600160601b03191660e052506200015c565b612a8280620014f483390190565b612a738062003f7683390190565b6125ee80620069e983390190565b6000602082840312156200013e578081fd5b81516001600160a01b038116811462000155578182fd5b9392505050565b60805160601c60a05160601c60c05160601c60e05160601c611333620001c1600039806105445280610dbe52508061095f5280610ec752508061027c5280610e9552508061041452806104d1528061076b528061085a5280610a3752506113336000f3fe608060405234801561001057600080fd5b50600436106101515760003560e01c806399a16e61116100cd578063d1e08f3111610081578063dc51b6ac11610066578063dc51b6ac1461023f578063e31beb9a14610254578063f401f8a01461026757610151565b8063d1e08f3114610224578063dc3312241461022c57610151565b8063b8dda9c7116100b2578063b8dda9c7146101f6578063c961c58914610209578063c97764e51461021c57610151565b806399a16e61146101db578063b1245307146101ee57610151565b80635fe3b56711610124578063881b1bf411610109578063881b1bf4146101b65780638ce74426146101be578063990918fb146101d357610151565b80635fe3b567146101a65780637b103999146101ae57610151565b8063260316ee146101565780633fc8cef3146101745780634d0ceecb1461017c5780634d787ea914610191575b600080fd5b61015e61027a565b60405161016b91906111c9565b60405180910390f35b61015e61029e565b6101846102b6565b60405161016b91906111f7565b6101a461019f366004611199565b610376565b005b61015e6104b7565b61015e6104cf565b61015e6104f3565b6101c661050b565b60405161016b9190611244565b61015e610542565b6101846101e9366004611199565b610566565b610184610584565b6101a4610204366004611199565b6105e6565b6101a4610217366004611085565b6107d9565b6101846108fd565b61015e61095d565b61015e61023a366004611199565b610981565b6102476109ab565b60405161016b9190611305565b6101a4610262366004611199565b6109b1565b61015e610275366004611199565b610ad9565b7f000000000000000000000000000000000000000000000000000000000000000081565b73c02aaa39b223fe8d0a0e5c4f27ead9083c756cc281565b6060610349733d9819210a31b4961b30ef54be2aed79b9c9cd3b6001600160a01b031663b0772d0b6040518163ffffffff1660e01b815260040160006040518083038186803b15801561030857600080fd5b505afa15801561031c573d6000803e3d6000fd5b505050506040513d6000823e601f3d908101601f1916820160405261034491908101906110c4565b610ae9565b805160025491925090808214156103635760008352610371565b602081028301925080820383525b505090565b60006001828154811061038557fe5b6000918252602090912001546001600160a01b031690506103a581610aec565b156103cb5760405162461bcd60e51b81526004016103c290611297565b60405180910390fd5b6103d6600183610bfb565b60006103e182610cda565b6040517fff46d01b0000000000000000000000000000000000000000000000000000000081529091506001600160a01b037f0000000000000000000000000000000000000000000000000000000000000000169063ff46d01b906104499084906004016111c9565b600060405180830381600087803b15801561046357600080fd5b505af1158015610477573d6000803e3d6000fd5b505050507f9d70968988366484026d19fd2ed45ba53154e653af0d3b64a6e30fd1e59e9c02826040516104aa91906111c9565b60405180910390a1505050565b733d9819210a31b4961b30ef54be2aed79b9c9cd3b81565b7f000000000000000000000000000000000000000000000000000000000000000081565b73bae04cbf96391086dc643e842b517734e214d69881565b60408051808201909152600881527f436f6d706f756e64000000000000000000000000000000000000000000000000602082015290565b7f000000000000000000000000000000000000000000000000000000000000000081565b60606105706102b6565b9050818151111561057f578181525b919050565b606060008054806020026020016040519081016040528092919081815260200182805480156105dc57602002820191906000526020600020905b81546001600160a01b031681526001909101906020018083116105be575b5050505050905090565b60006105f182610566565b805190915060008167ffffffffffffffff8111801561060f57600080fd5b50604051908082528060200260200182016040528015610639578160200160208202803683370190505b5090506000805b8381101561073f57600085828151811061065657fe5b6020026020010151905061066981610aec565b156106f85760018054808201825560008290527fb10e2d527612073b26eecdfd717e6a320cf44b4afac2b0732d9fcbe2b7fa0cf60180546001600160a01b0319166001600160a01b0384161790556040519301927fb33cb2dd3d0d4f68fb707ddade8bd1e4c8ba3c3cf18274aff3968e86a0548da1906106ea9083906111c9565b60405180910390a150610737565b600061070382610cda565b905080858585038151811061071457fe5b60200260200101906001600160a01b031690816001600160a01b03168152505050505b600101610640565b50600280548401905580156107545780830382525b604051633be4c7fd60e01b81526001600160a01b037f00000000000000000000000000000000000000000000000000000000000000001690633be4c7fd906107a09085906004016111f7565b600060405180830381600087803b1580156107ba57600080fd5b505af11580156107ce573d6000803e3d6000fd5b505050505050505050565b6107e281610f5d565b6107fe5760405162461bcd60e51b81526004016103c2906112ce565b600080546001810182559080527f290decd9548b62a8d60345a988386fc84ba6bc95484008f6362f93160ef3e5630180546001600160a01b0319166001600160a01b038381169190911790915560405163053551dd60e51b81527f00000000000000000000000000000000000000000000000000000000000000009091169063a6aa3ba0906108919084906004016111c9565b600060405180830381600087803b1580156108ab57600080fd5b505af11580156108bf573d6000803e3d6000fd5b505050507fd40fc6dc0bc7f9e69f705b5e74dfd3623d55ea32890b826bd25584e5f0f03fcc816040516108f291906111c9565b60405180910390a150565b606060018054806020026020016040519081016040528092919081815260200182805480156105dc576020028201919060005260206000209081546001600160a01b031681526001909101906020018083116105be575050505050905090565b7f000000000000000000000000000000000000000000000000000000000000000081565b6000818154811061099157600080fd5b6000918252602090912001546001600160a01b0316905081565b60025481565b60008082815481106109bf57fe5b6000918252602090912001546001600160a01b031690506109df81610f5d565b156109fc5760405162461bcd60e51b81526004016103c290611297565b610a07600083610bfb565b6040517fff46d01b0000000000000000000000000000000000000000000000000000000081526001600160a01b037f0000000000000000000000000000000000000000000000000000000000000000169063ff46d01b90610a6c9084906004016111c9565b600060405180830381600087803b158015610a8657600080fd5b505af1158015610a9a573d6000803e3d6000fd5b505050507f2dac01b475b5c97016d30db596f912172f79a142dd507389304167f50f0173fb81604051610acd91906111c9565b60405180910390a15050565b6001818154811061099157600080fd5b90565b60405163731f0c2b60e01b8152600090733d9819210a31b4961b30ef54be2aed79b9c9cd3b9063731f0c2b90610b269085906004016111c9565b60206040518083038186803b158015610b3e57600080fd5b505afa158015610b52573d6000803e3d6000fd5b505050506040513d601f19601f82011682018060405250810190610b769190611179565b15610b835750600161057f565b816001600160a01b03166318160ddd6040518163ffffffff1660e01b815260040160206040518083038186803b158015610bbc57600080fd5b505afa158015610bd0573d6000803e3d6000fd5b505050506040513d601f19601f82011682018060405250810190610bf491906111b1565b1592915050565b81546000198101821415610c3b5782805480610c1357fe5b600082815260209020810160001990810180546001600160a01b031916905501905550610cd6565b6000836001830381548110610c4c57fe5b9060005260206000200160009054906101000a90046001600160a01b0316905080848481548110610c7957fe5b9060005260206000200160006101000a8154816001600160a01b0302191690836001600160a01b0316021790555083805480610cb157fe5b600082815260209020810160001990810180546001600160a01b031916905501905550505b5050565b600080826001600160a01b0316636f307dc36161a86040518263ffffffff1660e01b815260040160206040518083038187803b158015610d1957600080fd5b5086fa93505050508015610d4a575060408051601f3d908101601f19168201909252610d47918101906110a8565b60015b610d69575073c02aaa39b223fe8d0a0e5c4f27ead9083c756cc2610d94565b9050806001600160a01b038116610d925773c02aaa39b223fe8d0a0e5c4f27ead9083c756cc291505b505b6001600160a01b03811673c02aaa39b223fe8d0a0e5c4f27ead9083c756cc21415610df257610deb7f00000000000000000000000000000000000000000000000000000000000000006001600160a01b0316610fde565b9150610ef7565b73bae04cbf96391086dc643e842b517734e214d6986001600160a01b0316836001600160a01b031663f3fdb15a6040518163ffffffff1660e01b815260040160206040518083038186803b158015610e4957600080fd5b505afa158015610e5d573d6000803e3d6000fd5b505050506040513d601f19601f82011682018060405250810190610e8191906110a8565b6001600160a01b03161415610ec257610deb7f00000000000000000000000000000000000000000000000000000000000000006001600160a01b0316610fde565b610ef47f00000000000000000000000000000000000000000000000000000000000000006001600160a01b0316610fde565b91505b60405163485cc95560e01b81526001600160a01b0383169063485cc95590610f2590849087906004016111dd565b600060405180830381600087803b158015610f3f57600080fd5b505af1158015610f53573d6000803e3d6000fd5b5050505050919050565b6000610fd8826001600160a01b031663fc0c546a6040518163ffffffff1660e01b815260040160206040518083038186803b158015610f9b57600080fd5b505afa158015610faf573d6000803e3d6000fd5b505050506040513d601f19601f82011682018060405250810190610fd391906110a8565b610aec565b92915050565b600080610fea83610ffc565b90506037602082016000f09392505050565b6040805160488082526080820190925260609160208201818036833750507f3d602d80600a3d3981f3363d3d373d3d3d363d7300000000000000000000000060208301525060609290921b6034830152507f5af43d82803e903d91602b57fd5bf3000000000000000000000000000000000060488201526037815290565b805161057f8161130e565b600060208284031215611096578081fd5b81356110a18161130e565b9392505050565b6000602082840312156110b9578081fd5b81516110a18161130e565b600060208083850312156110d6578182fd5b825167ffffffffffffffff808211156110ed578384fd5b818501915085601f830112611100578384fd5b81518181111561110c57fe5b8381026040518582820101818110858211171561112557fe5b604052828152858101935084860182860187018a1015611143578788fd5b8795505b8386101561116c576111588161107a565b855260019590950194938601938601611147565b5098975050505050505050565b60006020828403121561118a578081fd5b815180151581146110a1578182fd5b6000602082840312156111aa578081fd5b5035919050565b6000602082840312156111c2578081fd5b5051919050565b6001600160a01b0391909116815260200190565b6001600160a01b0392831681529116602082015260400190565b6020808252825182820181905260009190848201906040850190845b818110156112385783516001600160a01b031683529284019291840191600101611213565b50909695505050505050565b6000602080835283518082850152825b8181101561127057858101830151858201604001528201611254565b818111156112815783604083870101525b50601f01601f1916929092016040019392505050565b60208082526013908201527f4d61726b6574207374696c6c2066726f7a656e00000000000000000000000000604082015260600190565b60208082526011908201527f4d61726b6574206e6f742066726f7a656e000000000000000000000000000000604082015260600190565b90815260200190565b6001600160a01b038116811461132357600080fd5b5056fea164736f6c6343000706000a608060405234801561001057600080fd5b50612a62806100206000396000f3fe608060405234801561001057600080fd5b50600436106101365760003560e01c806374375359116100b2578063c89d5b8b11610081578063d31c9c2911610066578063d31c9c2914610395578063e83dd2e0146103b2578063fc0c546a146103ba57610136565b8063c89d5b8b14610385578063cd01a64e1461038d57610136565b80637437535914610350578063853828b6146103585780638da876c914610360578063b6b55f251461036857610136565b80632e1a7d4d116101095780634e6f376d116100ee5780634e6f376d146102f257806365cdab3d1461030f5780636f307dc31461032c57610136565b80632e1a7d4d146102a5578063485cc955146102c257610136565b8063020c06731461013b57806306fdde03146101dc5780631071a29014610259578063282a050b14610288575b600080fd5b6101436103c2565b604051808060200180602001838103835285818151815260200191508051906020019060200280838360005b8381101561018757818101518382015260200161016f565b50505050905001838103825284818151815260200191508051906020019060200280838360005b838110156101c65781810151838201526020016101ae565b5050505090500194505050505060405180910390f35b6101e461058b565b6040805160208082528351818301528351919283929083019185019080838360005b8381101561021e578181015183820152602001610206565b50505050905090810190601f16801561024b5780820380516001836020036101000a031916815260200191505b509250505060405180910390f35b6102766004803603602081101561026f57600080fd5b5035610697565b60408051918252519081900360200190f35b6102766004803603602081101561029e57600080fd5b5035610702565b610276600480360360208110156102bb57600080fd5b503561073d565b6102f0600480360360408110156102d857600080fd5b506001600160a01b03813581169160200135166107bb565b005b6102766004803603602081101561030857600080fd5b50356108f3565b6102766004803603602081101561032557600080fd5b503561091d565b6103346109a4565b604080516001600160a01b039092168252519081900360200190f35b6102766109b3565b610276610a35565b610276610a4c565b6102766004803603602081101561037e57600080fd5b5035610acf565b610276610b60565b610276610bd4565b610276600480360360208110156103ab57600080fd5b5035610d77565b610276610df4565b610334610e3f565b60015460609081906001600160a01b03166000808080806103e286610e4e565b9398509196509450925090506000610404836103fe8787611157565b9061116d565b9050600061041787878787876000611182565b9050600061042589846111ea565b9050600080821161043757600161043a565b60025b60ff1690508067ffffffffffffffff8111801561045657600080fd5b50604051908082528060200260200182016040528015610480578160200160208202803683370190505b509b508067ffffffffffffffff8111801561049a57600080fd5b506040519080825280602002602001820160405280156104c4578160200160208202803683370190505b50600080548e51929d506001600160a01b0316918e91906104e157fe5b60200260200101906001600160a01b031690816001600160a01b031681525050828b60008151811061050f57fe5b6020908102919091010152811561057d5773c00e94cb662c3520282e6f5717214004a7f268888c60018151811061054257fe5b60200260200101906001600160a01b031690816001600160a01b031681525050818b60018151811061057057fe5b6020026020010181815250505b505050505050505050509091565b606061059561145d565b6000546105aa906001600160a01b0316611494565b6040516020018083805190602001908083835b602083106105dc5780518252601f1990920191602091820191016105bd565b6001836020036101000a03801982511681845116808217855250505050505090500180600160fd1b81525060010182805190602001908083835b602083106106355780518252601f199092019160209182019101610616565b6001836020036101000a038019825116818451168082178552505050505050905001807f204164617074657200000000000000000000000000000000000000000000000081525060080192505050604051602081830303815290604052905090565b60008082116106da576040805162461bcd60e51b815260206004820152600a6024820152690776974686472617720360b41b604482015290519081900360640190fd5b6106e3826116f1565b6000549091506106fd906001600160a01b031633846117ec565b919050565b600154600090670de0b6b3a76400009061072f90610728906001600160a01b0316611955565b8490611d4b565b8161073657fe5b0492915050565b6000808211610780576040805162461bcd60e51b815260206004820152600a6024820152690776974686472617720360b41b604482015290519081900360640190fd5b600154610798906001600160a01b0316333085611d73565b6107a182611ee5565b6000549091506106fd906001600160a01b031633836117ec565b6000546001600160a01b03161580156107dd57506001546001600160a01b0316155b61082e576040805162461bcd60e51b815260206004820152600b60248201527f696e697469616c697a6564000000000000000000000000000000000000000000604482015290519081900360640190fd5b6001600160a01b0382161580159061084e57506001600160a01b03811615155b61089f576040805162461bcd60e51b815260206004820152600b60248201527f6261642061646472657373000000000000000000000000000000000000000000604482015290519081900360640190fd5b600080546001600160a01b038085167fffffffffffffffffffffffff00000000000000000000000000000000000000009283161790925560018054928416929091169190911790556108ef612032565b5050565b60015460009061090b906001600160a01b0316611955565b61072f83670de0b6b3a7640000611d4b565b6000808211610960576040805162461bcd60e51b815260206004820152600a6024820152690776974686472617720360b41b604482015290519081900360640190fd5b600061096a6109b3565b9050828110610979578261097b565b805b9150610986826116f1565b5060005461099e906001600160a01b031633846117ec565b50919050565b6000546001600160a01b031681565b60008054600154604080516370a0823160e01b81526001600160a01b039283166004820152905191909216916370a08231916024808301926020929190829003018186803b158015610a0457600080fd5b505afa158015610a18573d6000803e3d6000fd5b505050506040513d6020811015610a2e57600080fd5b5051905090565b6000610a47610a42610df4565b61073d565b905090565b600154604080516370a0823160e01b81523360048201529051600092610a47926001600160a01b03909116916370a0823191602480820192602092909190829003018186803b158015610a9e57600080fd5b505afa158015610ab2573d6000803e3d6000fd5b505050506040513d6020811015610ac857600080fd5b5051610702565b6000808211610b25576040805162461bcd60e51b815260206004820152600960248201527f6465706f73697420300000000000000000000000000000000000000000000000604482015290519081900360640190fd5b600054610b3d906001600160a01b0316333085611d73565b610b4682612050565b6001549091506106fd906001600160a01b031633836117ec565b6001546000906001600160a01b03168180808080610b7d86610e4e565b9398509196509450925090506000610b99836103fe8787611157565b90506000610bac87878787876000611182565b90506000610bba89846111ea565b9050610bc68282611157565b995050505050505050505090565b6001546000906001600160a01b0316818080610bef84610e4e565b509195509350915060009050610c09826103fe8686611157565b9050610d56856001600160a01b0316638f840ddd6040518163ffffffff1660e01b815260040160206040518083038186803b158015610c4757600080fd5b505afa158015610c5b573d6000803e3d6000fd5b505050506040513d6020811015610c7157600080fd5b5051604080516308f7a6e360e31b815290516103fe916001600160a01b038a16916347bd371891600480820192602092909190829003018186803b158015610cb857600080fd5b505afa158015610ccc573d6000803e3d6000fd5b505050506040513d6020811015610ce257600080fd5b505160408051631d8e90d160e11b815290516001600160a01b038b1691633b1d21a2916004808301926020929190829003018186803b158015610d2457600080fd5b505afa158015610d38573d6000803e3d6000fd5b505050506040513d6020811015610d4e57600080fd5b505190611157565b50600154610d6d906001600160a01b0316826111ea565b9550505050505090565b6001546000906001600160a01b03168180808080610d9486610e4e565b9398509196509450925090506000610db0836103fe8787611157565b90506000610dc287878787878f611182565b90506000610dd989610dd4858e612197565b6111ea565b9050610de58282611157565b9b9a5050505050505050505050565b600154604080516370a0823160e01b815233600482015290516000926001600160a01b0316916370a08231916024808301926020929190829003018186803b158015610a0457600080fd5b6001546001600160a01b031681565b600080600080600080869050806001600160a01b031663f3fdb15a6040518163ffffffff1660e01b815260040160206040518083038186803b158015610e9357600080fd5b505afa158015610ea7573d6000803e3d6000fd5b505050506040513d6020811015610ebd57600080fd5b505160408051631d8e90d160e11b815290519197506001600160a01b03831691633b1d21a291600480820192602092909190829003018186803b158015610f0357600080fd5b505afa158015610f17573d6000803e3d6000fd5b505050506040513d6020811015610f2d57600080fd5b5051604080516308f7a6e360e31b815290519196506001600160a01b038316916347bd371891600480820192602092909190829003018186803b158015610f7357600080fd5b505afa158015610f87573d6000803e3d6000fd5b505050506040513d6020811015610f9d57600080fd5b505160408051638f840ddd60e01b815290519195506001600160a01b03831691638f840ddd91600480820192602092909190829003018186803b158015610fe357600080fd5b505afa158015610ff7573d6000803e3d6000fd5b505050506040513d602081101561100d57600080fd5b505160408051636c540baf60e01b815290519194506000916001600160a01b03841691636c540baf916004808301926020929190829003018186803b15801561105557600080fd5b505afa158015611069573d6000803e3d6000fd5b505050506040513d602081101561107f57600080fd5b5051604080516305cee64160e21b815290519192506001600160a01b0384169163173b990491600480820192602092909190829003018186803b1580156110c557600080fd5b505afa1580156110d9573d6000803e3d6000fd5b505050506040513d60208110156110ef57600080fd5b505192504381101561114c5743819003600061110d898989896121f8565b9050600061112461111e8385611d4b565b89612461565b90506111308882611157565b9750611146876111408884612461565b90611157565b96505050505b505091939590929450565b8082018281101561116757600080fd5b92915050565b60008282111561117c57600080fd5b50900390565b6000806111a9670de0b6b3a76400006111a3876103fe8a6111408d8a612197565b90611d4b565b905060006111b7878361247c565b905060006111c78a8a8a8a6121f8565b905060006111dd670de0b6b3a76400008861116d565b9050610de58282856124b6565b600080733d9819210a31b4961b30ef54be2aed79b9c9cd3b6001600160a01b0316637dc0d1d06040518163ffffffff1660e01b815260040160206040518083038186803b15801561123a57600080fd5b505afa15801561124e573d6000803e3d6000fd5b505050506040513d602081101561126457600080fd5b50516040805163fc57d4df60e01b81527370e36f6bf80a52b3b46b3af8e106cc0ed743e8e4600482015290519192506000916001600160a01b0384169163fc57d4df916024808301926020929190829003018186803b1580156112c657600080fd5b505afa1580156112da573d6000803e3d6000fd5b505050506040513d60208110156112f057600080fd5b50516040805163fc57d4df60e01b81526001600160a01b03888116600483015291519293506000929185169163fc57d4df91602480820192602092909190829003018186803b15801561134257600080fd5b505afa158015611356573d6000803e3d6000fd5b505050506040513d602081101561136c57600080fd5b5051905081158061137b575080155b1561138c5760009350505050611167565b600061142c836111a362201480733d9819210a31b4961b30ef54be2aed79b9c9cd3b6001600160a01b0316631d7b33d78c6040518263ffffffff1660e01b815260040180826001600160a01b0316815260200191505060206040518083038186803b1580156113fa57600080fd5b505afa15801561140e573d6000803e3d6000fd5b505050506040513d602081101561142457600080fd5b505190611d4b565b90506114388683611d4b565b61144a82670de0b6b3a7640000611d4b565b8161145157fe5b04979650505050505050565b60408051808201909152600881527f436f6d706f756e64000000000000000000000000000000000000000000000000602082015290565b60408051600481526024810182526020810180516001600160e01b03166395d89b4160e01b1781529151815160609360009384936001600160a01b03881693919290918291908083835b602083106114fd5780518252601f1990920191602091820191016114de565b6001836020036101000a038019825116818451168082178552505050505050905001915050600060405180830381855afa9150503d806000811461155d576040519150601f19603f3d011682016040523d82523d6000602084013e611562565b606091505b50915091508161159557604051806040016040528060078152602001662aa725a727aba760c91b815250925050506106fd565b805160201461166c578080602001905160208110156115b357600080fd5b81019080805160405193929190846401000000008211156115d357600080fd5b9083019060208201858111156115e857600080fd5b825164010000000081118282018810171561160257600080fd5b82525081516020918201929091019080838360005b8381101561162f578181015183820152602001611617565b50505050905090810190601f16801561165c5780820380516001836020036101000a031916815260200191505b50604052505050925050506106fd565b600081806020019051602081101561168357600080fd5b50519050806116b657604051806040016040528060078152602001662aa725a727aba760c91b81525093505050506106fd565b60006116c1826124d8565b60ff03905060008060088306116116d95760006116dc565b60015b60ff1660088304018452509195945050505050565b60006116fc826108f3565b600154909150611717906001600160a01b0316333084611d73565b6001546040805163852a12e360e01b81526004810185905290516001600160a01b039092169163852a12e3916024808201926020929091908290030181600087803b15801561176557600080fd5b505af1158015611779573d6000803e3d6000fd5b505050506040513d602081101561178f57600080fd5b5051156117e3576040805162461bcd60e51b815260206004820152601360248201527f4345726332303a204275726e206661696c656400000000000000000000000000604482015290519081900360640190fd5b6106fd336126c6565b604080516001600160a01b038481166024830152604480830185905283518084039091018152606490920183526020820180516001600160e01b031663a9059cbb60e01b1781529251825160009485949389169392918291908083835b602083106118685780518252601f199092019160209182019101611849565b6001836020036101000a0380198251168184511680821785525050505050509050019150506000604051808303816000865af19150503d80600081146118ca576040519150601f19603f3d011682016040523d82523d6000602084013e6118cf565b606091505b50915091508180156118fd5750805115806118fd57508080602001905160208110156118fa57600080fd5b50515b61194e576040805162461bcd60e51b815260206004820152600560248201527f54483a5354000000000000000000000000000000000000000000000000000000604482015290519081900360640190fd5b5050505050565b6000808290506000816001600160a01b0316636c540baf6040518163ffffffff1660e01b815260040160206040518083038186803b15801561199657600080fd5b505afa1580156119aa573d6000803e3d6000fd5b505050506040513d60208110156119c057600080fd5b50514303905080611a3a57816001600160a01b031663182df0f56040518163ffffffff1660e01b815260040160206040518083038186803b158015611a0457600080fd5b505afa158015611a18573d6000803e3d6000fd5b505050506040513d6020811015611a2e57600080fd5b505192506106fd915050565b6000826001600160a01b031663f3fdb15a6040518163ffffffff1660e01b815260040160206040518083038186803b158015611a7557600080fd5b505afa158015611a89573d6000803e3d6000fd5b505050506040513d6020811015611a9f57600080fd5b505160408051631d8e90d160e11b815290519192506000916001600160a01b03861691633b1d21a2916004808301926020929190829003018186803b158015611ae757600080fd5b505afa158015611afb573d6000803e3d6000fd5b505050506040513d6020811015611b1157600080fd5b5051604080516308f7a6e360e31b815290519192506000916001600160a01b038716916347bd3718916004808301926020929190829003018186803b158015611b5957600080fd5b505afa158015611b6d573d6000803e3d6000fd5b505050506040513d6020811015611b8357600080fd5b505160408051638f840ddd60e01b815290519192506000916001600160a01b03881691638f840ddd916004808301926020929190829003018186803b158015611bcb57600080fd5b505afa158015611bdf573d6000803e3d6000fd5b505050506040513d6020811015611bf557600080fd5b5051604080516305cee64160e21b815290519192506000916001600160a01b0389169163173b9904916004808301926020929190829003018186803b158015611c3d57600080fd5b505afa158015611c51573d6000803e3d6000fd5b505050506040513d6020811015611c6757600080fd5b505190508515611cb7576000611c7f868686866121f8565b90506000611c96611c90838a611d4b565b86612461565b9050611ca28582611157565b9450611cb2846111408584612461565b935050505b886001600160a01b03166318160ddd6040518163ffffffff1660e01b815260040160206040518083038186803b158015611cf057600080fd5b505afa158015611d04573d6000803e3d6000fd5b505050506040513d6020811015611d1a57600080fd5b5051611d36670de0b6b3a76400006111a3856103fe8989611157565b81611d3d57fe5b049998505050505050505050565b600082611d5a57506000611167565b5081810281838281611d6857fe5b041461116757600080fd5b604080516001600160a01b0385811660248301528481166044830152606480830185905283518084039091018152608490920183526020820180516001600160e01b03166323b872dd60e01b178152925182516000948594938a169392918291908083835b60208310611df75780518252601f199092019160209182019101611dd8565b6001836020036101000a0380198251168184511680821785525050505050509050019150506000604051808303816000865af19150503d8060008114611e59576040519150601f19603f3d011682016040523d82523d6000602084013e611e5e565b606091505b5091509150818015611e8c575080511580611e8c5750808060200190516020811015611e8957600080fd5b50515b611edd576040805162461bcd60e51b815260206004820152600660248201527f54483a5354460000000000000000000000000000000000000000000000000000604482015290519081900360640190fd5b505050505050565b6001546040805163db006a7560e01b81526004810184905290516000926001600160a01b03169163db006a7591602480830192602092919082900301818787803b158015611f3257600080fd5b505af1158015611f46573d6000803e3d6000fd5b505050506040513d6020811015611f5c57600080fd5b505115611fb0576040805162461bcd60e51b815260206004820152601360248201527f4345726332303a204275726e206661696c656400000000000000000000000000604482015290519081900360640190fd5b600054604080516370a0823160e01b815230600482015290516001600160a01b03909216916370a0823191602480820192602092909190829003018186803b158015611ffb57600080fd5b505afa15801561200f573d6000803e3d6000fd5b505050506040513d602081101561202557600080fd5b505190506106fd336126c6565b60015460005461204e916001600160a01b039182169116612873565b565b6001546040805163140e25ad60e31b81526004810184905290516000926001600160a01b031691829163a0712d689160248082019260209290919082900301818887803b1580156120a057600080fd5b505af11580156120b4573d6000803e3d6000fd5b505050506040513d60208110156120ca57600080fd5b50511561211e576040805162461bcd60e51b815260206004820152601360248201527f4345726332303a204d696e74206661696c656400000000000000000000000000604482015290519081900360640190fd5b604080516370a0823160e01b815230600482015290516001600160a01b038316916370a08231916024808301926020929190829003018186803b15801561216457600080fd5b505afa158015612178573d6000803e3d6000fd5b505050506040513d602081101561218e57600080fd5b50519392505050565b6000600160ff1b83106121a957600080fd5b82828101600084128015906121be5750818112155b806121d357506000841280156121d357508181125b6121dc57600080fd5b60008112156121f057600092505050611167565b949350505050565b604080516024810185905260448101849052606480820184905282518083039091018152608490910182526020810180516001600160e01b03166315f2405360e01b17815291518151600093849384936001600160a01b038b1693919290918291908083835b6020831061227d5780518252601f19909201916020918201910161225e565b6001836020036101000a038019825116818451168082178552505050505050905001915050600060405180830381855afa9150503d80600081146122dd576040519150601f19603f3d011682016040523d82523d6000602084013e6122e2565b606091505b5091509150816124355780806020019051602081101561230157600080fd5b810190808051604051939291908464010000000082111561232157600080fd5b90830190602082018581111561233657600080fd5b825164010000000081118282018810171561235057600080fd5b82525081516020918201929091019080838360005b8381101561237d578181015183820152602001612365565b50505050905090810190601f1680156123aa5780820380516001836020036101000a031916815260200191505b5060405250505060405162461bcd60e51b81526004018080602001828103825283818151815260200191508051906020019080838360005b838110156123fa5781810151838201526020016123e2565b50505050905090810190601f1680156124275780820380516001836020036101000a031916815260200191505b509250505060405180910390fd5b60408151106000811461244e5760208201519350612456565b604082015193505b505050949350505050565b60006124756124708484611d4b565b612880565b9392505050565b60008061249184670de0b6b3a7640000611d4b565b9050826124a682670de0b6b3a7640000611d4b565b816124ad57fe5b04949350505050565b6000806124c38585612891565b90506124cf8184612891565b95945050505050565b60008082116125185760405162461bcd60e51b815260040180806020018281038252602b815260200180612a2b602b913960400191505060405180910390fd5b7e818283848586878898a8b8c8d8e8f929395969799a9b9d9e9faaeb6bedeeff60008390038316810260f881901c9060fd1c6004811061260457600681106125af5780600614612588577ff8f9cbfae6cc78fbefe7cdc3a1793dfcf4f0e8bbd8cec470b6a28a7a5a3e1efd6125aa565b7ff5ecf1b3e9debc68e1d9cfabc5997135bfb7a7a3938b7b606b5b4b3f2f1f0ffe5b6125ff565b806004146125dd577ff6e4ed9ff2d6b458eadcdf97bd91692de2d4da8fd2d0ac50c6ae9a82725236166125ff565b7fc8c0b887b0a8a4489c948c7f847c6125746c645c544c444038302820181008ff5b6126ae565b60028110612660578060021461263a577ff7cae577eec2a03cf3bad76fb589591debb2dd67e0aa9834bea6925f6a4a2e0e6125ff565b7fe39ed557db96902cd38ed14fad815115c786af479b7e832473635343372717076126ae565b801561268c577fc976c13bb96e881cb166a933a55e490d9d56952b8d4e801485467d23624226066126ae565b7f753a6d1b65325d0c552a4d1345224105391a310b29122104190a1103090201005b60039290921b60f8169190911c60ff16949350505050565b604080516001808252818301909252600091602080830190803683375050604080516001808252818301909252929350600092915060208083019080368337019050509050828260008151811061271957fe5b6001600160a01b0392831660209182029290920101526001548251911690829060009061274257fe5b60200260200101906001600160a01b031690816001600160a01b031681525050733d9819210a31b4961b30ef54be2aed79b9c9cd3b6001600160a01b0316636810dfa68383600060016040518563ffffffff1660e01b815260040180806020018060200185151581526020018415158152602001838103835287818151815260200191508051906020019060200280838360005b838110156127ee5781810151838201526020016127d6565b50505050905001838103825286818151815260200191508051906020019060200280838360005b8381101561282d578181015183820152602001612815565b505050509050019650505050505050600060405180830381600087803b15801561285657600080fd5b505af115801561286a573d6000803e3d6000fd5b50505050505050565b6108ef82826000196128c8565b6000670de0b6b3a764000082610736565b60008061289e8484611d4b565b905060006128b46706f05b59d3b2000083611157565b670de0b6b3a7640000900495945050505050565b604080516001600160a01b038481166024830152604480830185905283518084039091018152606490920183526020820180516001600160e01b031663095ea7b360e01b1781529251825160009485949389169392918291908083835b602083106129445780518252601f199092019160209182019101612925565b6001836020036101000a0380198251168184511680821785525050505050509050019150506000604051808303816000865af19150503d80600081146129a6576040519150601f19603f3d011682016040523d82523d6000602084013e6129ab565b606091505b50915091508180156129d95750805115806129d957508080602001905160208110156129d657600080fd5b50515b61194e576040805162461bcd60e51b815260206004820152600560248201527f54483a5341000000000000000000000000000000000000000000000000000000604482015290519081900360640190fdfe426974733a3a6c6f776573744269745365743a2056616c7565203020686173206e6f206269747320736574a164736f6c6343000706000a608060405234801561001057600080fd5b50612a53806100206000396000f3fe608060405234801561001057600080fd5b50600436106101365760003560e01c806374375359116100b2578063c89d5b8b11610081578063d31c9c2911610066578063d31c9c2914610395578063e83dd2e0146103b2578063fc0c546a146103ba57610136565b8063c89d5b8b14610385578063cd01a64e1461038d57610136565b80637437535914610350578063853828b6146103585780638da876c914610360578063b6b55f251461036857610136565b80632e1a7d4d116101095780634e6f376d116100ee5780634e6f376d146102f257806365cdab3d1461030f5780636f307dc31461032c57610136565b80632e1a7d4d146102a5578063485cc955146102c257610136565b8063020c06731461013b57806306fdde03146101dc5780631071a29014610259578063282a050b14610288575b600080fd5b6101436103c2565b604051808060200180602001838103835285818151815260200191508051906020019060200280838360005b8381101561018757818101518382015260200161016f565b50505050905001838103825284818151815260200191508051906020019060200280838360005b838110156101c65781810151838201526020016101ae565b5050505090500194505050505060405180910390f35b6101e4610611565b6040805160208082528351818301528351919283929083019185019080838360005b8381101561021e578181015183820152602001610206565b50505050905090810190601f16801561024b5780820380516001836020036101000a031916815260200191505b509250505060405180910390f35b6102766004803603602081101561026f57600080fd5b503561071d565b60408051918252519081900360200190f35b6102766004803603602081101561029e57600080fd5b5035610788565b610276600480360360208110156102bb57600080fd5b50356107c3565b6102f0600480360360408110156102d857600080fd5b506001600160a01b0381358116916020013516610841565b005b6102766004803603602081101561030857600080fd5b5035610979565b6102766004803603602081101561032557600080fd5b50356109a3565b610334610a2a565b604080516001600160a01b039092168252519081900360200190f35b610276610a39565b610276610abb565b610276610ad2565b6102766004803603602081101561037e57600080fd5b5035610b55565b610276610be6565b610276610ca3565b610276600480360360208110156103ab57600080fd5b5035610e46565b610276610f14565b610334610f5f565b60015460609081906001600160a01b03166000808080806103e286610f6e565b9398509196509450925090506000610404836103fe878761126f565b90611285565b9050600061049d62201480886001600160a01b031663b8168816898989896040518563ffffffff1660e01b81526004018085815260200184815260200183815260200182815260200194505050505060206040518083038186803b15801561046b57600080fd5b505afa15801561047f573d6000803e3d6000fd5b505050506040513d602081101561049557600080fd5b50519061129a565b905060006104ab89846112c2565b905060008082116104bd5760016104c0565b60025b60ff1690508067ffffffffffffffff811180156104dc57600080fd5b50604051908082528060200260200182016040528015610506578160200160208202803683370190505b509b508067ffffffffffffffff8111801561052057600080fd5b5060405190808252806020026020018201604052801561054a578160200160208202803683370190505b50600080548e51929d506001600160a01b0316918e919061056757fe5b60200260200101906001600160a01b031690816001600160a01b031681525050828b60008151811061059557fe5b602090810291909101015281156106035773c00e94cb662c3520282e6f5717214004a7f268888c6001815181106105c857fe5b60200260200101906001600160a01b031690816001600160a01b031681525050818b6001815181106105f657fe5b6020026020010181815250505b505050505050505050509091565b606061061b611509565b600054610630906001600160a01b0316611540565b6040516020018083805190602001908083835b602083106106625780518252601f199092019160209182019101610643565b6001836020036101000a03801982511681845116808217855250505050505090500180600160fd1b81525060010182805190602001908083835b602083106106bb5780518252601f19909201916020918201910161069c565b6001836020036101000a038019825116818451168082178552505050505050905001807f204164617074657200000000000000000000000000000000000000000000000081525060080192505050604051602081830303815290604052905090565b6000808211610760576040805162461bcd60e51b815260206004820152600a6024820152690776974686472617720360b41b604482015290519081900360640190fd5b6107698261179d565b600054909150610783906001600160a01b03163384611898565b919050565b600154600090670de0b6b3a7640000906107b5906107ae906001600160a01b0316611a01565b849061129a565b816107bc57fe5b0492915050565b6000808211610806576040805162461bcd60e51b815260206004820152600a6024820152690776974686472617720360b41b604482015290519081900360640190fd5b60015461081e906001600160a01b0316333085611df7565b61082782611f69565b600054909150610783906001600160a01b03163383611898565b6000546001600160a01b031615801561086357506001546001600160a01b0316155b6108b4576040805162461bcd60e51b815260206004820152600b60248201527f696e697469616c697a6564000000000000000000000000000000000000000000604482015290519081900360640190fd5b6001600160a01b038216158015906108d457506001600160a01b03811615155b610925576040805162461bcd60e51b815260206004820152600b60248201527f6261642061646472657373000000000000000000000000000000000000000000604482015290519081900360640190fd5b600080546001600160a01b038085167fffffffffffffffffffffffff00000000000000000000000000000000000000009283161790925560018054928416929091169190911790556109756120b6565b5050565b600154600090610991906001600160a01b0316611a01565b6107b583670de0b6b3a764000061129a565b60008082116109e6576040805162461bcd60e51b815260206004820152600a6024820152690776974686472617720360b41b604482015290519081900360640190fd5b60006109f0610a39565b90508281106109ff5782610a01565b805b9150610a0c8261179d565b50600054610a24906001600160a01b03163384611898565b50919050565b6000546001600160a01b031681565b60008054600154604080516370a0823160e01b81526001600160a01b039283166004820152905191909216916370a08231916024808301926020929190829003018186803b158015610a8a57600080fd5b505afa158015610a9e573d6000803e3d6000fd5b505050506040513d6020811015610ab457600080fd5b5051905090565b6000610acd610ac8610f14565b6107c3565b905090565b600154604080516370a0823160e01b81523360048201529051600092610acd926001600160a01b03909116916370a0823191602480820192602092909190829003018186803b158015610b2457600080fd5b505afa158015610b38573d6000803e3d6000fd5b505050506040513d6020811015610b4e57600080fd5b5051610788565b6000808211610bab576040805162461bcd60e51b815260206004820152600960248201527f6465706f73697420300000000000000000000000000000000000000000000000604482015290519081900360640190fd5b600054610bc3906001600160a01b0316333085611df7565b610bcc826120d4565b600154909150610783906001600160a01b03163383611898565b6001546000906001600160a01b03168180808080610c0386610f6e565b9398509196509450925090506000610c1f836103fe878761126f565b9050610c97610c2e88836112c2565b610c9162201480896001600160a01b031663b81688168a8a8a8a6040518563ffffffff1660e01b81526004018085815260200184815260200183815260200182815260200194505050505060206040518083038186803b15801561046b57600080fd5b9061126f565b97505050505050505090565b6001546000906001600160a01b0316818080610cbe84610f6e565b509195509350915060009050610cd8826103fe868661126f565b9050610e25856001600160a01b0316638f840ddd6040518163ffffffff1660e01b815260040160206040518083038186803b158015610d1657600080fd5b505afa158015610d2a573d6000803e3d6000fd5b505050506040513d6020811015610d4057600080fd5b5051604080516308f7a6e360e31b815290516103fe916001600160a01b038a16916347bd371891600480820192602092909190829003018186803b158015610d8757600080fd5b505afa158015610d9b573d6000803e3d6000fd5b505050506040513d6020811015610db157600080fd5b505160408051631d8e90d160e11b815290516001600160a01b038b1691633b1d21a2916004808301926020929190829003018186803b158015610df357600080fd5b505afa158015610e07573d6000803e3d6000fd5b505050506040513d6020811015610e1d57600080fd5b50519061126f565b50600154610e3c906001600160a01b0316826112c2565b9550505050505090565b6001546000906001600160a01b03168180808080610e6386610f6e565b9398509196509450925090506000610e83836103fe86610c91898e61221b565b9050610f07610e9288836112c2565b610c9162201480896001600160a01b031663b8168816610ebb8f8c61221b90919063ffffffff16565b8a8a8a6040518563ffffffff1660e01b81526004018085815260200184815260200183815260200182815260200194505050505060206040518083038186803b15801561046b57600080fd5b9998505050505050505050565b600154604080516370a0823160e01b815233600482015290516000926001600160a01b0316916370a08231916024808301926020929190829003018186803b158015610a8a57600080fd5b6001546001600160a01b031681565b600080600080600080869050806001600160a01b031663f3fdb15a6040518163ffffffff1660e01b815260040160206040518083038186803b158015610fb357600080fd5b505afa158015610fc7573d6000803e3d6000fd5b505050506040513d6020811015610fdd57600080fd5b505160408051631d8e90d160e11b815290519197506001600160a01b03831691633b1d21a291600480820192602092909190829003018186803b15801561102357600080fd5b505afa158015611037573d6000803e3d6000fd5b505050506040513d602081101561104d57600080fd5b5051604080516308f7a6e360e31b815290519196506001600160a01b038316916347bd371891600480820192602092909190829003018186803b15801561109357600080fd5b505afa1580156110a7573d6000803e3d6000fd5b505050506040513d60208110156110bd57600080fd5b505160408051638f840ddd60e01b815290519195506001600160a01b03831691638f840ddd91600480820192602092909190829003018186803b15801561110357600080fd5b505afa158015611117573d6000803e3d6000fd5b505050506040513d602081101561112d57600080fd5b505160408051636c540baf60e01b815290519194506000916001600160a01b03841691636c540baf916004808301926020929190829003018186803b15801561117557600080fd5b505afa158015611189573d6000803e3d6000fd5b505050506040513d602081101561119f57600080fd5b5051604080516305cee64160e21b8152905191925043839003916001600160a01b0385169163173b9904916004808301926020929190829003018186803b1580156111e957600080fd5b505afa1580156111fd573d6000803e3d6000fd5b505050506040513d602081101561121357600080fd5b50519350801561126357600061122b8989898961227c565b9050600061124261123c838561129a565b896124e5565b905061124e888261126f565b975061125e87610c9188846124e5565b965050505b50505091939590929450565b8082018281101561127f57600080fd5b92915050565b60008282111561129457600080fd5b50900390565b6000826112a95750600061127f565b50818102818382816112b757fe5b041461127f57600080fd5b600080733d9819210a31b4961b30ef54be2aed79b9c9cd3b6001600160a01b0316637dc0d1d06040518163ffffffff1660e01b815260040160206040518083038186803b15801561131257600080fd5b505afa158015611326573d6000803e3d6000fd5b505050506040513d602081101561133c57600080fd5b50516040805163fc57d4df60e01b81527370e36f6bf80a52b3b46b3af8e106cc0ed743e8e4600482015290519192506000916001600160a01b0384169163fc57d4df916024808301926020929190829003018186803b15801561139e57600080fd5b505afa1580156113b2573d6000803e3d6000fd5b505050506040513d60208110156113c857600080fd5b50516040805163fc57d4df60e01b81526001600160a01b03888116600483015291519293506000929185169163fc57d4df91602480820192602092909190829003018186803b15801561141a57600080fd5b505afa15801561142e573d6000803e3d6000fd5b505050506040513d602081101561144457600080fd5b50519050811580611453575080155b15611464576000935050505061127f565b60006114d8836114d262201480733d9819210a31b4961b30ef54be2aed79b9c9cd3b6001600160a01b0316631d7b33d78c6040518263ffffffff1660e01b815260040180826001600160a01b0316815260200191505060206040518083038186803b15801561046b57600080fd5b9061129a565b90506114e4868361129a565b6114f682670de0b6b3a764000061129a565b816114fd57fe5b04979650505050505050565b60408051808201909152600881527f436f6d706f756e64000000000000000000000000000000000000000000000000602082015290565b60408051600481526024810182526020810180516001600160e01b03166395d89b4160e01b1781529151815160609360009384936001600160a01b03881693919290918291908083835b602083106115a95780518252601f19909201916020918201910161158a565b6001836020036101000a038019825116818451168082178552505050505050905001915050600060405180830381855afa9150503d8060008114611609576040519150601f19603f3d011682016040523d82523d6000602084013e61160e565b606091505b50915091508161164157604051806040016040528060078152602001662aa725a727aba760c91b81525092505050610783565b80516020146117185780806020019051602081101561165f57600080fd5b810190808051604051939291908464010000000082111561167f57600080fd5b90830190602082018581111561169457600080fd5b82516401000000008111828201881017156116ae57600080fd5b82525081516020918201929091019080838360005b838110156116db5781810151838201526020016116c3565b50505050905090810190601f1680156117085780820380516001836020036101000a031916815260200191505b5060405250505092505050610783565b600081806020019051602081101561172f57600080fd5b505190508061176257604051806040016040528060078152602001662aa725a727aba760c91b8152509350505050610783565b600061176d82612500565b60ff0390506000806008830611611785576000611788565b60015b60ff1660088304018452509195945050505050565b60006117a882610979565b6001549091506117c3906001600160a01b0316333084611df7565b6001546040805163852a12e360e01b81526004810185905290516001600160a01b039092169163852a12e3916024808201926020929091908290030181600087803b15801561181157600080fd5b505af1158015611825573d6000803e3d6000fd5b505050506040513d602081101561183b57600080fd5b50511561188f576040805162461bcd60e51b815260206004820152601360248201527f4345726332303a204275726e206661696c656400000000000000000000000000604482015290519081900360640190fd5b610783336126ee565b604080516001600160a01b038481166024830152604480830185905283518084039091018152606490920183526020820180516001600160e01b031663a9059cbb60e01b1781529251825160009485949389169392918291908083835b602083106119145780518252601f1990920191602091820191016118f5565b6001836020036101000a0380198251168184511680821785525050505050509050019150506000604051808303816000865af19150503d8060008114611976576040519150601f19603f3d011682016040523d82523d6000602084013e61197b565b606091505b50915091508180156119a95750805115806119a957508080602001905160208110156119a657600080fd5b50515b6119fa576040805162461bcd60e51b815260206004820152600560248201527f54483a5354000000000000000000000000000000000000000000000000000000604482015290519081900360640190fd5b5050505050565b6000808290506000816001600160a01b0316636c540baf6040518163ffffffff1660e01b815260040160206040518083038186803b158015611a4257600080fd5b505afa158015611a56573d6000803e3d6000fd5b505050506040513d6020811015611a6c57600080fd5b50514303905080611ae657816001600160a01b031663182df0f56040518163ffffffff1660e01b815260040160206040518083038186803b158015611ab057600080fd5b505afa158015611ac4573d6000803e3d6000fd5b505050506040513d6020811015611ada57600080fd5b50519250610783915050565b6000826001600160a01b031663f3fdb15a6040518163ffffffff1660e01b815260040160206040518083038186803b158015611b2157600080fd5b505afa158015611b35573d6000803e3d6000fd5b505050506040513d6020811015611b4b57600080fd5b505160408051631d8e90d160e11b815290519192506000916001600160a01b03861691633b1d21a2916004808301926020929190829003018186803b158015611b9357600080fd5b505afa158015611ba7573d6000803e3d6000fd5b505050506040513d6020811015611bbd57600080fd5b5051604080516308f7a6e360e31b815290519192506000916001600160a01b038716916347bd3718916004808301926020929190829003018186803b158015611c0557600080fd5b505afa158015611c19573d6000803e3d6000fd5b505050506040513d6020811015611c2f57600080fd5b505160408051638f840ddd60e01b815290519192506000916001600160a01b03881691638f840ddd916004808301926020929190829003018186803b158015611c7757600080fd5b505afa158015611c8b573d6000803e3d6000fd5b505050506040513d6020811015611ca157600080fd5b5051604080516305cee64160e21b815290519192506000916001600160a01b0389169163173b9904916004808301926020929190829003018186803b158015611ce957600080fd5b505afa158015611cfd573d6000803e3d6000fd5b505050506040513d6020811015611d1357600080fd5b505190508515611d63576000611d2b8686868661227c565b90506000611d42611d3c838a61129a565b866124e5565b9050611d4e858261126f565b9450611d5e84610c9185846124e5565b935050505b886001600160a01b03166318160ddd6040518163ffffffff1660e01b815260040160206040518083038186803b158015611d9c57600080fd5b505afa158015611db0573d6000803e3d6000fd5b505050506040513d6020811015611dc657600080fd5b5051611de2670de0b6b3a76400006114d2856103fe898961126f565b81611de957fe5b049998505050505050505050565b604080516001600160a01b0385811660248301528481166044830152606480830185905283518084039091018152608490920183526020820180516001600160e01b03166323b872dd60e01b178152925182516000948594938a169392918291908083835b60208310611e7b5780518252601f199092019160209182019101611e5c565b6001836020036101000a0380198251168184511680821785525050505050509050019150506000604051808303816000865af19150503d8060008114611edd576040519150601f19603f3d011682016040523d82523d6000602084013e611ee2565b606091505b5091509150818015611f10575080511580611f105750808060200190516020811015611f0d57600080fd5b50515b611f61576040805162461bcd60e51b815260206004820152600660248201527f54483a5354460000000000000000000000000000000000000000000000000000604482015290519081900360640190fd5b505050505050565b6001546040805163db006a7560e01b81526004810184905290516000926001600160a01b03169163db006a7591602480830192602092919082900301818787803b158015611fb657600080fd5b505af1158015611fca573d6000803e3d6000fd5b505050506040513d6020811015611fe057600080fd5b505115612034576040805162461bcd60e51b815260206004820152601360248201527f4345726332303a204275726e206661696c656400000000000000000000000000604482015290519081900360640190fd5b600054604080516370a0823160e01b815230600482015290516001600160a01b03909216916370a0823191602480820192602092909190829003018186803b15801561207f57600080fd5b505afa158015612093573d6000803e3d6000fd5b505050506040513d60208110156120a957600080fd5b50519050610783336126ee565b6001546000546120d2916001600160a01b03918216911661289b565b565b6001546040805163140e25ad60e31b81526004810184905290516000926001600160a01b031691829163a0712d689160248082019260209290919082900301818887803b15801561212457600080fd5b505af1158015612138573d6000803e3d6000fd5b505050506040513d602081101561214e57600080fd5b5051156121a2576040805162461bcd60e51b815260206004820152601360248201527f4345726332303a204d696e74206661696c656400000000000000000000000000604482015290519081900360640190fd5b604080516370a0823160e01b815230600482015290516001600160a01b038316916370a08231916024808301926020929190829003018186803b1580156121e857600080fd5b505afa1580156121fc573d6000803e3d6000fd5b505050506040513d602081101561221257600080fd5b50519392505050565b6000600160ff1b831061222d57600080fd5b82828101600084128015906122425750818112155b80612257575060008412801561225757508181125b61226057600080fd5b60008112156122745760009250505061127f565b949350505050565b604080516024810185905260448101849052606480820184905282518083039091018152608490910182526020810180516001600160e01b03166315f2405360e01b17815291518151600093849384936001600160a01b038b1693919290918291908083835b602083106123015780518252601f1990920191602091820191016122e2565b6001836020036101000a038019825116818451168082178552505050505050905001915050600060405180830381855afa9150503d8060008114612361576040519150601f19603f3d011682016040523d82523d6000602084013e612366565b606091505b5091509150816124b95780806020019051602081101561238557600080fd5b81019080805160405193929190846401000000008211156123a557600080fd5b9083019060208201858111156123ba57600080fd5b82516401000000008111828201881017156123d457600080fd5b82525081516020918201929091019080838360005b838110156124015781810151838201526020016123e9565b50505050905090810190601f16801561242e5780820380516001836020036101000a031916815260200191505b5060405250505060405162461bcd60e51b81526004018080602001828103825283818151815260200191508051906020019080838360005b8381101561247e578181015183820152602001612466565b50505050905090810190601f1680156124ab5780820380516001836020036101000a031916815260200191505b509250505060405180910390fd5b6040815110600081146124d257602082015193506124da565b604082015193505b505050949350505050565b60006124f96124f4848461129a565b6128a8565b9392505050565b60008082116125405760405162461bcd60e51b815260040180806020018281038252602b815260200180612a1c602b913960400191505060405180910390fd5b7e818283848586878898a8b8c8d8e8f929395969799a9b9d9e9faaeb6bedeeff60008390038316810260f881901c9060fd1c6004811061262c57600681106125d757806006146125b0577ff8f9cbfae6cc78fbefe7cdc3a1793dfcf4f0e8bbd8cec470b6a28a7a5a3e1efd6125d2565b7ff5ecf1b3e9debc68e1d9cfabc5997135bfb7a7a3938b7b606b5b4b3f2f1f0ffe5b612627565b80600414612605577ff6e4ed9ff2d6b458eadcdf97bd91692de2d4da8fd2d0ac50c6ae9a8272523616612627565b7fc8c0b887b0a8a4489c948c7f847c6125746c645c544c444038302820181008ff5b6126d6565b600281106126885780600214612662577ff7cae577eec2a03cf3bad76fb589591debb2dd67e0aa9834bea6925f6a4a2e0e612627565b7fe39ed557db96902cd38ed14fad815115c786af479b7e832473635343372717076126d6565b80156126b4577fc976c13bb96e881cb166a933a55e490d9d56952b8d4e801485467d23624226066126d6565b7f753a6d1b65325d0c552a4d1345224105391a310b29122104190a1103090201005b60039290921b60f8169190911c60ff16949350505050565b604080516001808252818301909252600091602080830190803683375050604080516001808252818301909252929350600092915060208083019080368337019050509050828260008151811061274157fe5b6001600160a01b0392831660209182029290920101526001548251911690829060009061276a57fe5b60200260200101906001600160a01b031690816001600160a01b031681525050733d9819210a31b4961b30ef54be2aed79b9c9cd3b6001600160a01b0316636810dfa68383600060016040518563ffffffff1660e01b815260040180806020018060200185151581526020018415158152602001838103835287818151815260200191508051906020019060200280838360005b838110156128165781810151838201526020016127fe565b50505050905001838103825286818151815260200191508051906020019060200280838360005b8381101561285557818101518382015260200161283d565b505050509050019650505050505050600060405180830381600087803b15801561287e57600080fd5b505af1158015612892573d6000803e3d6000fd5b50505050505050565b61097582826000196128b9565b6000670de0b6b3a7640000826107bc565b604080516001600160a01b038481166024830152604480830185905283518084039091018152606490920183526020820180516001600160e01b031663095ea7b360e01b1781529251825160009485949389169392918291908083835b602083106129355780518252601f199092019160209182019101612916565b6001836020036101000a0380198251168184511680821785525050505050509050019150506000604051808303816000865af19150503d8060008114612997576040519150601f19603f3d011682016040523d82523d6000602084013e61299c565b606091505b50915091508180156129ca5750805115806129ca57508080602001905160208110156129c757600080fd5b50515b6119fa576040805162461bcd60e51b815260206004820152600560248201527f54483a5341000000000000000000000000000000000000000000000000000000604482015290519081900360640190fdfe426974733a3a6c6f776573744269745365743a2056616c7565203020686173206e6f206269747320736574a164736f6c6343000706000a6080604052600280546001600160a01b031916733d9819210a31b4961b30ef54be2aed79b9c9cd3b17905534801561003657600080fd5b506125a8806100466000396000f3fe6080604052600436106101755760003560e01c8063853828b6116100cb578063cd01a64e1161007f578063e83dd2e011610059578063e83dd2e014610525578063f6326fb31461053a578063fc0c546a1461054257610175565b8063cd01a64e146104d1578063d31c9c29146104e6578063d809e4531461051057610175565b80639103c16b116100b05780639103c16b14610468578063b6b55f2514610492578063c89d5b8b146104bc57610175565b8063853828b61461043e5780638da876c91461045357610175565b8063485cc9551161012d5780636c4c790e116101075780636c4c790e146103ce5780636f307dc3146103f8578063743753591461042957610175565b8063485cc9551461033f5780634e6f376d1461037a57806365cdab3d146103a457610175565b80631071a2901161015e5780631071a290146102af578063282a050b146102eb5780632e1a7d4d1461031557610175565b8063020c06731461017757806306fdde0314610225575b005b34801561018357600080fd5b5061018c610557565b604051808060200180602001838103835285818151815260200191508051906020019060200280838360005b838110156101d05781810151838201526020016101b8565b50505050905001838103825284818151815260200191508051906020019060200280838360005b8381101561020f5781810151838201526020016101f7565b5050505090500194505050505060405180910390f35b34801561023157600080fd5b5061023a610720565b6040805160208082528351818301528351919283929083019185019080838360005b8381101561027457818101518382015260200161025c565b50505050905090810190601f1680156102a15780820380516001836020036101000a031916815260200191505b509250505060405180910390f35b3480156102bb57600080fd5b506102d9600480360360208110156102d257600080fd5b50356107be565b60408051918252519081900360200190f35b3480156102f757600080fd5b506102d96004803603602081101561030e57600080fd5b50356107f0565b34801561032157600080fd5b506102d96004803603602081101561033857600080fd5b503561082b565b34801561034b57600080fd5b506101756004803603604081101561036257600080fd5b506001600160a01b0381358116916020013516610871565b34801561038657600080fd5b506102d96004803603602081101561039d57600080fd5b50356109a9565b3480156103b057600080fd5b506102d9600480360360208110156103c757600080fd5b50356109d3565b3480156103da57600080fd5b506102d9600480360360208110156103f157600080fd5b5035610a76565b34801561040457600080fd5b5061040d610aaf565b604080516001600160a01b039092168252519081900360200190f35b34801561043557600080fd5b506102d9610abe565b34801561044a57600080fd5b506102d9610ace565b34801561045f57600080fd5b506102d9610ae5565b34801561047457600080fd5b506102d96004803603602081101561048b57600080fd5b5035610b68565b34801561049e57600080fd5b506102d9600480360360208110156104b557600080fd5b5035610b88565b3480156104c857600080fd5b506102d9610bcd565b3480156104dd57600080fd5b506102d9610c41565b3480156104f257600080fd5b506102d96004803603602081101561050957600080fd5b5035610de4565b34801561051c57600080fd5b506102d9610e61565b34801561053157600080fd5b506102d9610e73565b6102d9610eef565b34801561054e57600080fd5b5061040d610f1d565b60015460609081906001600160a01b031660008080808061057786610f2c565b9398509196509450925090506000610599836105938787611235565b9061124b565b905060006105ac87878787876000611260565b905060006105ba89846112c8565b905060008082116105cc5760016105cf565b60025b60ff1690508067ffffffffffffffff811180156105eb57600080fd5b50604051908082528060200260200182016040528015610615578160200160208202803683370190505b509b508067ffffffffffffffff8111801561062f57600080fd5b50604051908082528060200260200182016040528015610659578160200160208202803683370190505b50600080548e51929d506001600160a01b0316918e919061067657fe5b60200260200101906001600160a01b031690816001600160a01b031681525050828b6000815181106106a457fe5b602090810291909101015281156107125773c00e94cb662c3520282e6f5717214004a7f268888c6001815181106106d757fe5b60200260200101906001600160a01b031690816001600160a01b031681525050818b60018151811061070557fe5b6020026020010181815250505b505050505050505050509091565b606061072a61153d565b6040516020018082805190602001908083835b6020831061075c5780518252601f19909201916020918201910161073d565b6001836020036101000a038019825116818451168082178552505050505050905001807f2045544820416461707465720000000000000000000000000000000000000000815250600c0191505060405160208183030381529060405290505b90565b60006107c982611574565b90506107d48261166f565b6000546107eb906001600160a01b031633846116d9565b919050565b600154600090670de0b6b3a76400009061081d90610816906001600160a01b0316611842565b8490611c38565b8161082457fe5b0492915050565b600154600090610846906001600160a01b0316333085611c60565b61084f82611dca565b905061085a8161166f565b6000546107eb906001600160a01b031633836116d9565b6000546001600160a01b031615801561089357506001546001600160a01b0316155b6108e4576040805162461bcd60e51b815260206004820152600b60248201527f696e697469616c697a6564000000000000000000000000000000000000000000604482015290519081900360640190fd5b6001600160a01b0382161580159061090457506001600160a01b03811615155b610955576040805162461bcd60e51b815260206004820152600b60248201527f6261642061646472657373000000000000000000000000000000000000000000604482015290519081900360640190fd5b600080546001600160a01b038085167fffffffffffffffffffffffff00000000000000000000000000000000000000009283161790925560018054928416929091169190911790556109a5611ea0565b5050565b6001546000906109c1906001600160a01b0316611842565b61081d83670de0b6b3a7640000611c38565b6000808211610a29576040805162461bcd60e51b815260206004820152600a60248201527f7769746864726177203000000000000000000000000000000000000000000000604482015290519081900360640190fd5b6000610a33610abe565b9050828110610a425782610a44565b805b9150610a4f82611574565b50610a598261166f565b600054610a70906001600160a01b031633846116d9565b50919050565b600154600090610a91906001600160a01b0316333085611c60565b610a9a82611dca565b9050610aa581611ea2565b6107eb3382611ea5565b6000546001600160a01b031681565b6001546001600160a01b03163190565b6000610ae0610adb610e73565b61082b565b905090565b600154604080516370a0823160e01b81523360048201529051600092610ae0926001600160a01b03909116916370a0823191602480820192602092909190829003018186803b158015610b3757600080fd5b505afa158015610b4b573d6000803e3d6000fd5b505050506040513d6020811015610b6157600080fd5b50516107f0565b6000610b7382611574565b9050610b7e82611ea2565b6107eb3383611ea5565b60008054610ba1906001600160a01b0316333085611c60565b610baa82611f50565b610bb382611fac565b6001549091506107eb906001600160a01b031633836116d9565b6001546000906001600160a01b03168180808080610bea86610f2c565b9398509196509450925090506000610c06836105938787611235565b90506000610c1987878787876000611260565b90506000610c2789846112c8565b9050610c338282611235565b995050505050505050505090565b6001546000906001600160a01b0316818080610c5c84610f2c565b509195509350915060009050610c76826105938686611235565b9050610dc3856001600160a01b0316638f840ddd6040518163ffffffff1660e01b815260040160206040518083038186803b158015610cb457600080fd5b505afa158015610cc8573d6000803e3d6000fd5b505050506040513d6020811015610cde57600080fd5b5051604080516308f7a6e360e31b81529051610593916001600160a01b038a16916347bd371891600480820192602092909190829003018186803b158015610d2557600080fd5b505afa158015610d39573d6000803e3d6000fd5b505050506040513d6020811015610d4f57600080fd5b505160408051631d8e90d160e11b815290516001600160a01b038b1691633b1d21a2916004808301926020929190829003018186803b158015610d9157600080fd5b505afa158015610da5573d6000803e3d6000fd5b505050506040513d6020811015610dbb57600080fd5b505190611235565b50600154610dda906001600160a01b0316826112c8565b9550505050505090565b6001546000906001600160a01b03168180808080610e0186610f2c565b9398509196509450925090506000610e1d836105938787611235565b90506000610e2f87878787878f611260565b90506000610e4689610e41858e612085565b6112c8565b9050610e528282611235565b9b9a5050505050505050505050565b6000610ae0610e6e610e73565b610a76565b600154604080516370a0823160e01b815233600482015290516000926001600160a01b0316916370a08231916024808301926020929190829003018186803b158015610ebe57600080fd5b505afa158015610ed2573d6000803e3d6000fd5b505050506040513d6020811015610ee857600080fd5b5051905090565b6000610efa34611ea2565b610f0334611fac565b6001549091506107bb906001600160a01b031633836116d9565b6001546001600160a01b031681565b600080600080600080869050806001600160a01b031663f3fdb15a6040518163ffffffff1660e01b815260040160206040518083038186803b158015610f7157600080fd5b505afa158015610f85573d6000803e3d6000fd5b505050506040513d6020811015610f9b57600080fd5b505160408051631d8e90d160e11b815290519197506001600160a01b03831691633b1d21a291600480820192602092909190829003018186803b158015610fe157600080fd5b505afa158015610ff5573d6000803e3d6000fd5b505050506040513d602081101561100b57600080fd5b5051604080516308f7a6e360e31b815290519196506001600160a01b038316916347bd371891600480820192602092909190829003018186803b15801561105157600080fd5b505afa158015611065573d6000803e3d6000fd5b505050506040513d602081101561107b57600080fd5b505160408051638f840ddd60e01b815290519195506001600160a01b03831691638f840ddd91600480820192602092909190829003018186803b1580156110c157600080fd5b505afa1580156110d5573d6000803e3d6000fd5b505050506040513d60208110156110eb57600080fd5b505160408051636c540baf60e01b815290519194506000916001600160a01b03841691636c540baf916004808301926020929190829003018186803b15801561113357600080fd5b505afa158015611147573d6000803e3d6000fd5b505050506040513d602081101561115d57600080fd5b5051604080516305cee64160e21b815290519192506001600160a01b0384169163173b990491600480820192602092909190829003018186803b1580156111a357600080fd5b505afa1580156111b7573d6000803e3d6000fd5b505050506040513d60208110156111cd57600080fd5b505192504381101561122a574381900360006111eb898989896120e6565b905060006112026111fc8385611c38565b8961234f565b905061120e8882611235565b97506112248761121e888461234f565b90611235565b96505050505b505091939590929450565b8082018281101561124557600080fd5b92915050565b60008282111561125a57600080fd5b50900390565b600080611287670de0b6b3a7640000611281876105938a61121e8d8a612085565b90611c38565b90506000611295878361236a565b905060006112a58a8a8a8a6120e6565b905060006112bb670de0b6b3a76400008861124b565b9050610e528282856123a4565b600080600260009054906101000a90046001600160a01b03166001600160a01b0316637dc0d1d06040518163ffffffff1660e01b815260040160206040518083038186803b15801561131957600080fd5b505afa15801561132d573d6000803e3d6000fd5b505050506040513d602081101561134357600080fd5b50516040805163fc57d4df60e01b81527370e36f6bf80a52b3b46b3af8e106cc0ed743e8e4600482015290519192506000916001600160a01b0384169163fc57d4df916024808301926020929190829003018186803b1580156113a557600080fd5b505afa1580156113b9573d6000803e3d6000fd5b505050506040513d60208110156113cf57600080fd5b50516040805163fc57d4df60e01b81526001600160a01b03888116600483015291519293506000929185169163fc57d4df91602480820192602092909190829003018186803b15801561142157600080fd5b505afa158015611435573d6000803e3d6000fd5b505050506040513d602081101561144b57600080fd5b5051905081158061145a575080155b1561146b5760009350505050611245565b600061150c8361128162201480600260009054906101000a90046001600160a01b03166001600160a01b0316631d7b33d78c6040518263ffffffff1660e01b815260040180826001600160a01b0316815260200191505060206040518083038186803b1580156114da57600080fd5b505afa1580156114ee573d6000803e3d6000fd5b505050506040513d602081101561150457600080fd5b505190611c38565b90506115188683611c38565b61152a82670de0b6b3a7640000611c38565b8161153157fe5b04979650505050505050565b60408051808201909152600881527f436f6d706f756e64000000000000000000000000000000000000000000000000602082015290565b600061157f826109a9565b60015490915061159a906001600160a01b0316333084611c60565b6001546040805163852a12e360e01b81526004810185905290516001600160a01b039092169163852a12e3916024808201926020929091908290030181600087803b1580156115e857600080fd5b505af11580156115fc573d6000803e3d6000fd5b505050506040513d602081101561161257600080fd5b505115611666576040805162461bcd60e51b815260206004820152601360248201527f4345726332303a204275726e206661696c656400000000000000000000000000604482015290519081900360640190fd5b6107eb336123c6565b60008054906101000a90046001600160a01b03166001600160a01b031663d0e30db0826040518263ffffffff1660e01b81526004016000604051808303818588803b1580156116bd57600080fd5b505af11580156116d1573d6000803e3d6000fd5b505050505050565b604080516001600160a01b038481166024830152604480830185905283518084039091018152606490920183526020820180516001600160e01b031663a9059cbb60e01b1781529251825160009485949389169392918291908083835b602083106117555780518252601f199092019160209182019101611736565b6001836020036101000a0380198251168184511680821785525050505050509050019150506000604051808303816000865af19150503d80600081146117b7576040519150601f19603f3d011682016040523d82523d6000602084013e6117bc565b606091505b50915091508180156117ea5750805115806117ea57508080602001905160208110156117e757600080fd5b50515b61183b576040805162461bcd60e51b815260206004820152600560248201527f54483a5354000000000000000000000000000000000000000000000000000000604482015290519081900360640190fd5b5050505050565b6000808290506000816001600160a01b0316636c540baf6040518163ffffffff1660e01b815260040160206040518083038186803b15801561188357600080fd5b505afa158015611897573d6000803e3d6000fd5b505050506040513d60208110156118ad57600080fd5b5051430390508061192757816001600160a01b031663182df0f56040518163ffffffff1660e01b815260040160206040518083038186803b1580156118f157600080fd5b505afa158015611905573d6000803e3d6000fd5b505050506040513d602081101561191b57600080fd5b505192506107eb915050565b6000826001600160a01b031663f3fdb15a6040518163ffffffff1660e01b815260040160206040518083038186803b15801561196257600080fd5b505afa158015611976573d6000803e3d6000fd5b505050506040513d602081101561198c57600080fd5b505160408051631d8e90d160e11b815290519192506000916001600160a01b03861691633b1d21a2916004808301926020929190829003018186803b1580156119d457600080fd5b505afa1580156119e8573d6000803e3d6000fd5b505050506040513d60208110156119fe57600080fd5b5051604080516308f7a6e360e31b815290519192506000916001600160a01b038716916347bd3718916004808301926020929190829003018186803b158015611a4657600080fd5b505afa158015611a5a573d6000803e3d6000fd5b505050506040513d6020811015611a7057600080fd5b505160408051638f840ddd60e01b815290519192506000916001600160a01b03881691638f840ddd916004808301926020929190829003018186803b158015611ab857600080fd5b505afa158015611acc573d6000803e3d6000fd5b505050506040513d6020811015611ae257600080fd5b5051604080516305cee64160e21b815290519192506000916001600160a01b0389169163173b9904916004808301926020929190829003018186803b158015611b2a57600080fd5b505afa158015611b3e573d6000803e3d6000fd5b505050506040513d6020811015611b5457600080fd5b505190508515611ba4576000611b6c868686866120e6565b90506000611b83611b7d838a611c38565b8661234f565b9050611b8f8582611235565b9450611b9f8461121e858461234f565b935050505b886001600160a01b03166318160ddd6040518163ffffffff1660e01b815260040160206040518083038186803b158015611bdd57600080fd5b505afa158015611bf1573d6000803e3d6000fd5b505050506040513d6020811015611c0757600080fd5b5051611c23670de0b6b3a7640000611281856105938989611235565b81611c2a57fe5b049998505050505050505050565b600082611c4757506000611245565b5081810281838281611c5557fe5b041461124557600080fd5b604080516001600160a01b0385811660248301528481166044830152606480830185905283518084039091018152608490920183526020820180516001600160e01b03166323b872dd60e01b178152925182516000948594938a169392918291908083835b60208310611ce45780518252601f199092019160209182019101611cc5565b6001836020036101000a0380198251168184511680821785525050505050509050019150506000604051808303816000865af19150503d8060008114611d46576040519150601f19603f3d011682016040523d82523d6000602084013e611d4b565b606091505b5091509150818015611d79575080511580611d795750808060200190516020811015611d7657600080fd5b50515b6116d1576040805162461bcd60e51b815260206004820152600660248201527f54483a5354460000000000000000000000000000000000000000000000000000604482015290519081900360640190fd5b6001546040805163db006a7560e01b81526004810184905290516000926001600160a01b03169163db006a7591602480830192602092919082900301818787803b158015611e1757600080fd5b505af1158015611e2b573d6000803e3d6000fd5b505050506040513d6020811015611e4157600080fd5b505115611e95576040805162461bcd60e51b815260206004820152601360248201527f4345746865723a204275726e206661696c656400000000000000000000000000604482015290519081900360640190fd5b50476107eb336123c6565b565b50565b6040516000906001600160a01b0384169083908381818185875af1925050503d8060008114611ef0576040519150601f19603f3d011682016040523d82523d6000602084013e611ef5565b606091505b5050905080611f4b576040805162461bcd60e51b815260206004820152600660248201527f54483a5354450000000000000000000000000000000000000000000000000000604482015290519081900360640190fd5b505050565b6000805460408051632e1a7d4d60e01b81526004810185905290516001600160a01b0390921692632e1a7d4d9260248084019382900301818387803b158015611f9857600080fd5b505af115801561183b573d6000803e3d6000fd5b60015460408051631249c58b60e01b815290516000926001600160a01b0316918291631249c58b9186916004808301928892919082900301818588803b158015611ff557600080fd5b505af1158015612009573d6000803e3d6000fd5b5050604080516370a0823160e01b815230600482015290516001600160a01b03861694506370a08231935060248083019350602092829003018186803b15801561205257600080fd5b505afa158015612066573d6000803e3d6000fd5b505050506040513d602081101561207c57600080fd5b50519392505050565b6000600160ff1b831061209757600080fd5b82828101600084128015906120ac5750818112155b806120c157506000841280156120c157508181125b6120ca57600080fd5b60008112156120de57600092505050611245565b949350505050565b604080516024810185905260448101849052606480820184905282518083039091018152608490910182526020810180516001600160e01b03166315f2405360e01b17815291518151600093849384936001600160a01b038b1693919290918291908083835b6020831061216b5780518252601f19909201916020918201910161214c565b6001836020036101000a038019825116818451168082178552505050505050905001915050600060405180830381855afa9150503d80600081146121cb576040519150601f19603f3d011682016040523d82523d6000602084013e6121d0565b606091505b509150915081612323578080602001905160208110156121ef57600080fd5b810190808051604051939291908464010000000082111561220f57600080fd5b90830190602082018581111561222457600080fd5b825164010000000081118282018810171561223e57600080fd5b82525081516020918201929091019080838360005b8381101561226b578181015183820152602001612253565b50505050905090810190601f1680156122985780820380516001836020036101000a031916815260200191505b5060405250505060405162461bcd60e51b81526004018080602001828103825283818151815260200191508051906020019080838360005b838110156122e85781810151838201526020016122d0565b50505050905090810190601f1680156123155780820380516001836020036101000a031916815260200191505b509250505060405180910390fd5b60408151106000811461233c5760208201519350612344565b604082015193505b505050949350505050565b600061236361235e8484611c38565b612553565b9392505050565b60008061237f84670de0b6b3a7640000611c38565b90508261239482670de0b6b3a7640000611c38565b8161239b57fe5b04949350505050565b6000806123b18585612564565b90506123bd8184612564565b95945050505050565b604080516001808252818301909252600091602080830190803683375050604080516001808252818301909252929350600092915060208083019080368337019050509050828260008151811061241957fe5b6001600160a01b0392831660209182029290920101526001548251911690829060009061244257fe5b6001600160a01b039283166020918202929092018101919091526002546040516334086fd360e11b81526000604482018190526001606483018190526080600484019081528851608485015288519490961695636810dfa695899589958392602482019260a49092019189820191028083838a5b838110156124ce5781810151838201526020016124b6565b50505050905001838103825286818151815260200191508051906020019060200280838360005b8381101561250d5781810151838201526020016124f5565b505050509050019650505050505050600060405180830381600087803b15801561253657600080fd5b505af115801561254a573d6000803e3d6000fd5b50505050505050565b6000670de0b6b3a764000082610824565b6000806125718484611c38565b905060006125876706f05b59d3b2000083611235565b670de0b6b3a764000090049594505050505056fea164736f6c6343000706000a",
  "devdoc": {
    "kind": "dev",
    "methods": {
      "freezeAdapter(address)": {
        "details": "Freeze `adapter` - add it to `frozenAdapters` and remove it from the registry. Does not verify adapter exists or has been registered by this contract because the registry handles that."
      },
      "getUnmapped()": {
        "details": "Get the list of tokens which have not already been mapped by the adapter. Tokens may be underlying tokens or wrapper tokens for a lending market."
      },
      "getUnmappedUpTo(uint256)": {
        "details": "Get up to `max` tokens which have not already been mapped by the adapter. Tokens may be underlying tokens or wrapper tokens for a lending market."
      },
      "map(uint256)": {
        "details": "Map up to `max` tokens, starting at `totalMapped`."
      },
      "protocol()": {
        "details": "Name of the protocol the adapter is for."
      },
      "unfreezeAdapter(uint256)": {
        "details": "Unfreeze adapter at `index` in `frozenAdapters`. Market for the adapter must not be frozen by the protocol."
      },
      "unfreezeToken(uint256)": {
        "details": "Unfreeze token at `index` in `frozenTokens` and create a new adapter for it. Market for the token must not be frozen by the protocol."
      }
    },
    "version": 1
  },
  "userdoc": {
    "kind": "user",
    "methods": {},
    "version": 1
  },
  "storageLayout": {
    "storage": [
      {
        "astId": 18197,
        "contract": "contracts/protocols/CompoundProtocolAdapter.sol:CompoundProtocolAdapter",
        "label": "frozenAdapters",
        "offset": 0,
        "slot": "0",
        "type": "t_array(t_address)dyn_storage"
      },
      {
        "astId": 18201,
        "contract": "contracts/protocols/CompoundProtocolAdapter.sol:CompoundProtocolAdapter",
        "label": "frozenTokens",
        "offset": 0,
        "slot": "1",
        "type": "t_array(t_address)dyn_storage"
      },
      {
        "astId": 18204,
        "contract": "contracts/protocols/CompoundProtocolAdapter.sol:CompoundProtocolAdapter",
        "label": "totalMapped",
        "offset": 0,
        "slot": "2",
        "type": "t_uint256"
      }
    ],
    "types": {
      "t_address": {
        "encoding": "inplace",
        "label": "address",
        "numberOfBytes": "20"
      },
      "t_array(t_address)dyn_storage": {
        "base": "t_address",
        "encoding": "dynamic_array",
        "label": "address[]",
        "numberOfBytes": "32"
      },
      "t_uint256": {
        "encoding": "inplace",
        "label": "uint256",
        "numberOfBytes": "32"
      }
    }
  }
}