{
  "address": "0xd80526efbcc066b771028d96b4eb8354124556e4",
  "abi": [
    {
      "inputs": [
        {
          "internalType": "contract IAdapterRegistry",
          "name": "_registry",
          "type": "address"
        }
      ],
      "stateMutability": "nonpayable",
      "type": "constructor"
    },
    {
      "anonymous": false,
      "inputs": [
        {
          "indexed": false,
          "internalType": "address",
          "name": "adapter",
          "type": "address"
        }
      ],
      "name": "AdapterFrozen",
      "type": "event"
    },
    {
      "anonymous": false,
      "inputs": [
        {
          "indexed": false,
          "internalType": "address",
          "name": "adapter",
          "type": "address"
        }
      ],
      "name": "AdapterUnfrozen",
      "type": "event"
    },
    {
      "anonymous": false,
      "inputs": [
        {
          "indexed": false,
          "internalType": "address",
          "name": "token",
          "type": "address"
        }
      ],
      "name": "MarketFrozen",
      "type": "event"
    },
    {
      "anonymous": false,
      "inputs": [
        {
          "indexed": false,
          "internalType": "address",
          "name": "token",
          "type": "address"
        }
      ],
      "name": "MarketUnfrozen",
      "type": "event"
    },
    {
      "inputs": [],
      "name": "bzx",
      "outputs": [
        {
          "internalType": "contract IBZX",
          "name": "",
          "type": "address"
        }
      ],
      "stateMutability": "view",
      "type": "function"
    },
    {
      "inputs": [],
      "name": "erc20AdapterImplementation",
      "outputs": [
        {
          "internalType": "address",
          "name": "",
          "type": "address"
        }
      ],
      "stateMutability": "view",
      "type": "function"
    },
    {
      "inputs": [
        {
          "internalType": "address",
          "name": "adapter",
          "type": "address"
        }
      ],
      "name": "freezeAdapter",
      "outputs": [],
      "stateMutability": "nonpayable",
      "type": "function"
    },
    {
      "inputs": [
        {
          "internalType": "uint256",
          "name": "",
          "type": "uint256"
        }
      ],
      "name": "frozenAdapters",
      "outputs": [
        {
          "internalType": "address",
          "name": "",
          "type": "address"
        }
      ],
      "stateMutability": "view",
      "type": "function"
    },
    {
      "inputs": [
        {
          "internalType": "uint256",
          "name": "",
          "type": "uint256"
        }
      ],
      "name": "frozenTokens",
      "outputs": [
        {
          "internalType": "address",
          "name": "",
          "type": "address"
        }
      ],
      "stateMutability": "view",
      "type": "function"
    },
    {
      "inputs": [],
      "name": "getFrozenAdapters",
      "outputs": [
        {
          "internalType": "address[]",
          "name": "tokens",
          "type": "address[]"
        }
      ],
      "stateMutability": "view",
      "type": "function"
    },
    {
      "inputs": [],
      "name": "getFrozenTokens",
      "outputs": [
        {
          "internalType": "address[]",
          "name": "tokens",
          "type": "address[]"
        }
      ],
      "stateMutability": "view",
      "type": "function"
    },
    {
      "inputs": [],
      "name": "getUnmapped",
      "outputs": [
        {
          "internalType": "address[]",
          "name": "loanPools",
          "type": "address[]"
        }
      ],
      "stateMutability": "view",
      "type": "function"
    },
    {
      "inputs": [
        {
          "internalType": "uint256",
          "name": "max",
          "type": "uint256"
        }
      ],
      "name": "getUnmappedUpTo",
      "outputs": [
        {
          "internalType": "address[]",
          "name": "loanPools",
          "type": "address[]"
        }
      ],
      "stateMutability": "view",
      "type": "function"
    },
    {
      "inputs": [
        {
          "internalType": "uint256",
          "name": "max",
          "type": "uint256"
        }
      ],
      "name": "map",
      "outputs": [],
      "stateMutability": "nonpayable",
      "type": "function"
    },
    {
      "inputs": [],
      "name": "protocol",
      "outputs": [
        {
          "internalType": "string",
          "name": "",
          "type": "string"
        }
      ],
      "stateMutability": "pure",
      "type": "function"
    },
    {
      "inputs": [],
      "name": "registry",
      "outputs": [
        {
          "internalType": "contract IAdapterRegistry",
          "name": "",
          "type": "address"
        }
      ],
      "stateMutability": "view",
      "type": "function"
    },
    {
      "inputs": [],
      "name": "totalMapped",
      "outputs": [
        {
          "internalType": "uint256",
          "name": "",
          "type": "uint256"
        }
      ],
      "stateMutability": "view",
      "type": "function"
    },
    {
      "inputs": [
        {
          "internalType": "uint256",
          "name": "index",
          "type": "uint256"
        }
      ],
      "name": "unfreezeAdapter",
      "outputs": [],
      "stateMutability": "nonpayable",
      "type": "function"
    },
    {
      "inputs": [
        {
          "internalType": "uint256",
          "name": "index",
          "type": "uint256"
        }
      ],
      "name": "unfreezeToken",
      "outputs": [],
      "stateMutability": "nonpayable",
      "type": "function"
    },
    {
      "inputs": [],
      "name": "weth",
      "outputs": [
        {
          "internalType": "address",
          "name": "",
          "type": "address"
        }
      ],
      "stateMutability": "view",
      "type": "function"
    }
  ],
  "transactionHash": "0x7658d6d58e9ce5fea0bc2a33b7f3b6e893819c8b0e5f255d1beeb554abb82ffe",
  "args": [
    "0x5F2945604013Ee9f80aE2eDDb384462B681859C4"
  ],
  "solcInputHash": "15c5eb146eed5e149f0fa39b934f8cde",
  "bytecode": "0x60c06040523480156200001157600080fd5b5060405162004cb538038062004cb583398101604081905262000034916200045d565b6001600160601b0319606082901b1660805260405160009062000057906200042f565b604051809103906000f08015801562000074573d6000803e3d6000fd5b506001600160601b0319606082901b1660a05260405163402946b960e01b815290915060009073d8ee69652e4e4838f2531732a46d1f7f584f0b7f9063402946b990620000c99084906002906004016200056f565b60006040518083038186803b158015620000e257600080fd5b505afa158015620000f7573d6000803e3d6000fd5b505050506040513d6000823e601f3d908101601f1916820160405262000121919081019062000483565b9050600073d8ee69652e4e4838f2531732a46d1f7f584f0b7f6001600160a01b0316638dc48ba5836000815181106200015657fe5b60200260200101516040518263ffffffff1660e01b81526004016200017c919062000541565b60206040518083038186803b1580156200019557600080fd5b505afa158015620001aa573d6000803e3d6000fd5b505050506040513d601f19601f82011682018060405250810190620001d091906200045d565b90506000620001ea846200039f60201b62000a771760201c565b9050806001600160a01b031663485cc95583856000815181106200020a57fe5b60200260200101516040518363ffffffff1660e01b81526004016200023192919062000555565b600060405180830381600087803b1580156200024c57600080fd5b505af115801562000261573d6000803e3d6000fd5b5050604051600162b92fe560e01b031981526001600160a01b038816925063ff46d01b91506200029690849060040162000541565b600060405180830381600087803b158015620002b157600080fd5b505af1158015620002c6573d6000803e3d6000fd5b50505050846001600160a01b031663ff46d01b73c02aaa39b223fe8d0a0e5c4f27ead9083c756cc285600181518110620002fc57fe5b602002602001015160405162000312906200043d565b6200031f92919062000555565b604051809103906000f0801580156200033c573d6000803e3d6000fd5b506040518263ffffffff1660e01b81526004016200035b919062000541565b600060405180830381600087803b1580156200037657600080fd5b505af11580156200038b573d6000803e3d6000fd5b505060028055506200059695505050505050565b600080620003ad83620003bf565b90506037602082016000f09392505050565b6040805160488082526080820190925260609160208201818036833750507f3d602d80600a3d3981f3363d3d373d3d3d363d7300000000000000000000000060208301525060609290921b6034830152506e5af43d82803e903d91602b57fd5bf360881b60488201526037815290565b611a85806200168983390190565b611ba7806200310e83390190565b805162000458816200057d565b919050565b6000602082840312156200046f578081fd5b81516200047c816200057d565b9392505050565b6000602080838503121562000496578182fd5b82516001600160401b0380821115620004ad578384fd5b818501915085601f830112620004c1578384fd5b815181811115620004ce57fe5b83810260405185828201018181108582111715620004e857fe5b604052828152858101935084860182860187018a101562000507578788fd5b8795505b8386101562000534576200051f816200044b565b8552600195909501949386019386016200050b565b5098975050505050505050565b6001600160a01b0391909116815260200190565b6001600160a01b0392831681529116602082015260400190565b918252602082015260400190565b6001600160a01b03811681146200059357600080fd5b50565b60805160601c60a05160601c6110b0620005d9600039806108ed5280610c8352508061037d528061042252806106f952806107e852806109c552506110b06000f3fe608060405234801561001057600080fd5b50600436106101005760003560e01c8063b8dda9c711610097578063dc33122411610066578063dc331224146101c3578063dc51b6ac146101d6578063e31beb9a146101eb578063f401f8a0146101fe57610100565b8063b8dda9c71461018d578063c961c589146101a0578063c97764e5146101b3578063d1e08f31146101bb57610100565b80637b103999116100d35780637b103999146101555780638ce744261461015d57806399a16e6114610172578063b12453071461018557610100565b80631fbf7fa5146101055780633fc8cef3146101235780634d0ceecb1461012b5780634d787ea914610140575b600080fd5b61010d610211565b60405161011a9190610f38565b60405180910390f35b61010d610229565b610133610241565b60405161011a9190610f66565b61015361014e366004610f08565b6102df565b005b61010d610420565b610165610444565b60405161011a9190610fb3565b610133610180366004610f08565b61047b565b610133610512565b61015361019b366004610f08565b610574565b6101536101ae366004610e14565b610767565b61013361088b565b61010d6108eb565b61010d6101d1366004610f08565b61090f565b6101de610939565b60405161011a9190611074565b6101536101f9366004610f08565b61093f565b61010d61020c366004610f08565b610a67565b73d8ee69652e4e4838f2531732a46d1f7f584f0b7f81565b73c02aaa39b223fe8d0a0e5c4f27ead9083c756cc281565b60025460405163402946b960e01b815260609173d8ee69652e4e4838f2531732a46d1f7f584f0b7f9163402946b99161028691670de0b6b3a76400009060040161107d565b60006040518083038186803b15801561029e57600080fd5b505afa1580156102b2573d6000803e3d6000fd5b505050506040513d6000823e601f3d908101601f191682016040526102da9190810190610e53565b905090565b6000600182815481106102ee57fe5b6000918252602090912001546001600160a01b0316905061030e81610a95565b156103345760405162461bcd60e51b815260040161032b90611006565b60405180910390fd5b61033f600183610b11565b600061034a82610bf0565b6040517fff46d01b0000000000000000000000000000000000000000000000000000000081529091506001600160a01b037f0000000000000000000000000000000000000000000000000000000000000000169063ff46d01b906103b2908490600401610f38565b600060405180830381600087803b1580156103cc57600080fd5b505af11580156103e0573d6000803e3d6000fd5b505050507f9d70968988366484026d19fd2ed45ba53154e653af0d3b64a6e30fd1e59e9c02826040516104139190610f38565b60405180910390a1505050565b7f000000000000000000000000000000000000000000000000000000000000000081565b60408051808201909152600781527f46756c6372756d00000000000000000000000000000000000000000000000000602082015290565b60025460405163402946b960e01b815260609173d8ee69652e4e4838f2531732a46d1f7f584f0b7f9163402946b9916104b891869060040161107d565b60006040518083038186803b1580156104d057600080fd5b505afa1580156104e4573d6000803e3d6000fd5b505050506040513d6000823e601f3d908101601f1916820160405261050c9190810190610e53565b92915050565b6060600080548060200260200160405190810160405280929190818152602001828054801561056a57602002820191906000526020600020905b81546001600160a01b0316815260019091019060200180831161054c575b5050505050905090565b600061057f8261047b565b805190915060008167ffffffffffffffff8111801561059d57600080fd5b506040519080825280602002602001820160405280156105c7578160200160208202803683370190505b5090506000805b838110156106cd5760008582815181106105e457fe5b602002602001015190506105f781610a95565b156106865760018054808201825560008290527fb10e2d527612073b26eecdfd717e6a320cf44b4afac2b0732d9fcbe2b7fa0cf60180546001600160a01b0319166001600160a01b0384161790556040519301927fb33cb2dd3d0d4f68fb707ddade8bd1e4c8ba3c3cf18274aff3968e86a0548da190610678908390610f38565b60405180910390a1506106c5565b600061069182610bf0565b90508085858503815181106106a257fe5b60200260200101906001600160a01b031690816001600160a01b03168152505050505b6001016105ce565b50600280548401905580156106e25780830382525b604051633be4c7fd60e01b81526001600160a01b037f00000000000000000000000000000000000000000000000000000000000000001690633be4c7fd9061072e908590600401610f66565b600060405180830381600087803b15801561074857600080fd5b505af115801561075c573d6000803e3d6000fd5b505050505050505050565b61077081610d10565b61078c5760405162461bcd60e51b815260040161032b9061103d565b600080546001810182559080527f290decd9548b62a8d60345a988386fc84ba6bc95484008f6362f93160ef3e5630180546001600160a01b0319166001600160a01b038381169190911790915560405163053551dd60e51b81527f00000000000000000000000000000000000000000000000000000000000000009091169063a6aa3ba09061081f908490600401610f38565b600060405180830381600087803b15801561083957600080fd5b505af115801561084d573d6000803e3d6000fd5b505050507fd40fc6dc0bc7f9e69f705b5e74dfd3623d55ea32890b826bd25584e5f0f03fcc816040516108809190610f38565b60405180910390a150565b6060600180548060200260200160405190810160405280929190818152602001828054801561056a576020028201919060005260206000209081546001600160a01b0316815260019091019060200180831161054c575050505050905090565b7f000000000000000000000000000000000000000000000000000000000000000081565b6000818154811061091f57600080fd5b6000918252602090912001546001600160a01b0316905081565b60025481565b600080828154811061094d57fe5b6000918252602090912001546001600160a01b0316905061096d81610d10565b1561098a5760405162461bcd60e51b815260040161032b90611006565b610995600083610b11565b6040517fff46d01b0000000000000000000000000000000000000000000000000000000081526001600160a01b037f0000000000000000000000000000000000000000000000000000000000000000169063ff46d01b906109fa908490600401610f38565b600060405180830381600087803b158015610a1457600080fd5b505af1158015610a28573d6000803e3d6000fd5b505050507f2dac01b475b5c97016d30db596f912172f79a142dd507389304167f50f0173fb81604051610a5b9190610f38565b60405180910390a15050565b6001818154811061091f57600080fd5b600080610a8383610d8b565b90506037602082016000f09392505050565b6000816001600160a01b03166318160ddd6040518163ffffffff1660e01b815260040160206040518083038186803b158015610ad057600080fd5b505afa158015610ae4573d6000803e3d6000fd5b505050506040513d601f19601f82011682018060405250810190610b089190610f20565b1590505b919050565b81546000198101821415610b515782805480610b2957fe5b600082815260209020810160001990810180546001600160a01b031916905501905550610bec565b6000836001830381548110610b6257fe5b9060005260206000200160009054906101000a90046001600160a01b0316905080848481548110610b8f57fe5b9060005260206000200160006101000a8154816001600160a01b0302191690836001600160a01b0316021790555083805480610bc757fe5b600082815260209020810160001990810180546001600160a01b031916905501905550505b5050565b604051638dc48ba560e01b8152600090819073d8ee69652e4e4838f2531732a46d1f7f584f0b7f90638dc48ba590610c2c908690600401610f38565b60206040518083038186803b158015610c4457600080fd5b505afa158015610c58573d6000803e3d6000fd5b505050506040513d601f19601f82011682018060405250810190610c7c9190610e37565b9050610ca77f0000000000000000000000000000000000000000000000000000000000000000610a77565b60405163485cc95560e01b81529092506001600160a01b0383169063485cc95590610cd89084908790600401610f4c565b600060405180830381600087803b158015610cf257600080fd5b505af1158015610d06573d6000803e3d6000fd5b5050505050919050565b600061050c826001600160a01b031663fc0c546a6040518163ffffffff1660e01b815260040160206040518083038186803b158015610d4e57600080fd5b505afa158015610d62573d6000803e3d6000fd5b505050506040513d601f19601f82011682018060405250810190610d869190610e37565b610a95565b6040805160488082526080820190925260609160208201818036833750507f3d602d80600a3d3981f3363d3d373d3d3d363d7300000000000000000000000060208301525060609290921b6034830152507f5af43d82803e903d91602b57fd5bf3000000000000000000000000000000000060488201526037815290565b8051610b0c8161108b565b600060208284031215610e25578081fd5b8135610e308161108b565b9392505050565b600060208284031215610e48578081fd5b8151610e308161108b565b60006020808385031215610e65578182fd5b825167ffffffffffffffff80821115610e7c578384fd5b818501915085601f830112610e8f578384fd5b815181811115610e9b57fe5b83810260405185828201018181108582111715610eb457fe5b604052828152858101935084860182860187018a1015610ed2578788fd5b8795505b83861015610efb57610ee781610e09565b855260019590950194938601938601610ed6565b5098975050505050505050565b600060208284031215610f19578081fd5b5035919050565b600060208284031215610f31578081fd5b5051919050565b6001600160a01b0391909116815260200190565b6001600160a01b0392831681529116602082015260400190565b6020808252825182820181905260009190848201906040850190845b81811015610fa75783516001600160a01b031683529284019291840191600101610f82565b50909695505050505050565b6000602080835283518082850152825b81811015610fdf57858101830151858201604001528201610fc3565b81811115610ff05783604083870101525b50601f01601f1916929092016040019392505050565b60208082526013908201527f4d61726b6574207374696c6c2066726f7a656e00000000000000000000000000604082015260600190565b60208082526011908201527f4d61726b6574206e6f742066726f7a656e000000000000000000000000000000604082015260600190565b90815260200190565b918252602082015260400190565b6001600160a01b03811681146110a057600080fd5b5056fea164736f6c6343000706000a608060405234801561001057600080fd5b50611a65806100206000396000f3fe608060405234801561001057600080fd5b506004361061011b5760003560e01c80636f307dc3116100b2578063b6b55f2511610081578063d31c9c2911610066578063d31c9c291461021d578063e83dd2e014610230578063fc0c546a146102385761011b565b8063b6b55f2514610202578063c89d5b8b146102155761011b565b80636f307dc3146101d557806374375359146101ea578063853828b6146101f25780638da876c9146101fa5761011b565b80632e1a7d4d116100ee5780632e1a7d4d14610187578063485cc9551461019a5780634e6f376d146101af57806365cdab3d146101c25761011b565b8063020c06731461012057806306fdde031461013f5780631071a29014610154578063282a050b14610174575b600080fd5b610128610240565b604051610136929190611862565b60405180910390f35b6101476102e2565b60405161013691906118e5565b610167610162366004611736565b61031e565b60405161013691906119f4565b610167610182366004611736565b61048c565b610167610195366004611736565b610535565b6101ad6101a8366004611704565b6105f8565b005b6101676101bd366004611736565b6106ca565b6101676101d0366004611736565b610759565b6101dd6108de565b604051610136919061181b565b6101676108ed565b610167610a63565b610167610ba6565b610167610210366004611736565b610c2c565b610167610ceb565b61016761022b366004611736565b610d82565b610167610e93565b6101dd610ec4565b60408051600180825281830190925260609182919060208083019080368337505060408051600180825281830190925292945090506020808301908036833750506000805485519394506001600160a01b03169285925061029d57fe5b60200260200101906001600160a01b031690816001600160a01b0316815250506102c5610ceb565b816000815181106102d257fe5b6020026020010181815250509091565b6000546060906102fa906001600160a01b0316610ed3565b60405160200161030a91906117af565b604051602081830303815290604052905090565b60006103c1600160009054906101000a90046001600160a01b03166001600160a01b0316637ff9b5966040518163ffffffff1660e01b815260040160206040518083038186803b15801561037157600080fd5b505afa158015610385573d6000803e3d6000fd5b505050506040513d601f19601f820116820180604052508101906103a9919061174e565b6103bb84670de0b6b3a7640000611130565b9061115e565b6001549091506103dc906001600160a01b0316333084611191565b600154604051632770a7eb60e21b81526000916001600160a01b031690639dc29fac9061040f903390869060040161182f565b602060405180830381600087803b15801561042957600080fd5b505af115801561043d573d6000803e3d6000fd5b505050506040513d601f19601f82011682018060405250810190610461919061174e565b116104875760405162461bcd60e51b815260040161047e9061194f565b60405180910390fd5b919050565b6000670de0b6b3a7640000610527600160009054906101000a90046001600160a01b03166001600160a01b0316637ff9b5966040518163ffffffff1660e01b815260040160206040518083038186803b1580156104e857600080fd5b505afa1580156104fc573d6000803e3d6000fd5b505050506040513d601f19601f82011682018060405250810190610520919061174e565b8490611130565b8161052e57fe5b0492915050565b6001546000906001600160a01b031661055081333086611191565b604051632770a7eb60e21b81526001600160a01b03821690639dc29fac9061057e903390879060040161182f565b602060405180830381600087803b15801561059857600080fd5b505af11580156105ac573d6000803e3d6000fd5b505050506040513d601f19601f820116820180604052508101906105d0919061174e565b9150600082116105f25760405162461bcd60e51b815260040161047e9061194f565b50919050565b6000546001600160a01b031615801561061a57506001546001600160a01b0316155b6106365760405162461bcd60e51b815260040161047e906119bd565b6001600160a01b0382161580159061065657506001600160a01b03811615155b6106725760405162461bcd60e51b815260040161047e90611986565b600080546001600160a01b038085167fffffffffffffffffffffffff0000000000000000000000000000000000000000928316811790935560018054858316931692909217918290556106c6929116611303565b5050565b60015460408051633ffcdacb60e11b815290516000926001600160a01b031691637ff9b596916004808301926020929190829003018186803b15801561070f57600080fd5b505afa158015610723573d6000803e3d6000fd5b505050506040513d601f19601f82011682018060405250810190610747919061174e565b61052783670de0b6b3a7640000611130565b6000806107646108ed565b90508281106107735782610775565b805b91506000600160009054906101000a90046001600160a01b03166001600160a01b0316637ff9b5966040518163ffffffff1660e01b815260040160206040518083038186803b1580156107c757600080fd5b505afa1580156107db573d6000803e3d6000fd5b505050506040513d601f19601f820116820180604052508101906107ff919061174e565b61081184670de0b6b3a7640000611130565b8161081857fe5b6001549190049150610835906001600160a01b0316333084611191565b600154604051632770a7eb60e21b81526000916001600160a01b031690639dc29fac90610868903390869060040161182f565b602060405180830381600087803b15801561088257600080fd5b505af1158015610896573d6000803e3d6000fd5b505050506040513d601f19601f820116820180604052508101906108ba919061174e565b116108d75760405162461bcd60e51b815260040161047e9061194f565b5050919050565b6000546001600160a01b031681565b60015460008054604051630d1979fb60e41b815291928392839273d8ee69652e4e4838f2531732a46d1f7f584f0b7f9263d1979fb09261093d926001600160a01b03928316921690600401611848565b60c06040518083038186803b15801561095557600080fd5b505afa158015610969573d6000803e3d6000fd5b505050506040513d601f19601f8201168201806040525081019061098d9190611766565b509450945050505068056bc75e2d631000006109be6105208368056bc75e2d6310000061131090919063ffffffff16565b816109c557fe5b6000546001546040516370a0823160e01b8152939092049450610a5c9285926001600160a01b03928316926370a0823192610a06929091169060040161181b565b60206040518083038186803b158015610a1e57600080fd5b505afa158015610a32573d6000803e3d6000fd5b505050506040513d601f19601f82011682018060405250810190610a56919061174e565b90611325565b9250505090565b6001546040516370a0823160e01b81526000916001600160a01b031690829082906370a0823190610a9890339060040161181b565b60206040518083038186803b158015610ab057600080fd5b505afa158015610ac4573d6000803e3d6000fd5b505050506040513d601f19601f82011682018060405250810190610ae8919061174e565b9050610aff6001600160a01b038316333084611191565b604051632770a7eb60e21b81526001600160a01b03831690639dc29fac90610b2d903390859060040161182f565b602060405180830381600087803b158015610b4757600080fd5b505af1158015610b5b573d6000803e3d6000fd5b505050506040513d601f19601f82011682018060405250810190610b7f919061174e565b925060008311610ba15760405162461bcd60e51b815260040161047e9061194f565b505090565b600154604051630359f7eb60e11b81526000916001600160a01b0316906306b3efd690610bd790339060040161181b565b60206040518083038186803b158015610bef57600080fd5b505afa158015610c03573d6000803e3d6000fd5b505050506040513d601f19601f82011682018060405250810190610c27919061174e565b905090565b60008054610c45906001600160a01b0316333085611191565b6001546040516340c10f1960e01b81526001600160a01b03909116906340c10f1990610c77903390869060040161182f565b602060405180830381600087803b158015610c9157600080fd5b505af1158015610ca5573d6000803e3d6000fd5b505050506040513d601f19601f82011682018060405250810190610cc9919061174e565b9050600081116104875760405162461bcd60e51b815260040161047e90611918565b60006064600160009054906101000a90046001600160a01b03166001600160a01b03166309ec6b6b6040518163ffffffff1660e01b815260040160206040518083038186803b158015610d3d57600080fd5b505afa158015610d51573d6000803e3d6000fd5b505050506040513d601f19601f82011682018060405250810190610d75919061174e565b81610d7c57fe5b04905090565b60015460408051638fb807c560e01b815290516000926001600160a01b0316916064918391631241689891610e189188918591638fb807c5916004808301926020929190829003018186803b158015610dda57600080fd5b505afa158015610dee573d6000803e3d6000fd5b505050506040513d601f19601f82011682018060405250810190610e12919061174e565b90611335565b6040518263ffffffff1660e01b8152600401610e3491906119f4565b60206040518083038186803b158015610e4c57600080fd5b505afa158015610e60573d6000803e3d6000fd5b505050506040513d601f19601f82011682018060405250810190610e84919061174e565b81610e8b57fe5b049392505050565b6001546040516370a0823160e01b81526000916001600160a01b0316906370a0823190610bd790339060040161181b565b6001546001600160a01b031681565b60408051600481526024810182526020810180516001600160e01b03166395d89b4160e01b1781529151815160609360009384936001600160a01b03881693919290918291908083835b60208310610f3c5780518252601f199092019160209182019101610f1d565b6001836020036101000a038019825116818451168082178552505050505050905001915050600060405180830381855afa9150503d8060008114610f9c576040519150601f19603f3d011682016040523d82523d6000602084013e610fa1565b606091505b509150915081610fd457604051806040016040528060078152602001662aa725a727aba760c91b81525092505050610487565b80516020146110ab57808060200190516020811015610ff257600080fd5b810190808051604051939291908464010000000082111561101257600080fd5b90830190602082018581111561102757600080fd5b825164010000000081118282018810171561104157600080fd5b82525081516020918201929091019080838360005b8381101561106e578181015183820152602001611056565b50505050905090810190601f16801561109b5780820380516001836020036101000a031916815260200191505b5060405250505092505050610487565b60008180602001905160208110156110c257600080fd5b50519050806110f557604051806040016040528060078152602001662aa725a727aba760c91b8152509350505050610487565b600061110082611396565b60ff039050600080600883061161111857600061111b565b60015b60ff1660088304018452509195945050505050565b60008261113f57506000611158565b508181028183828161114d57fe5b041461115857600080fd5b92915050565b600081838161116957fe5b06156111815781838161117857fe5b0460010161118a565b818381610e8b57fe5b9392505050565b604080516001600160a01b0385811660248301528481166044830152606480830185905283518084039091018152608490920183526020820180516001600160e01b03166323b872dd60e01b178152925182516000948594938a169392918291908083835b602083106112155780518252601f1990920191602091820191016111f6565b6001836020036101000a0380198251168184511680821785525050505050509050019150506000604051808303816000865af19150503d8060008114611277576040519150601f19603f3d011682016040523d82523d6000602084013e61127c565b606091505b50915091508180156112aa5750805115806112aa57508080602001905160208110156112a757600080fd5b50515b6112fb576040805162461bcd60e51b815260206004820152600660248201527f54483a5354460000000000000000000000000000000000000000000000000000604482015290519081900360640190fd5b505050505050565b6106c68282600019611584565b60008282111561131f57600080fd5b50900390565b8082018281101561115857600080fd5b6000600160ff1b831061134757600080fd5b828281016000841280159061135c5750818112155b80611371575060008412801561137157508181125b61137a57600080fd5b600081121561138e57600092505050611158565b949350505050565b60008082116113d65760405162461bcd60e51b815260040180806020018281038252602b815260200180611a2e602b913960400191505060405180910390fd5b7e818283848586878898a8b8c8d8e8f929395969799a9b9d9e9faaeb6bedeeff60008390038316810260f881901c9060fd1c600481106114c2576006811061146d5780600614611446577ff8f9cbfae6cc78fbefe7cdc3a1793dfcf4f0e8bbd8cec470b6a28a7a5a3e1efd611468565b7ff5ecf1b3e9debc68e1d9cfabc5997135bfb7a7a3938b7b606b5b4b3f2f1f0ffe5b6114bd565b8060041461149b577ff6e4ed9ff2d6b458eadcdf97bd91692de2d4da8fd2d0ac50c6ae9a82725236166114bd565b7fc8c0b887b0a8a4489c948c7f847c6125746c645c544c444038302820181008ff5b61156c565b6002811061151e57806002146114f8577ff7cae577eec2a03cf3bad76fb589591debb2dd67e0aa9834bea6925f6a4a2e0e6114bd565b7fe39ed557db96902cd38ed14fad815115c786af479b7e8324736353433727170761156c565b801561154a577fc976c13bb96e881cb166a933a55e490d9d56952b8d4e801485467d236242260661156c565b7f753a6d1b65325d0c552a4d1345224105391a310b29122104190a1103090201005b60039290921b60f8169190911c60ff16949350505050565b604080516001600160a01b038481166024830152604480830185905283518084039091018152606490920183526020820180516001600160e01b031663095ea7b360e01b1781529251825160009485949389169392918291908083835b602083106116005780518252601f1990920191602091820191016115e1565b6001836020036101000a0380198251168184511680821785525050505050509050019150506000604051808303816000865af19150503d8060008114611662576040519150601f19603f3d011682016040523d82523d6000602084013e611667565b606091505b5091509150818015611695575080511580611695575080806020019051602081101561169257600080fd5b50515b6116e6576040805162461bcd60e51b815260206004820152600560248201527f54483a5341000000000000000000000000000000000000000000000000000000604482015290519081900360640190fd5b5050505050565b80356001600160a01b038116811461048757600080fd5b60008060408385031215611716578182fd5b61171f836116ed565b915061172d602084016116ed565b90509250929050565b600060208284031215611747578081fd5b5035919050565b60006020828403121561175f578081fd5b5051919050565b60008060008060008060c0878903121561177e578182fd5b865195506020870151945060408701519350606087015192506080870151915060a087015190509295509295509295565b60007f46756c6372756d20000000000000000000000000000000000000000000000000825282516117e78160088501602087016119fd565b7f20416461707465720000000000000000000000000000000000000000000000006008939091019283015250601001919050565b6001600160a01b0391909116815260200190565b6001600160a01b03929092168252602082015260400190565b6001600160a01b0392831681529116602082015260400190565b604080825283519082018190526000906020906060840190828701845b828110156118a45781516001600160a01b03168452928401929084019060010161187f565b50505083810382850152845180825285830191830190845b818110156118d8578351835292840192918401916001016118bc565b5090979650505050505050565b60006020825282518060208401526119048160408501602087016119fd565b601f01601f19169190910160400192915050565b60208082526013908201527f49546f6b656e3a204d696e74206661696c656400000000000000000000000000604082015260600190565b60208082526013908201527f49546f6b656e3a204275726e206661696c656400000000000000000000000000604082015260600190565b6020808252600b908201527f6261642061646472657373000000000000000000000000000000000000000000604082015260600190565b6020808252600b908201527f696e697469616c697a6564000000000000000000000000000000000000000000604082015260600190565b90815260200190565b60005b83811015611a18578181015183820152602001611a00565b83811115611a27576000848401525b5050505056fe426974733a3a6c6f776573744269745365743a2056616c7565203020686173206e6f206269747320736574a164736f6c6343000706000a60c0604052601360808190527f46756c6372756d2045544820416461707465720000000000000000000000000060a09081526200004091600291906200022f565b503480156200004e57600080fd5b5060405162001ba738038062001ba78339810160408190526200007191620002f8565b600080546001600160a01b03199081166001600160a01b03858116918217909355600180549092168484161791829055620000bb92909116620000c3602090811b6200125117901c565b50506200032f565b620000d28282600019620000d6565b5050565b604080516001600160a01b038481166024830152604480830185905283518084039091018152606490920183526020820180516001600160e01b031663095ea7b360e01b1781529251825160009485949389169392918291908083835b60208310620001545780518252601f19909201916020918201910162000133565b6001836020036101000a0380198251168184511680821785525050505050509050019150506000604051808303816000865af19150503d8060008114620001b8576040519150601f19603f3d011682016040523d82523d6000602084013e620001bd565b606091505b5091509150818015620001ee575080511580620001ee5750808060200190516020811015620001eb57600080fd5b50515b62000228576040805162461bcd60e51b815260206004820152600560248201526454483a534160d81b604482015290519081900360640190fd5b5050505050565b828054600181600116156101000203166002900490600052602060002090601f016020900481019282620002675760008555620002b2565b82601f106200028257805160ff1916838001178555620002b2565b82800160010185558215620002b2579182015b82811115620002b257825182559160200191906001019062000295565b50620002c0929150620002c4565b5090565b5b80821115620002c05760008155600101620002c5565b80516001600160a01b0381168114620002f357600080fd5b919050565b600080604083850312156200030b578182fd5b6200031683620002db565b91506200032660208401620002db565b90509250929050565b611868806200033f6000396000f3fe60806040526004361061016a5760003560e01c806374375359116100cb578063c89d5b8b1161007f578063e83dd2e011610059578063e83dd2e01461038a578063f6326fb31461039f578063fc0c546a146103a75761016a565b8063c89d5b8b14610340578063d31c9c2914610355578063d809e453146103755761016a565b80638da876c9116100b05780638da876c9146102eb5780639103c16b14610300578063b6b55f25146103205761016a565b806374375359146102c1578063853828b6146102d65761016a565b80632e1a7d4d1161012257806365cdab3d1161010757806365cdab3d1461026c5780636c4c790e1461028c5780636f307dc3146102ac5761016a565b80632e1a7d4d1461022c5780634e6f376d1461024c5761016a565b80631071a290116101535780631071a290146101bd5780631fbf7fa5146101ea578063282a050b1461020c5761016a565b8063020c06731461016f57806306fdde031461019b575b600080fd5b34801561017b57600080fd5b506101846103bc565b60405161019292919061170e565b60405180910390f35b3480156101a757600080fd5b506101b061045e565b6040516101929190611791565b3480156101c957600080fd5b506101dd6101d836600461164e565b6104e9565b6040516101929190611852565b3480156101f657600080fd5b506101ff610657565b60405161019291906116c7565b34801561021857600080fd5b506101dd61022736600461164e565b61066f565b34801561023857600080fd5b506101dd61024736600461164e565b610718565b34801561025857600080fd5b506101dd61026736600461164e565b6107d9565b34801561027857600080fd5b506101dd61028736600461164e565b610868565b34801561029857600080fd5b506101dd6102a736600461164e565b6109ed565b3480156102b857600080fd5b506101ff610a3a565b3480156102cd57600080fd5b506101dd610a49565b3480156102e257600080fd5b506101dd610bc0565b3480156102f757600080fd5b506101dd610d0a565b34801561030c57600080fd5b506101dd61031b36600461164e565b610d90565b34801561032c57600080fd5b506101dd61033b36600461164e565b610e31565b34801561034c57600080fd5b506101dd610ef0565b34801561036157600080fd5b506101dd61037036600461164e565b610f87565b34801561038157600080fd5b506101dd611098565b34801561039657600080fd5b506101dd61116a565b6101dd61119b565b3480156103b357600080fd5b506101ff611242565b60408051600180825281830190925260609182919060208083019080368337505060408051600180825281830190925292945090506020808301908036833750506000805485519394506001600160a01b03169285925061041957fe5b60200260200101906001600160a01b031690816001600160a01b031681525050610441610ef0565b8160008151811061044e57fe5b6020026020010181815250509091565b6002805460408051602060018416156101000260001901909316849004601f810184900484028201840190925281815292918301828280156104e15780601f106104b6576101008083540402835291602001916104e1565b820191906000526020600020905b8154815290600101906020018083116104c457829003601f168201915b505050505081565b600061058c600160009054906101000a90046001600160a01b03166001600160a01b0316637ff9b5966040518163ffffffff1660e01b815260040160206040518083038186803b15801561053c57600080fd5b505afa158015610550573d6000803e3d6000fd5b505050506040513d601f19601f820116820180604052508101906105749190611666565b61058684670de0b6b3a7640000611262565b90611290565b6001549091506105a7906001600160a01b03163330846112c3565b600154604051632770a7eb60e21b81526000916001600160a01b031690639dc29fac906105da90339086906004016116db565b602060405180830381600087803b1580156105f457600080fd5b505af1158015610608573d6000803e3d6000fd5b505050506040513d601f19601f8201168201806040525081019061062c9190611666565b116106525760405162461bcd60e51b81526004016106499061181b565b60405180910390fd5b919050565b73d8ee69652e4e4838f2531732a46d1f7f584f0b7f81565b6000670de0b6b3a764000061070a600160009054906101000a90046001600160a01b03166001600160a01b0316637ff9b5966040518163ffffffff1660e01b815260040160206040518083038186803b1580156106cb57600080fd5b505afa1580156106df573d6000803e3d6000fd5b505050506040513d601f19601f820116820180604052508101906107039190611666565b8490611262565b8161071157fe5b0492915050565b600154600090610733906001600160a01b03163330856112c3565b600154604051632770a7eb60e21b81526001600160a01b0390911690639dc29fac9061076590339086906004016116db565b602060405180830381600087803b15801561077f57600080fd5b505af1158015610793573d6000803e3d6000fd5b505050506040513d601f19601f820116820180604052508101906107b79190611666565b9050600081116106525760405162461bcd60e51b81526004016106499061181b565b60015460408051633ffcdacb60e11b815290516000926001600160a01b031691637ff9b596916004808301926020929190829003018186803b15801561081e57600080fd5b505afa158015610832573d6000803e3d6000fd5b505050506040513d601f19601f820116820180604052508101906108569190611666565b61070a83670de0b6b3a7640000611262565b600080610873610a49565b90508281106108825782610884565b805b91506000600160009054906101000a90046001600160a01b03166001600160a01b0316637ff9b5966040518163ffffffff1660e01b815260040160206040518083038186803b1580156108d657600080fd5b505afa1580156108ea573d6000803e3d6000fd5b505050506040513d601f19601f8201168201806040525081019061090e9190611666565b61092084670de0b6b3a7640000611262565b8161092757fe5b6001549190049150610944906001600160a01b03163330846112c3565b600154604051632770a7eb60e21b81526000916001600160a01b031690639dc29fac9061097790339086906004016116db565b602060405180830381600087803b15801561099157600080fd5b505af11580156109a5573d6000803e3d6000fd5b505050506040513d601f19601f820116820180604052508101906109c99190611666565b116109e65760405162461bcd60e51b81526004016106499061181b565b5050919050565b600154600090610a08906001600160a01b03163330856112c3565b60015460405163081a6b2560e41b81526001600160a01b03909116906381a6b2509061076590339086906004016116db565b6000546001600160a01b031681565b60015460008054604051630d1979fb60e41b815291928392839273d8ee69652e4e4838f2531732a46d1f7f584f0b7f9263d1979fb092610a99926001600160a01b039283169216906004016116f4565b60c06040518083038186803b158015610ab157600080fd5b505afa158015610ac5573d6000803e3d6000fd5b505050506040513d601f19601f82011682018060405250810190610ae9919061167e565b509450945050505068056bc75e2d63100000610b1a6107038368056bc75e2d6310000061144a90919063ffffffff16565b81610b2157fe5b6000546001546040516370a0823160e01b8152939092049450610bb89285926001600160a01b03928316926370a0823192610b6292909116906004016116c7565b60206040518083038186803b158015610b7a57600080fd5b505afa158015610b8e573d6000803e3d6000fd5b505050506040513d601f19601f82011682018060405250810190610bb29190611666565b9061145f565b925050505b90565b6001546040516370a0823160e01b815260009182916001600160a01b03909116906370a0823190610bf59033906004016116c7565b60206040518083038186803b158015610c0d57600080fd5b505afa158015610c21573d6000803e3d6000fd5b505050506040513d601f19601f82011682018060405250810190610c459190611666565b600154909150610c60906001600160a01b03163330846112c3565b600154604051632770a7eb60e21b81526001600160a01b0390911690639dc29fac90610c9290339085906004016116db565b602060405180830381600087803b158015610cac57600080fd5b505af1158015610cc0573d6000803e3d6000fd5b505050506040513d601f19601f82011682018060405250810190610ce49190611666565b915060008211610d065760405162461bcd60e51b81526004016106499061181b565b5090565b600154604051630359f7eb60e11b81526000916001600160a01b0316906306b3efd690610d3b9033906004016116c7565b60206040518083038186803b158015610d5357600080fd5b505afa158015610d67573d6000803e3d6000fd5b505050506040513d601f19601f82011682018060405250810190610d8b9190611666565b905090565b6000610de3600160009054906101000a90046001600160a01b03166001600160a01b0316637ff9b5966040518163ffffffff1660e01b815260040160206040518083038186803b15801561053c57600080fd5b600154909150610dfe906001600160a01b03163330846112c3565b60015460405163081a6b2560e41b81526000916001600160a01b0316906381a6b250906105da90339086906004016116db565b60008054610e4a906001600160a01b03163330856112c3565b6001546040516340c10f1960e01b81526001600160a01b03909116906340c10f1990610e7c90339086906004016116db565b602060405180830381600087803b158015610e9657600080fd5b505af1158015610eaa573d6000803e3d6000fd5b505050506040513d601f19601f82011682018060405250810190610ece9190611666565b9050600081116106525760405162461bcd60e51b8152600401610649906117e4565b60006064600160009054906101000a90046001600160a01b03166001600160a01b03166309ec6b6b6040518163ffffffff1660e01b815260040160206040518083038186803b158015610f4257600080fd5b505afa158015610f56573d6000803e3d6000fd5b505050506040513d601f19601f82011682018060405250810190610f7a9190611666565b81610f8157fe5b04905090565b60015460408051638fb807c560e01b815290516000926001600160a01b031691606491839163124168989161101d9188918591638fb807c5916004808301926020929190829003018186803b158015610fdf57600080fd5b505afa158015610ff3573d6000803e3d6000fd5b505050506040513d601f19601f820116820180604052508101906110179190611666565b9061146f565b6040518263ffffffff1660e01b81526004016110399190611852565b60206040518083038186803b15801561105157600080fd5b505afa158015611065573d6000803e3d6000fd5b505050506040513d601f19601f820116820180604052508101906110899190611666565b8161109057fe5b049392505050565b6001546040516370a0823160e01b815260009182916001600160a01b03909116906370a08231906110cd9033906004016116c7565b60206040518083038186803b1580156110e557600080fd5b505afa1580156110f9573d6000803e3d6000fd5b505050506040513d601f19601f8201168201806040525081019061111d9190611666565b600154909150611138906001600160a01b03163330846112c3565b60015460405163081a6b2560e41b81526001600160a01b03909116906381a6b25090610c9290339085906004016116db565b6001546040516370a0823160e01b81526000916001600160a01b0316906370a0823190610d3b9033906004016116c7565b600154604051638f6ede1f60e01b81526000916001600160a01b031690638f6ede1f9034906111ce9033906004016116c7565b6020604051808303818588803b1580156111e757600080fd5b505af11580156111fb573d6000803e3d6000fd5b50505050506040513d601f19601f820116820180604052508101906112209190611666565b905060008111610bbd5760405162461bcd60e51b8152600401610649906117e4565b6001546001600160a01b031681565b61125e82826000196114d0565b5050565b6000826112715750600061128a565b508181028183828161127f57fe5b041461128a57600080fd5b92915050565b600081838161129b57fe5b06156112b3578183816112aa57fe5b046001016112bc565b81838161109057fe5b9392505050565b604080516001600160a01b0385811660248301528481166044830152606480830185905283518084039091018152608490920183526020820180517bffffffffffffffffffffffffffffffffffffffffffffffffffffffff166323b872dd60e01b178152925182516000948594938a169392918291908083835b6020831061135c5780518252601f19909201916020918201910161133d565b6001836020036101000a0380198251168184511680821785525050505050509050019150506000604051808303816000865af19150503d80600081146113be576040519150601f19603f3d011682016040523d82523d6000602084013e6113c3565b606091505b50915091508180156113f15750805115806113f157508080602001905160208110156113ee57600080fd5b50515b611442576040805162461bcd60e51b815260206004820152600660248201527f54483a5354460000000000000000000000000000000000000000000000000000604482015290519081900360640190fd5b505050505050565b60008282111561145957600080fd5b50900390565b8082018281101561128a57600080fd5b6000600160ff1b831061148157600080fd5b82828101600084128015906114965750818112155b806114ab57506000841280156114ab57508181125b6114b457600080fd5b60008112156114c85760009250505061128a565b949350505050565b604080516001600160a01b038481166024830152604480830185905283518084039091018152606490920183526020820180517bffffffffffffffffffffffffffffffffffffffffffffffffffffffff1663095ea7b360e01b1781529251825160009485949389169392918291908083835b602083106115615780518252601f199092019160209182019101611542565b6001836020036101000a0380198251168184511680821785525050505050509050019150506000604051808303816000865af19150503d80600081146115c3576040519150601f19603f3d011682016040523d82523d6000602084013e6115c8565b606091505b50915091508180156115f65750805115806115f657508080602001905160208110156115f357600080fd5b50515b611647576040805162461bcd60e51b815260206004820152600560248201527f54483a5341000000000000000000000000000000000000000000000000000000604482015290519081900360640190fd5b5050505050565b60006020828403121561165f578081fd5b5035919050565b600060208284031215611677578081fd5b5051919050565b60008060008060008060c08789031215611696578182fd5b865195506020870151945060408701519350606087015192506080870151915060a087015190509295509295509295565b6001600160a01b0391909116815260200190565b6001600160a01b03929092168252602082015260400190565b6001600160a01b0392831681529116602082015260400190565b604080825283519082018190526000906020906060840190828701845b828110156117505781516001600160a01b03168452928401929084019060010161172b565b50505083810382850152845180825285830191830190845b8181101561178457835183529284019291840191600101611768565b5090979650505050505050565b6000602080835283518082850152825b818110156117bd578581018301518582016040015282016117a1565b818111156117ce5783604083870101525b50601f01601f1916929092016040019392505050565b60208082526013908201527f49546f6b656e3a204d696e74206661696c656400000000000000000000000000604082015260600190565b60208082526013908201527f49546f6b656e3a204275726e206661696c656400000000000000000000000000604082015260600190565b9081526020019056fea164736f6c6343000706000a",
  "devdoc": {
    "kind": "dev",
    "methods": {
      "freezeAdapter(address)": {
        "details": "Freeze `adapter` - add it to `frozenAdapters` and remove it from the registry. Does not verify adapter exists or has been registered by this contract because the registry handles that."
      },
      "getUnmapped()": {
        "details": "Get the list of tokens which have not already been mapped by the adapter. Tokens may be underlying tokens or wrapper tokens for a lending market."
      },
      "getUnmappedUpTo(uint256)": {
        "details": "Get up to `max` tokens which have not already been mapped by the adapter. Tokens may be underlying tokens or wrapper tokens for a lending market."
      },
      "map(uint256)": {
        "details": "Map up to `max` tokens, starting at `totalMapped`."
      },
      "protocol()": {
        "details": "Name of the protocol the adapter is for."
      },
      "unfreezeAdapter(uint256)": {
        "details": "Unfreeze adapter at `index` in `frozenAdapters`. Market for the adapter must not be frozen by the protocol."
      },
      "unfreezeToken(uint256)": {
        "details": "Unfreeze token at `index` in `frozenTokens` and create a new adapter for it. Market for the token must not be frozen by the protocol."
      }
    },
    "version": 1
  },
  "userdoc": {
    "kind": "user",
    "methods": {},
    "version": 1
  },
  "storageLayout": {
    "storage": [
      {
        "astId": 18197,
        "contract": "contracts/protocols/FulcrumProtocolAdapter.sol:FulcrumProtocolAdapter",
        "label": "frozenAdapters",
        "offset": 0,
        "slot": "0",
        "type": "t_array(t_address)dyn_storage"
      },
      {
        "astId": 18201,
        "contract": "contracts/protocols/FulcrumProtocolAdapter.sol:FulcrumProtocolAdapter",
        "label": "frozenTokens",
        "offset": 0,
        "slot": "1",
        "type": "t_array(t_address)dyn_storage"
      },
      {
        "astId": 18204,
        "contract": "contracts/protocols/FulcrumProtocolAdapter.sol:FulcrumProtocolAdapter",
        "label": "totalMapped",
        "offset": 0,
        "slot": "2",
        "type": "t_uint256"
      }
    ],
    "types": {
      "t_address": {
        "encoding": "inplace",
        "label": "address",
        "numberOfBytes": "20"
      },
      "t_array(t_address)dyn_storage": {
        "base": "t_address",
        "encoding": "dynamic_array",
        "label": "address[]",
        "numberOfBytes": "32"
      },
      "t_uint256": {
        "encoding": "inplace",
        "label": "uint256",
        "numberOfBytes": "32"
      }
    }
  }
}