{
  "address": "0x0Cd08613dc6b04a7a58472f88791BE24C48be52E",
  "abi": [
    {
      "inputs": [
        {
          "internalType": "address",
          "name": "_proxyManager",
          "type": "address"
        },
        {
          "internalType": "address",
          "name": "_registry",
          "type": "address"
        }
      ],
      "stateMutability": "nonpayable",
      "type": "constructor"
    },
    {
      "anonymous": false,
      "inputs": [
        {
          "indexed": true,
          "internalType": "address",
          "name": "previousOwner",
          "type": "address"
        },
        {
          "indexed": true,
          "internalType": "address",
          "name": "newOwner",
          "type": "address"
        }
      ],
      "name": "OwnershipTransferred",
      "type": "event"
    },
    {
      "anonymous": false,
      "inputs": [
        {
          "indexed": false,
          "internalType": "address",
          "name": "defaultFeeRecipient",
          "type": "address"
        }
      ],
      "name": "SetDefaultFeeRecipient",
      "type": "event"
    },
    {
      "anonymous": false,
      "inputs": [
        {
          "indexed": false,
          "internalType": "address",
          "name": "defaultRewardsSeller",
          "type": "address"
        }
      ],
      "name": "SetDefaultRewardsSeller",
      "type": "event"
    },
    {
      "anonymous": false,
      "inputs": [
        {
          "indexed": false,
          "internalType": "address",
          "name": "token",
          "type": "address"
        }
      ],
      "name": "TokenApproved",
      "type": "event"
    },
    {
      "inputs": [
        {
          "internalType": "address",
          "name": "token",
          "type": "address"
        }
      ],
      "name": "approveToken",
      "outputs": [],
      "stateMutability": "nonpayable",
      "type": "function"
    },
    {
      "inputs": [
        {
          "internalType": "address",
          "name": "underlying",
          "type": "address"
        }
      ],
      "name": "computeVaultAddress",
      "outputs": [
        {
          "internalType": "address",
          "name": "vault",
          "type": "address"
        }
      ],
      "stateMutability": "view",
      "type": "function"
    },
    {
      "inputs": [],
      "name": "defaultFeeRecipient",
      "outputs": [
        {
          "internalType": "address",
          "name": "",
          "type": "address"
        }
      ],
      "stateMutability": "view",
      "type": "function"
    },
    {
      "inputs": [],
      "name": "defaultRewardsSeller",
      "outputs": [
        {
          "internalType": "address",
          "name": "",
          "type": "address"
        }
      ],
      "stateMutability": "view",
      "type": "function"
    },
    {
      "inputs": [
        {
          "internalType": "address",
          "name": "underlying",
          "type": "address"
        }
      ],
      "name": "deployVault",
      "outputs": [],
      "stateMutability": "nonpayable",
      "type": "function"
    },
    {
      "inputs": [],
      "name": "erc20VaultImplementationId",
      "outputs": [
        {
          "internalType": "bytes32",
          "name": "",
          "type": "bytes32"
        }
      ],
      "stateMutability": "view",
      "type": "function"
    },
    {
      "inputs": [],
      "name": "ethVaultImplementationId",
      "outputs": [
        {
          "internalType": "bytes32",
          "name": "",
          "type": "bytes32"
        }
      ],
      "stateMutability": "view",
      "type": "function"
    },
    {
      "inputs": [],
      "name": "getApprovedTokens",
      "outputs": [
        {
          "internalType": "address[]",
          "name": "approvedTokens",
          "type": "address[]"
        }
      ],
      "stateMutability": "view",
      "type": "function"
    },
    {
      "inputs": [
        {
          "internalType": "address",
          "name": "token",
          "type": "address"
        }
      ],
      "name": "isTokenApproved",
      "outputs": [
        {
          "internalType": "bool",
          "name": "",
          "type": "bool"
        }
      ],
      "stateMutability": "view",
      "type": "function"
    },
    {
      "inputs": [],
      "name": "minimumAdapters",
      "outputs": [
        {
          "internalType": "uint256",
          "name": "",
          "type": "uint256"
        }
      ],
      "stateMutability": "view",
      "type": "function"
    },
    {
      "inputs": [],
      "name": "owner",
      "outputs": [
        {
          "internalType": "address",
          "name": "",
          "type": "address"
        }
      ],
      "stateMutability": "view",
      "type": "function"
    },
    {
      "inputs": [],
      "name": "proxyManager",
      "outputs": [
        {
          "internalType": "contract IProxyManager",
          "name": "",
          "type": "address"
        }
      ],
      "stateMutability": "view",
      "type": "function"
    },
    {
      "inputs": [],
      "name": "registry",
      "outputs": [
        {
          "internalType": "contract IAdapterRegistry",
          "name": "",
          "type": "address"
        }
      ],
      "stateMutability": "view",
      "type": "function"
    },
    {
      "inputs": [],
      "name": "renounceOwnership",
      "outputs": [],
      "stateMutability": "nonpayable",
      "type": "function"
    },
    {
      "inputs": [
        {
          "internalType": "address",
          "name": "_defaultFeeRecipient",
          "type": "address"
        }
      ],
      "name": "setDefaultFeeRecipient",
      "outputs": [],
      "stateMutability": "nonpayable",
      "type": "function"
    },
    {
      "inputs": [
        {
          "internalType": "address",
          "name": "_defaultRewardsSeller",
          "type": "address"
        }
      ],
      "name": "setDefaultRewardsSeller",
      "outputs": [],
      "stateMutability": "nonpayable",
      "type": "function"
    },
    {
      "inputs": [
        {
          "internalType": "address",
          "name": "newOwner",
          "type": "address"
        }
      ],
      "name": "transferOwnership",
      "outputs": [],
      "stateMutability": "nonpayable",
      "type": "function"
    },
    {
      "inputs": [],
      "name": "weth",
      "outputs": [
        {
          "internalType": "address",
          "name": "",
          "type": "address"
        }
      ],
      "stateMutability": "view",
      "type": "function"
    }
  ],
  "transactionHash": "0xe0c712fc1a4c74fcdecaad11aee0fa42b7eaa26ceb789b776405ba70107a61db",
  "args": [
    "0xd23dedc599bd56767e42d48484d6ca96ab01c115",
    "0x5F2945604013Ee9f80aE2eDDb384462B681859C4"
  ],
  "solcInputHash": "06d89cdc5f2bce9f6e0e1e7b7ef4e3a6",
  "bytecode": "0x60c060405234801561001057600080fd5b506040516110ab3803806110ab8339818101604052604081101561003357600080fd5b50805160209091015160006100466100ae565b600080546001600160a01b0319166001600160a01b0383169081178255604051929350917f8be0079c531659141344cd1fd0a4f28419497f9722a3daafe3b4186f6b6457e0908290a3506001600160601b0319606092831b8116608052911b1660a0526100b2565b3390565b60805160601c60a05160601c610fbc6100ef6000398061051252806107e4528061094152508061069f5280610ada5280610b735250610fbc6000f3fe608060405234801561001057600080fd5b50600436106101365760003560e01c806380b2edd8116100b2578063a9e5047111610081578063b426a1cd11610066578063b426a1cd146102dd578063b561f54d14610303578063f2fde38b1461030b57610136565b8063a9e50471146102af578063ae61b50a146102d557610136565b806380b2edd81461023f5780638da5cb5b1461026557806396b4ca701461026d5780639d93d3521461027557610136565b80635b067e6e116101095780636afc0c5f116100ee5780636afc0c5f146101d7578063715018a61461022f5780637b1039991461023757610136565b80635b067e6e146101a95780635eb512e7146101b157610136565b8063288101a51461013b5780633fc8cef3146101555780634e3fe27814610179578063513a4bed14610181575b600080fd5b610143610331565b60408051918252519081900360200190f35b61015d610355565b604080516001600160a01b039092168252519081900360200190f35b61015d61036d565b6101a76004803603602081101561019757600080fd5b50356001600160a01b031661037c565b005b61014361048e565b6101a7600480360360208110156101c757600080fd5b50356001600160a01b03166104b2565b6101df610870565b60408051602080825283518183015283519192839290830191858101910280838360005b8381101561021b578181015183820152602001610203565b505050509050019250505060405180910390f35b6101a7610881565b61015d61093f565b6101a76004803603602081101561025557600080fd5b50356001600160a01b0316610963565b61015d610ac9565b61015d610ad8565b61029b6004803603602081101561028b57600080fd5b50356001600160a01b0316610afc565b604080519115158252519081900360200190f35b61015d600480360360208110156102c557600080fd5b50356001600160a01b0316610b0f565b61015d610beb565b6101a7600480360360208110156102f357600080fd5b50356001600160a01b0316610bfa565b610143610d0c565b6101a76004803603602081101561032157600080fd5b50356001600160a01b0316610d11565b7f3eac47c15080770c500e2b9533dc0557514eac946337c6656fce37b60b59443681565b73c02aaa39b223fe8d0a0e5c4f27ead9083c756cc281565b6003546001600160a01b031681565b610384610e25565b6001600160a01b0316610395610ac9565b6001600160a01b0316146103f0576040805162461bcd60e51b815260206004820181905260248201527f4f776e61626c653a2063616c6c6572206973206e6f7420746865206f776e6572604482015290519081900360640190fd5b6001600160a01b03811661043a576040805162461bcd60e51b815260206004820152600c60248201526b6e756c6c206164647265737360a01b604482015290519081900360640190fd5b600380546001600160a01b0383166001600160a01b0319909116811790915560408051918252517f502ebceba9ae11ee85d53c1edc7243751a62c21044db38e0956a3b43caa837929181900360200190a150565b7f0253df30403eec3b9d29521aa6d51070f16d7c8012cb0f5d32cbce644fcb173381565b6104bd600182610e29565b61050e576040805162461bcd60e51b815260206004820152600960248201527f21617070726f7665640000000000000000000000000000000000000000000000604482015290519081900360640190fd5b60027f00000000000000000000000000000000000000000000000000000000000000006001600160a01b03166328e25244836040518263ffffffff1660e01b815260040180826001600160a01b0316815260200191505060206040518083038186803b15801561057d57600080fd5b505afa158015610591573d6000803e3d6000fd5b505050506040513d60208110156105a757600080fd5b505110156105fc576040805162461bcd60e51b815260206004820152601560248201527f696e73756666696369656e742061646170746572730000000000000000000000604482015290519081900360640190fd5b6003546001600160a01b03168061065a576040805162461bcd60e51b815260206004820152600c60248201527f6e756c6c2064656661756c740000000000000000000000000000000000000000604482015290519081900360640190fd5b600061066583610e45565b905060008360405160200180826001600160a01b0316815260200191505060405160208183030381529060405280519060200120905060007f00000000000000000000000000000000000000000000000000000000000000006001600160a01b0316631a5e5bc584846040518363ffffffff1660e01b81526004018083815260200182815260200192505050602060405180830381600087803b15801561070b57600080fd5b505af115801561071f573d6000803e3d6000fd5b505050506040513d602081101561073557600080fd5b50516004549091506001600160a01b038083169163f8c8765e918891168761075b610ac9565b6040518563ffffffff1660e01b815260040180856001600160a01b03168152602001846001600160a01b03168152602001836001600160a01b03168152602001826001600160a01b03168152602001945050505050600060405180830381600087803b1580156107ca57600080fd5b505af11580156107de573d6000803e3d6000fd5b505050507f00000000000000000000000000000000000000000000000000000000000000006001600160a01b031663256b5a02826040518263ffffffff1660e01b815260040180826001600160a01b03168152602001915050600060405180830381600087803b15801561085157600080fd5b505af1158015610865573d6000803e3d6000fd5b505050505050505050565b606061087c6001610eb8565b905090565b610889610e25565b6001600160a01b031661089a610ac9565b6001600160a01b0316146108f5576040805162461bcd60e51b815260206004820181905260248201527f4f776e61626c653a2063616c6c6572206973206e6f7420746865206f776e6572604482015290519081900360640190fd5b600080546040516001600160a01b03909116907f8be0079c531659141344cd1fd0a4f28419497f9722a3daafe3b4186f6b6457e0908390a3600080546001600160a01b0319169055565b7f000000000000000000000000000000000000000000000000000000000000000081565b61096b610e25565b6001600160a01b031661097c610ac9565b6001600160a01b0316146109d7576040805162461bcd60e51b815260206004820181905260248201527f4f776e61626c653a2063616c6c6572206973206e6f7420746865206f776e6572604482015290519081900360640190fd5b6109e2600182610e29565b15610a34576040805162461bcd60e51b815260206004820152601060248201527f616c726561647920617070726f76656400000000000000000000000000000000604482015290519081900360640190fd5b6001600160a01b038116610a7e576040805162461bcd60e51b815260206004820152600c60248201526b6e756c6c206164647265737360a01b604482015290519081900360640190fd5b610a89600182610f12565b50604080516001600160a01b038316815290517f5f5916d70d5479c1795a9d461360dfa5c673bc37904c8ab4fcbdc970b9e90f3d9181900360200190a150565b6000546001600160a01b031690565b7f000000000000000000000000000000000000000000000000000000000000000081565b6000610b09600183610e29565b92915050565b600080610b1b83610e45565b604080516001600160a01b03808716602080840191909152835180840382018152838501808652815191830191909120631a0f5a9360e31b9091523060448501526064840186905260848401819052935194955092937f00000000000000000000000000000000000000000000000000000000000000009091169263d07ad4989260a48082019391829003018186803b158015610bb757600080fd5b505afa158015610bcb573d6000803e3d6000fd5b505050506040513d6020811015610be157600080fd5b5051949350505050565b6004546001600160a01b031681565b610c02610e25565b6001600160a01b0316610c13610ac9565b6001600160a01b031614610c6e576040805162461bcd60e51b815260206004820181905260248201527f4f776e61626c653a2063616c6c6572206973206e6f7420746865206f776e6572604482015290519081900360640190fd5b6001600160a01b038116610cb8576040805162461bcd60e51b815260206004820152600c60248201526b6e756c6c206164647265737360a01b604482015290519081900360640190fd5b600480546001600160a01b0383166001600160a01b0319909116811790915560408051918252517f3d489297f9cfa3944a67bfad097ebdf6dec9065ffe5ad8f69aa331a844069ab19181900360200190a150565b600281565b610d19610e25565b6001600160a01b0316610d2a610ac9565b6001600160a01b031614610d85576040805162461bcd60e51b815260206004820181905260248201527f4f776e61626c653a2063616c6c6572206973206e6f7420746865206f776e6572604482015290519081900360640190fd5b6001600160a01b038116610dca5760405162461bcd60e51b8152600401808060200182810382526026815260200180610f8a6026913960400191505060405180910390fd5b600080546040516001600160a01b03808516939216917f8be0079c531659141344cd1fd0a4f28419497f9722a3daafe3b4186f6b6457e091a3600080546001600160a01b0319166001600160a01b0392909216919091179055565b3390565b6000610e3e836001600160a01b038416610f27565b9392505050565b60006001600160a01b03821673c02aaa39b223fe8d0a0e5c4f27ead9083c756cc214610e91577f3eac47c15080770c500e2b9533dc0557514eac946337c6656fce37b60b594436610b09565b507f0253df30403eec3b9d29521aa6d51070f16d7c8012cb0f5d32cbce644fcb1733919050565b805460408051602080840282018101909252828152606092600092859190830182828015610f0557602002820191906000526020600020905b815481526020019060010190808311610ef1575b5093979650505050505050565b6000610e3e836001600160a01b038416610f3f565b60009081526001919091016020526040902054151590565b6000610f4b8383610f27565b610f8157508154600181810184556000848152602080822090930184905584548482528286019093526040902091909155610b09565b506000610b0956fe4f776e61626c653a206e6577206f776e657220697320746865207a65726f2061646472657373a164736f6c6343000706000a",
  "devdoc": {
    "kind": "dev",
    "methods": {
      "owner()": {
        "details": "Returns the address of the current owner."
      },
      "renounceOwnership()": {
        "details": "Leaves the contract without owner. It will not be possible to call `onlyOwner` functions anymore. Can only be called by the current owner. NOTE: Renouncing ownership will leave the contract without an owner, thereby removing any functionality that is only available to the owner."
      },
      "transferOwnership(address)": {
        "details": "Transfers ownership of the contract to a new account (`newOwner`). Can only be called by the current owner."
      }
    },
    "version": 1
  },
  "userdoc": {
    "kind": "user",
    "methods": {},
    "version": 1
  },
  "storageLayout": {
    "storage": [
      {
        "astId": 7,
        "contract": "contracts/NirnVaultFactory.sol:NirnVaultFactory",
        "label": "_owner",
        "offset": 0,
        "slot": "0",
        "type": "t_address"
      },
      {
        "astId": 2374,
        "contract": "contracts/NirnVaultFactory.sol:NirnVaultFactory",
        "label": "_approvedTokens",
        "offset": 0,
        "slot": "1",
        "type": "t_struct(AddressSet)763_storage"
      },
      {
        "astId": 2376,
        "contract": "contracts/NirnVaultFactory.sol:NirnVaultFactory",
        "label": "defaultFeeRecipient",
        "offset": 0,
        "slot": "3",
        "type": "t_address"
      },
      {
        "astId": 2378,
        "contract": "contracts/NirnVaultFactory.sol:NirnVaultFactory",
        "label": "defaultRewardsSeller",
        "offset": 0,
        "slot": "4",
        "type": "t_address"
      }
    ],
    "types": {
      "t_address": {
        "encoding": "inplace",
        "label": "address",
        "numberOfBytes": "20"
      },
      "t_array(t_bytes32)dyn_storage": {
        "base": "t_bytes32",
        "encoding": "dynamic_array",
        "label": "bytes32[]",
        "numberOfBytes": "32"
      },
      "t_bytes32": {
        "encoding": "inplace",
        "label": "bytes32",
        "numberOfBytes": "32"
      },
      "t_mapping(t_bytes32,t_uint256)": {
        "encoding": "mapping",
        "key": "t_bytes32",
        "label": "mapping(bytes32 => uint256)",
        "numberOfBytes": "32",
        "value": "t_uint256"
      },
      "t_struct(AddressSet)763_storage": {
        "encoding": "inplace",
        "label": "struct EnumerableSet.AddressSet",
        "members": [
          {
            "astId": 762,
            "contract": "contracts/NirnVaultFactory.sol:NirnVaultFactory",
            "label": "_inner",
            "offset": 0,
            "slot": "0",
            "type": "t_struct(Set)498_storage"
          }
        ],
        "numberOfBytes": "64"
      },
      "t_struct(Set)498_storage": {
        "encoding": "inplace",
        "label": "struct EnumerableSet.Set",
        "members": [
          {
            "astId": 493,
            "contract": "contracts/NirnVaultFactory.sol:NirnVaultFactory",
            "label": "_values",
            "offset": 0,
            "slot": "0",
            "type": "t_array(t_bytes32)dyn_storage"
          },
          {
            "astId": 497,
            "contract": "contracts/NirnVaultFactory.sol:NirnVaultFactory",
            "label": "_indexes",
            "offset": 0,
            "slot": "1",
            "type": "t_mapping(t_bytes32,t_uint256)"
          }
        ],
        "numberOfBytes": "64"
      },
      "t_uint256": {
        "encoding": "inplace",
        "label": "uint256",
        "numberOfBytes": "32"
      }
    }
  }
}